:04000005180089F066
:020000041800E2
:100000003C3CA5A5C3C35A5A02000000FFFFFFFFF6
:0C001000FFFFFFFF001000181811000097
:06002000FFFFFF27501056
:1010000000C00000651C00188D1C00188D1C001805
:1010100000000000000000000000000000000000D0
:10102000000000000000000000000000911C0018FB
:1010300000000000000000008D1C00188D1C00182E
:101040008D1C00188D1C0018D51D0018E508000027
:101050008D1C00188D1C00188D1C00188D1C00188C
:101060008D1C00188D1C0018F51B0018BD1B0018E6
:101070008D1C0018E91D00188D1C00188D1C00180F
:101080008D1C00188D1C00188D1C0018E508000030
:101090008D1C00188D1C00188D1C00188D1C00184C
:1010A0008D1C00188D1C00188D1C0018AD1C00181C
:1010B000C51C0018DD1C0018E5080000E50800004C
:1010C000000000009C200018BC2000187C200018A4
:1010D0000000000000000000000000000000000010
:1010E0000000000000000000000000000000000000
:1010F00000000000000000000000000000000000F0
:1011000000000000000000000000000000000000DF
:1011100000000000000000000000000000000000CF
:1011200072B6FEE7F0B50400134D9B021D439034E8
:101130000600256005009436A835042A12D8002A36
:101140000FD0013A12051A4320231A4303002260EC
:101150000A68A8331A600122143B1A600368002B46
:10116000FCDAF0BD80C9043A2F60112792B23760D3
:101170000768002FFCDAE0E720003000F7B5040034
:1011800008009902164B25000B43210090310B609B
:101190002600230011219433A035A436082A13D841
:1011A000002A10D023000121943319602368002BFA
:1011B000FCDA2300A0331B68A4340093236869463B
:1011C000019300F0C9FBF7BD083A196092B2276895
:1011D000002FFCDA2F680760376847600830DDE7CA
:1011E0001000070073B50D7A06AC26786C06B602BF
:1011F000E40F34430E79360634432E07F60F76009B
:101200003443EE06F60F76023443AE07360C344311
:101210006E07F60FF6003443E026AD06ED0FAD0085
:101220002C43551EF6022D0435402C4315006E1E2E
:10123000B5412D012C43050090352C604C68240AE3
:10124000AC601C0101232343040094342360036831
:10125000002BFCDAA0300368086801A9019300F0B4
:101260007BFB73BD73B51E0006AB050018780B7AC7
:1012700080025C06E40F044308793601000604434B
:101280001807C00F40000443D806C00F40020443B3
:101290009807000C04435807C00FC0000443E02027
:1012A0009B06DB0F9B001C43531EC0031B05034022
:1012B0001C431300581E83415B011C432B00280074
:1012C00090331C604B6898301B0A0360096801A8C2
:1012D00000F042FB2B00019AA8331A600122143B54
:1012E00016431E602B68002BFCDA73BDF0B585B089
:1012F000029203938C8906000D00042C1AD8002753
:10130000E4B200F021FA3068AB7B22008362EB7B11
:10131000290000933B00029FB847AA892968121B45
:101320000919EB7B306892B2039CA04700F014FAD5
:1013300005B0F0BD0A68032314001C401A4202D015
:1013400001331C1BE4B20127DBE770B50400012167
:1013500000F05EFA200000F04BFA00232568200020
:10136000EB6200F065FAE860200000F05DFA1E22F2
:101370002368400010401861200000F057FAF02365
:10138000C004DB031840812322681843106070BD3D
:1013900010B58A784B780068140783625307DB0F17
:1013A000E40F097824041B0323430B43D106C90F20
:1013B000090592070B4392091343436010BD10B512
:1013C000024B034AFFF792FF10BDC0467D010000AB
:1013D000E501000010B5024B024AFFF787FF10BD80
:1013E0002501000065020000F0B51C00013B05006E
:1013F0000E00170085B0032B01D9FFF791FE6B4655
:101400006C221E711B7A694693431A0040231343D2
:101410006A4613720023280000979481D373FFF764
:10142000D9FF05B0F0BD0368012218000906114379
:1014300090300160190094310A601A68002AFCDAC1
:101440007047F0B51C00013B05000E00170085B089
:10145000072B01D9FFF764FE6B466C221E711B7AC5
:10146000694693431A00402313436A4613720023CC
:10147000280000979481D373FFF7A1FF05B0F0BD5A
:1014800010B501000148FFF79AFF10BD9409000054
:1014900010B5FFF7F5FF10BD10B5FFF7F1FF10BD58
:1014A00030B587B06A46D41DEB22039282013D20FD
:1014B0007F2502AB10431A7A2840AA431043012229
:1014C00018729973064819009A81DA730294FFF72B
:1014D00076FF23783C2B01D0FFF722FE07B030BD0A
:1014E0009409000010B50200022301210148FFF712
:1014F0007BFF10BD9409000010B5020003232021DA
:101500000148FFF771FF10BD9409000010B50200FB
:10151000032344210148FFF767FF10BD9409000031
:1015200010B560210148FFF77EFF10BD940900004F
:1015300010B501000148FFF74DFF10BD94090000F0
:1015400010B5FFF7F5FF10BD014B18707047C0468E
:1015500091090000014B18707047C04690090000C7
:10156000034B044A1A60044B1870044B19707047FF
:101570009409000000000240910900009009000059
:1015800010B50248FFF7E1FE10BDC0469409000007
:1015900013B50E4C2378002B16D100F0D5F820217E
:1015A0000120FFF77DFF1F22094B01A90B808B78DB
:1015B000084893431A001E2313438B70FFF7E8FE7D
:1015C0000123237000F0C8F813BDC0469109000044
:1015D000EB2000009409000010B5074C2378002B85
:1015E00009D000F0B1F800210800FFF759FF0023EF
:1015F000237000F0B1F810BD9109000070B50D0026
:101600000400FFF7E9FF2800A047FFF7C1FF70BD06
:1016100010B50200012305210148FFF712FF10BD9C
:101620009409000073B50D00040000F08DF8FFF779
:10163000D3FF06210B48FFF7F6FE2800A047012440
:10164000094D2C7000F088F86B46DE1D3000FFF766
:10165000DFFF33781A0022402342F5D12A70FFF7CA
:1016600097FF73BD940900009009000010B50200B7
:10167000012335210148FFF7E4FE10BD9409000065
:1016800007B56B46991D08800148FFF7CBFF07BDE2
:10169000E504000010B5B9210148FFF7C4FE10BDF4
:1016A0009409000010B5AB210148FFF7BCFE10BD46
:1016B0009409000013B56B4601AC581DFFF7D6FF27
:1016C00063789B070BD42000FFF7A2FF6378207894
:1016D0001B020343802080001843FFF7D1FF13BD96
:1016E00010B575210148FFF79EFE10BD940900005A
:1016F00010B57A210148FFF796FE10BD940900004D
:10170000014B18787047C04690090000014B1878CB
:101710007047C0469109000070B504000D1E02D04C
:10172000012000F095F82020640104401F38054B8B
:10173000284004431C60002D02D1280000F088F8E6
:1017400070BDC0460074014072B6024A136801338E
:10175000136070479C090000034A1368013B136043
:10176000002B00D162B670479C09000010B55020D4
:1017700000F03AF810BD0449044A4B681A40044B83
:1017800013434B607047C0460010024008FFFF7FC4
:10179000020000800349044A4B681A40034B13437C
:1017A0004B6070470010024008FFFF7F010000807F
:1017B0000722054B00205B681A40042A03D11B0650
:1017C0001B0F584258417047001002400349044A19
:1017D0004B681A40034B13434B60704700100240A4
:1017E00008FFFF7F0400008001380028FCD170470B
:1017F0008022054B520599690A439A619A69034907
:101800000A409A617047C04600100240FFFFFFEF98
:10181000034A0448536A0907034019435162704759
:1018200000100240FFFFFFEF0220704700207047CA
:1018300000487047020204000121044B1A690A4360
:101840001A611A698A431A617047C0460010024043
:1018500010B502000124084B2240D9694007A1437A
:101860000A438021DA6189055A6A084003490A401F
:101870001043586210BDC04600100240FFFFFFDF5A
:101880000449054ACB691A40A0239B011343CB614D
:101890007047C04600040048FFC3FFFF10B5FFF7C4
:1018A0006AFFFFF793FF72B6FFF7EAFF0021080017
:1018B000FFF756FEFFF764FEFFF7FCFEFFF768FE3A
:1018C00001210020FFF728FF044B1B6883F30888E1
:1018D000034B1B689847002010BDC04600800018CD
:1018E0000480001870B5FFF70BFF0500FFF70EFF2F
:1018F0000400002D07D0002801D0FFF711FCFFF7EE
:10190000EFFEFFF733FF002C01D1FFF741FE00F09F
:1019100037F800F02DF8002C01D1FFF75DFE002D07
:1019200001D0FFF7E5FE70BD074B1A6801231A428C
:1019300007D0064A06491360064A13680B40136035
:101940007047C046FDE7C0461C0000502000005014
:10195000FFFFFFDF10100240002310B59A4200D1B4
:1019600010BDCC5CC4540133F8E700000000000057
:1019700001B40248844601BC604700BF0D39061817
:1019800001B40248844601BC604700BFE5D2071895
:10199000F8B5C046F8BC08BC9E467047F8B5C046CE
:1019A000F8BC08BC9E467047164B002B00D1144B68
:1019B0009D46402292029A1A924600218B460F467B
:1019C0001348144A121A7EF013FB0F4B002B00D061
:1019D00098470E4B002B00D09847002000210400B0
:1019E0000D000D48002802D00C4800E000BF00F0B8
:1019F00021FB2000290000F083FB00F003FBC04620
:101A00000000080000C0000000000000000000000E
:101A100090090000DC090000000000000000000048
:101A200010B586B002913221002B00D1303902ACC2
:101A300021710102039801906846007908430390E0
:101A40007C20217AA2818143080048210143217230
:101A500003482100E37300F043FB06B010BDC0460D
:101A60003105000007B5030C01A90B708870030A4B
:101A700002484B7000F034FB07BDC046F90400007B
:101A800010B50021014800F02BFB10BD210500001E
:101A90007FB5EB23029102A90B7103990302019117
:101AA000694608797F211843039002AB1B7A0748E7
:101AB0008B4319007D230B4302A90B7280235B002B
:101AC000CB818A8100F014FB07B000BD81040000C7
:101AD0007FB50B23029102A90B71039903020191B7
:101AE000694608797F211843039002AB1B7A0748A7
:101AF0008B4319004C230B4302A90B7200238A81EC
:101B0000CB7300F0F5FA07B000BDC04691040000A9
:101B1000002307B5000101A9487003480B708B70C2
:101B200000F0DEFA07BDC0460D05000010B586B016
:101B30000292422202AC2271039AC90501926A46BE
:101B4000C90D000308431179000208437C2103906A
:101B5000227AA3818A431100482200230A430448C1
:101B600021002272E37300F0BBFA06B010BDC0463C
:101B70004105000010B586B00292482202AC2271E5
:101B8000039AC90501926A46C90D000308431179F9
:101B9000000208437F210390227AA3818A43110027
:101BA0004C2200230A43044821002272E37300F010
:101BB0009FFA06B010BDC046990400000123044AF4
:101BC00010B5916D0B439365024B1B68984710BD90
:101BD0000028004098090000054AD3680123D3601B
:101BE000C733013BDBB2D168002BFAD17047C04646
:101BF000001C024010B5FFF7EFFF10BD70B5836900
:101C00000400023B1B78072B08D8054A9B009D580F
:101C10004168C36882680068A847206070BDC046FC
:101C2000241C0018211A0018651A0018D11A00186F
:101C3000911A0018811A0018111B00182D1B00188A
:101C4000751B0018C021044A044B49005350116809
:101C50000B4313607047C04600E100E0080008C075
:101C600070470000FFF7FCFF0549064A064B9B1A28
:101C700003DD043BC858D050FBDCFFF795FE0000A5
:101C8000001000180000000090090000FEE7C046A8
:101C900004207146084202D0EFF3098001E0EFF31F
:101CA0000880014908470000FD1B001810B5034BD0
:101CB000034A1B681068984710BDC046AC09000075
:101CC000A009000010B5034B034A1B6850689847F1
:101CD00010BDC046AC090000A009000010B5034BC0
:101CE000034A1B689068984710BDC046AC090000C5
:101CF000A00900001C4B1D4AF8201A601C4A400530
:101D00005A601C4A9A601C4ADA601C4A1A61802296
:101D100012065A6180229A61194ADA61194A1A62D6
:101D2000194A5A62194A9A62194A11780A061040E9
:101D3000184A0243F820DA62174A40011A63174A28
:101D40001A65174A9A65174ADA650A0202401F2087
:101D500001400A4314490A431A67144B144A9A6013
:101D6000902292011A627047007400403F01FEC346
:101D70000F335D600024800FC100C9200540604022
:101D80008000001F8C00EE00C82A705A1D01153F0C
:101D9000B0090000002064A0447800F0AC610601A6
:101DA0000A0804484A4C4F0200000C190078004011
:101DB00074140004024A0349136C0B401364704707
:101DC00000100240FFFEFFFF014B18707047C04635
:101DD000B10900008023034A1B06916C0B439364F6
:101DE0007047C04600140240F8B5FFF7E3FFA02398
:101DF00000213B4ADB051A603A4B3B4A3B4C1A60D8
:101E000022683B4B1A60228C3A4B1A603A4B19609D
:101E10003A4B1F883A4B1D883A4B1E883A4BB60204
:101E20001E4204D0394B0A0001201B689847AB0AB8
:101E300005D00022354B110001201B6898477B0517
:101E4000334A33432B43136000F08AF8314B324A54
:101E50001A606268314B1A60A268314B1A60E268FE
:101E6000304B1A602269304B1A6062692F4B1A603E
:101E70002F4B304A1A6070222F4B1B78191D4A4392
:101E8000991C5432FF32CBB290081B0403432B48F9
:101E90000360608C2A4B186010202A4B18600C23BA
:101EA0004B43032103338A439B18274A9B0812782C
:101EB00082401343254A1360A28C254B1A60A26905
:101EC000244B1A60E269244B1A60E28C234B1A609F
:101ED000FFF710FFFFF7B6FE0020FFF775FFF8BD14
:101EE000070710000C0000501E000100B40900009C
:101EF00018000050280000502C0000505CBF00006B
:101F000060BF00005EBF0000FF03E0FF30BF0000C5
:101F10003C000050E00000502C017C01E400005027
:101F2000E8000050EC000050F0000050F4000050B9
:101F300020010050D90296FFDDBE000030010050A4
:101F40003401005038010050DFBE00006001005035
:101F500064010050680100506C0100508001005085
:101F60009422124BD2031A60114B124A1A60124B80
:101F7000124A1A60124B134A1A60134B134A1A6022
:101F8000134B144A1360144A1360144B144A1A601A
:101F9000144B154A1A60154B154A1A60154B164A10
:101FA0001A60164B164A1A607047C04670000050FF
:101FB0007400005020500000780000504000C0C85D
:101FC0007C00005000E400E4800000505A065A00F3
:101FD0005006500084000050880000508C000050D3
:101FE0000650000090000050140A030094000050B6
:101FF0000703030098000050362664039C0000503D
:1020000016000303084B10B50400002B02D000217A
:1020100000E000BF054B1868836A002B00D098478A
:10202000200000F05BF8C0460000000030200018DF
:10203000C000000070B500260C4D0D4C641BA410B0
:10204000A64209D10026FFF7A3FC0A4D0A4C641BE7
:10205000A410A64205D170BDB300EB5898470136D5
:10206000EEE7B300EB5898470136F2E700000000B6
:102070000000000000000000000000000000000060
:102080000000000000000000000000000000000050
:102090000000000000000000000000000000000040
:1020A0000000000000000000000000000000000030
:1020B0000000000000000000000000000000000020
:1020C0000000000000000000000000000000000010
:1020D000000000000000000000000000FEE7C04615
:1020E00001B40248844601BC604700BF25060000D9
:1020F00001B40248844601BC604700BFFD050000F2
:1021000001B40248844601BC604700BF9D0800003E
:0821100098F8FF7F01000000B8
:10800000A4B90000B5C10018DDC10018DDC1001819
:108010000000000000000000000000000000000060
:10802000000000000000000000000000E1C1001896
:108030000000000000000000DDC10018DDC10018D4
:10804000DDC10018DDC1001839C70018490900005A
:10805000DDC10018DDC10018DDC10018DDC1001848
:10806000DDC10018DDC1001835BD00180DB90018BC
:10807000DDC10018CDE40018DDC10018DDC1001815
:10808000DDC10018CDC90018DDC100184909000084
:10809000DDC10018DDC10018DDC10018DDC1001808
:1080A000DDC10018DDC10018DDC1001871C3001862
:1080B00089C30018A1C3001849090000490900003C
:1080C000010100005C5B00000000000004001800DB
:1080D0000100444444DDDDDD112233CCCCCC010170
:1080E000E400000000000000680501188805011880
:1080F000480501180000000000000000000000001A
:10810000000000000000000000000000000000006F
:10811000000000000000000000000000000000005F
:10812000000000000000000000000000000000004F
:10813000000000000000000000000000000000003F
:108140000000000072B6FEE7F0B50400134D9B027C
:108150001D4390340600256005009436A835042A96
:1081600012D8002A0FD0013A12051A4320231A43CD
:10817000030022600A68A8331A600122143B1A60C7
:108180000368002BFCDAF0BD80C9043A2F60112788
:1081900092B237600768002FFCDAE0E72000300079
:1081A000F7B5040008009902164B25000B43210087
:1081B00090310B602600230011219433A035A436A2
:1081C000082A13D8002A10D0230001219433196003
:1081D0002368002BFCDA2300A0331B68A43400932F
:1081E00023686946019300F0E9FBF7BD083A19607E
:1081F00092B22768002FFCDA2F6807603768476063
:108200000830DDE71000070073B50D7A06AC26785C
:108210006C06B602E40F34430E79360634432E075B
:10822000F60F76003443EE06F60F76023443AE07BF
:10823000360C34436E07F60FF6003443E026AD06E5
:10824000ED0FAD002C43551EF6022D0435402C4396
:1082500015006E1EB5412D012C43050090352C6094
:108260004C68240AAC601C010123234304009434AD
:1082700023600368002BFCDAA0300368086801A9BA
:10828000019300F09BFB73BD73B51E0006AB0500A8
:1082900018780B7A80025C06E40F044308793601F3
:1082A000000604431807C00F40000443D806C00F5F
:1082B000400204439807000C04435807C00FC00055
:1082C0000443E0209B06DB0F9B001C43531EC003AE
:1082D0001B0503401C431300581E83415B011C43D4
:1082E0002B00280090331C604B6898301B0A0360F9
:1082F000096801A800F062FB2B00019AA8331A60FC
:108300000122143B16431E602B68002BFCDA73BD60
:10831000F0B585B0029203938C8906000D00042C01
:108320001AD80027E4B200F009FA3068AB7B2200CB
:108330008362EB7B290000933B00029FB847AA8928
:108340002968121B0919EB7B306892B2039CA04785
:1083500000F0FCF905B0F0BD0A68032314001C40CE
:108360001A4202D001331C1BE4B20127DBE770B5CF
:108370000400012100F05AFA200000F047FA00231F
:1083800025682000EB6200F061FAE860200000F050
:1083900059FA1E222368400010401861200000F0A6
:1083A00053FAF023C004DB031840812322681843EA
:1083B000106070BD10B58A784B780068140783622E
:1083C0005307DB0FE40F097824041B0323430B43FB
:1083D000D106C90F090592070B4392091343436065
:1083E00010BD10B5024B034AFFF792FF10BDC04607
:1083F000A10100000902000010B5024B024AFFF77C
:1084000087FF10BD4901000089020000F0B51C0083
:10841000013B05000E00170085B0032B01D9FFF7C3
:1084200091FE6B466C221E711B7A694693431A00BB
:10843000402313436A461372002328000097948157
:10844000D373FFF7D9FF05B0F0BD03680122180010
:108450000906114390300160190094310A601A68CE
:10846000002AFCDA7047F0B51C00013B05000E0045
:10847000170085B0072B01D9FFF764FE6B466C220D
:108480001E711B7A694693431A00402313436A46C0
:1084900013720023280000979481D373FFF7A1FF84
:1084A00005B0F0BD10B501000148FFF79AFF10BDFF
:1084B000740D000010B5FFF7F5FF10BD10B5FFF704
:1084C000F1FF10BD30B587B06A46D41DEB22039290
:1084D00082013D207F2502AB10431A7A2840AA432F
:1084E0001043012218729973064819009A81DA73B1
:1084F0000294FFF776FF23783C2B01D0FFF722FE92
:1085000007B030BD740D000010B502000223012138
:108510000148FFF77BFF10BD740D000010B502008D
:10852000032320210148FFF771FF10BD740D0000E7
:1085300010B50200032344210148FFF767FF10BD77
:10854000740D000010B560210148FFF77EFF10BDDB
:10855000740D000010B501000148FFF74DFF10BD7C
:10856000740D000010B5FFF7F5FF10BD014B18703A
:108570007047C046710D0000014B18707047C0462F
:10858000700D0000034B044A1A60044B1870044B32
:1085900019707047740D000000000240710D00005A
:1085A000700D000010B50248FFF7E1FE10BDC04697
:1085B000740D000013B50E4C2378002B16D100F07B
:1085C000BDF820210120FFF77DFF1F22094B01A9E3
:1085D0000B808B78084893431A001E2313438B703B
:1085E000FFF7E8FE0123237000F0B0F813BDC0468A
:1085F000710D0000EB200000740D000010B5074C59
:108600002378002B09D000F099F800210800FFF72B
:1086100059FF0023237000F099F810BD710D000080
:1086200070B50D000400FFF7E9FF2800A047FFF731
:10863000C1FF70BD10B50200012305210148FFF7FD
:1086400012FF10BD740D000073B50D00040000F0A2
:1086500075F8FFF7D3FF06210B48FFF7F6FE280059
:10866000A0470124094D2C7000F070F86B46DE1D08
:108670003000FFF7DFFF33781A0022402342F5D1A4
:108680002A70FFF797FF73BD740D0000700D000096
:1086900010B50200012335210148FFF7E4FE10BDAB
:1086A000740D000007B56B46991D08800148FFF75F
:1086B000CBFF07BD0905000010B5B9210148FFF740
:1086C000C4FE10BD740D000010B5AB210148FFF7CA
:1086D000BCFE10BD740D000013B56B4601AC581DF7
:1086E000FFF7D6FF63789B070BD42000FFF7A2FFAC
:1086F000637820781B020343802080001843FFF733
:10870000D1FF13BD10B575210148FFF79EFE10BDC6
:10871000740D000010B57A210148FFF796FE10BDD8
:10872000740D0000014B18787047C046700D0000B2
:10873000014B18787047C046710D000072B6024AAE
:108740001368013313607047940D0000034A1368E7
:10875000013B1360002B00D162B67047940D0000FE
:1087600010B5502000F04DF810BD0449044A4B6884
:108770001A40044B13434B607047C0460010024040
:1087800008FFFF7F020000800349044A4B681A403B
:10879000034B13434B6070470010024008FFFF7FFC
:1087A000010000800722054B00205B681A40042A64
:1087B00003D11B061B0F584258417047001002405E
:1087C0000349044A4B681A40034B13434B607047FC
:1087D0000010024008FFFF7F040000804046494629
:1087E00052465B46FFB500216A460A6000F06AF80F
:1087F00030BF00F083F8FFBC8046894692469B4616
:1088000000BD01380028FCD1704700008022054BD4
:10881000520599690A439A619A6903490A409A6123
:108820007047C04600100240FFFFFFEF034A0448B4
:10883000536A090703401943516270470010024010
:10884000FFFFFFEF0220704700207047004870478D
:108850000202040010B5FFF7D1FEFFF72DFFFFF76E
:10886000BDFF80230C4A5B00116C0B431364FFF7C0
:1088700099FEFFF729FF8022084B92011A6480229B
:108880001204196C080010401142FAD1186472B633
:10889000FFF790FE10BDC0460010024000140240D9
:1088A000024A53685B005B08536070470014024043
:1088B0008023034A1B0651680B4353607047C04630
:1088C00000140240802310B50A4C5B04226C1A424B
:1088D000FCD1FFF759FF7A22636B93436363A36B69
:1088E000054A1A40C0231B061343A363FFF7D8FFB2
:1088F00010BDC04600140240FFFF7F3F10B5FFF7D8
:10890000D7FF0E4B0E499A6B1140802212040A4386
:108910009A637A22596B0A435A630C22596B0029D5
:1089200002DB013A002AF9D1FFF74AFF054B5B68E9
:108930009B0401D5FFF706FC10BDC04600140240A1
:10894000FFFF7F3FFCE100E070B5FFF7EBFE0500A5
:10895000FFF7EEFE0400002D07D0002801D0FFF73E
:10896000F1FBFFF7CFFEFFF7FBFE002C01D1FFF775
:1089700021FE00F035F800F02BF8002C01D1FFF7B4
:108980003DFE002D01D0FFF7C5FE70BD074B1A68F4
:1089900001231A4207D0064A06491360064A1368A3
:1089A0000B4013607047C046FDE7C0461C000050F6
:1089B00020000050FFFFFFDF10100240002310B521
:1089C0009A4200D110BDCC5CC4540133F8E70000DA
:1089D00001B40248844601BC604700BF0D39061847
:1089E00001B40248844601BC604700BFE5D20718C5
:1089F000F8B5C046F8BC08BC9E467047F8B5C046FE
:108A0000F8BC08BC9E467047164B002B00D1144B97
:108A10009D46402292029A1A924600218B460F46AA
:108A20001348144A121A77F0E3FA0F4B002B00D0C8
:108A300098470E4B002B00D09847002000210400DF
:108A40000D000D48002802D00C4800E000BF07F0E0
:108A500017F92000290004F019FA07F0F9F8C046C8
:108A600000000800A4B900000000000000000000A1
:108A7000F009000084660000000000000000000013
:108A800037B505000C00013CE4B2FF2C00D137BD26
:108A900007F03EF90422019001A9280007F010FE1A
:108AA0000435F0E70B0010B511680C1D146009685F
:108AB0001A0007F005FE10BD0300106810B5041D74
:108AC00014600068002803D00A00190007F0F8FDC0
:108AD00010BD0EB417B58388C288040000209A42E6
:108AE00014D0228920689A4200D89B1A618906AA6C
:108AF0004B430192C01801AA059B9847A088218981
:108B00000130490046F084FE0120A1801EBC08BC53
:108B100003B0184710B50A000149FFF7DAFF10BD8E
:108B2000B98A00188288C38800899B1ADA179B18B3
:108B30005340181A43425841C0B270470EB417B59B
:108B40000400FFF7EFFF0023984215D12289E38844
:108B50002068934200D39B1A618906AA4B43019275
:108B6000C01801AA059B9847E08821890130490077
:108B700046F04EFE0123E18018001EBC08BC03B085
:108B80001847000010B50A000149FFF7D7FF10BDD4
:108B9000A58A0018C3888088181A43425841C0B279
:108BA000704730B58A18914200D130BD0D78040A63
:108BB0006C406400E45A0002604080B20131F2E788
:108BC00010B5024BFFF7EDFF10BDC046D08B00186B
:108BD00000002110422063308440A550C660E77039
:108BE000088129914AA16BB18CC1ADD1CEE1EFF1E1
:108BF0003112100273325222B5529442F772D66289
:108C0000399318837BB35AA3BDD39CC3FFF3DEE330
:108C10006224433420040114E664C774A4448554D8
:108C20006AA54BB528850995EEE5CFF5ACC58DD580
:108C30005336722611163006D776F6669556B44628
:108C40005BB77AA719973887DFF7FEE79DD7BCC7D0
:108C5000C448E5588668A778400861180228233878
:108C6000CCC9EDD98EE9AFF9488969990AA92BB920
:108C7000F55AD44AB77A966A711A500A333A122AC8
:108C8000FDDBDCCBBFFB9EEB799B588B3BBB1AAB70
:108C9000A66C877CE44CC55C222C033C600C411C18
:108CA000AEED8FFDECCDCDDD2AAD0BBD688D499DC0
:108CB000977EB66ED55EF44E133E322E511E700E68
:108CC0009FFFBEEFDDDFFCCF1BBF3AAF599F788F10
:108CD0008891A981CAB1EBA10CD12DC14EF16FE1F0
:108CE0008010A100C230E320045025404670676028
:108CF000B9839893FBA3DAB33DC31CD37FE35EF340
:108D0000B1029012F322D232354214527762567277
:108D1000EAB5CBA5A89589856EF54FE52CD50DC58F
:108D2000E234C324A01481046674476424540544C7
:108D3000DBA7FAB79987B8975FE77EF71DC73CD7DF
:108D4000D326F2369106B016576676761546345617
:108D50004CD96DC90EF92FE9C899E9898AB9ABA92F
:108D60004458654806782768C018E1088238A32867
:108D70007DCB5CDB3FEB1EFBF98BD89BBBAB9ABB7F
:108D8000754A545A376A167AF10AD01AB32A923AB7
:108D90002EFD0FED6CDD4DCDAABD8BADE89DC98DCF
:108DA000267C076C645C454CA23C832CE01CC10C07
:108DB0001FEF3EFF5DCF7CDF9BAFBABFD98FF89F1F
:108DC000176E367E554E745E932EB23ED10EF01E57
:108DD00010B50400002000F035F9002C04D000226A
:108DE0000249100000F02EF910BDC04673A900180A
:108DF0000EB403B503AB02CB01AA0193FFF7E8FF62
:108E000002B008BC03B0184710B500F02FFB10BD2E
:108E1000F7B500AF386068460B0049004A1C0831BE
:108E2000C908C900411A8D4600206C460C4E7A6074
:108E300085B2AB4208D80A205B007A6858540020FB
:108E400000F0FAFABD46F7BD3D682D5C01302A09F5
:108E5000B25C22700F221540755D65700234E7E741
:108E6000648E001830313233343536373839414268
:108E70004344454600417373657274696F6E2046C2
:108E800061696C65643A2066696C652025732C20E5
:108E90006C696E652025642C2025730A0000000093
:108EA000130013B572B6044A0090146800200A003B
:108EB0000249A047FEE7C046D8BE0000758E0018E4
:108EC0006C766C3A25782C6C723D30782530387889
:108ED0002C706172616D303D307825782C70617234
:108EE000616D313D307825780A00000037B5019278
:108EF000064A009104001568054902000020A847B1
:108F0000012C01D172B6FEE737BDC046D8BE0000C5
:108F1000C08E001800B57346FFF7E8FF00BD0138AA
:108F20000028FCD17047826810B504004068531CCB
:108F3000834205D820688154A360E3680133E3606D
:108F4000A26863689A4209D12168206900F074FA26
:108F5000A368984203D001235B42E36010BD002365
:108F6000A360FBE7F0B5050017000800012685B0F7
:108F70000A9C02910093B84219D2009A0196964237
:108F800000D2019201230B9A1A4003920B9A1A42C3
:108F900002D1002C10D10024EB680126002B4BDB02
:108FA000009B012B1FD9013B00937E43F8E739005A
:108FB00046F016FC0136DEE70B9B20269B0704D506
:108FC000009B1036002B00D0103E019BA342E3D241
:108FD00031002800FFF7A7FFEB68013C002BDBDB2B
:108FE000002CF2D1D7E73100029846F0F9FB874216
:108FF000DBD90298310046F003FC114B0291195C59
:109000002800FFF790FFEB68002B05DB39003000EC
:1090100046F0E6FBBE4211D2039B002B0CD0002C85
:109020000AD0019BA34207D220212800FFF77BFF33
:10903000EB68013C002BF2DA05B0F0BD0600D8E782
:10904000A6920018F0B59FB00EAB099340230A9387
:1090500000230E00150007900B930D900C933178B0
:109060000136002907D10C9B0393002B00DD09E199
:109070000C981FB0F0BD252900D0B3E000270822CE
:10908000042006E0302B0DD1022300E001231F4312
:109090000E003378711C2D2BF8D0F3D8232B10D071
:1090A0002B2B0CD000240A213378721C1800303886
:1090B000092808D84C43303C16001C19F4E7074334
:1090C000E6E71743E4E7002103912E2B0ED11600AB
:1090D0000A203278711C1300303B092B06D8039B01
:1090E0000E004343303BD3180393F2E70423317857
:1090F0000A0001369A43682A01D13178F8E77829C5
:1091000009D86F290BD8632967D017D8252969D0CA
:10911000582900D195E00C9B002BA0DAA3E7703909
:1091200008000829F7D876F025FFA500F6FFF6FF1E
:109130009400F6FF8300F6FFF6FF8C006429EAD165
:109140002B681A1D1B682A60DA17981804930123EC
:1091500050400593092849DC039B059A06939342E6
:1091600000D20692002C05D0049B002B01DB7B076C
:1091700000D5013C02231F4202D0039B002B05D0E7
:1091800001231F4202D1002C36D100240C9B0593F1
:10919000002BC0DB049B002B3ADA2D215B420493A9
:1091A00009A8FFF7C0FE0C9B002BB4DB03233B4058
:1091B000022B05D1039B002B02D1002C2CD10024C3
:1091C0000C9B0593002BA6DB0A22039B04990197B5
:1091D000009409A8FFF7C6FE9DE72B6819681A1DC1
:1091E0002A60C9B209A8FFF79EFE94E70A2146F05B
:1091F000FFFA059B0133ACE7069BA342C6D22021B0
:1092000009A8FFF790FE0C9B013C002BBBDABDE7E1
:109210007B07C8D52B21C3E7069BA342D0D23021C0
:1092200009A8FFF780FE0C9B013C002BC5DAC7E7BD
:109230000A22296801970B1D2B60039B0094096883
:10924000C7E7296801970B1D2B60039B0094102230
:10925000F5E72B681A1D2A601C6821780134002963
:1092600000D158E709A8FFF75EFE0C9B0393002B83
:10927000F3DA50E729680B1D2B60002301930833B4
:109280000093E4E70B9A002A03D007980EA900F098
:10929000D3F80C9B03930B9B0493049A039B944673
:1092A00063440C93E4E630313233343536373839A1
:1092B0004142434445460369C268934201D88068ED
:1092C0001B18013B981A7047F7B58368C46801936F
:1092D0001F1B436805000E001819A418974207D8F1
:1092E0003A0007F0EDF9019B6868E41A2200F119D1
:1092F00007F0E6F9EC60F7BD0023F7B506001700AC
:10930000C568019100933369B4689D421FD2013B47
:109310005B1B641BBC4200D93C009C4200D91C0072
:10932000736822005819019907F0CAF9009B2D199A
:109330001B190093019B3F1B1B190193B368AB42A0
:1093400000D10025F560002FDDD10098FEBD1B196E
:10935000DDE75465726D696E616C005254540053C0
:109360004547474552000000032310B5104C1149F2
:1093700023616361104BA161E361802321660F4982
:10938000DB0001222362616600231021A362636275
:109390002367E366E262A16662670949094806F04D
:1093A00009FD2000084906F005FD2023A37110BD2A
:1093B000F009000052930018816200007162000001
:1093C0005B930018F70900005F930018F8B51600CA
:1093D0001822451C55434243164B0F00ED189B18AD
:1093E000DC6A012C10D0022C1BD0002C1FD12800CD
:1093F000FFF761FF864205D8320039002800FFF7E9
:1094000063FF34002000F8BD2800FFF754FF34004C
:10941000864200D90400220039002800FFF754FFDB
:10942000F0E732002800FFF767FF0400EAE70024B6
:10943000E8E7C046F0090000F8B50B4B04001B78C4
:109440000E001700002B01D1FFF78EFFEFF3108500
:10945000012181F310883A0031002000FFF7B6FFA8
:1094600085F31088F8BDC046F009000010B5FFF77D
:109470007BFF10BDF8B58568078A06000C00481B05
:10948000390046F0C5F90020814208D10800A54204
:1094900005D8708A4743ED19AC42A4416042F8BD3B
:1094A000F7B505001C00160000270191089800215F
:1094B00076F09EFD280075F089F9089BAC60EB60A2
:1094C000019B6E822B82B74200D1F7BD210028009C
:1094D00075F092F9019B0137BFB2E418F3E76465B8
:1094E000765C6D6F64756C655C7374617469635FE1
:1094F0006275666665725C6C696E6B65645F6275E9
:10950000666665722E630028656C656D2D28756929
:109510006E74385F74202A297074722D3E627566ED
:1095200029257074722D3E656C656D656E745F7370
:10953000697A653D3D30000070B5050083680C0018
:10954000C81A298A46F064F9002904D03B2205494B
:109550000548FFF7A5FCAB68298AE01A46F048F9F0
:1095600080B270BDDE9400180795001870B5050034
:1095700075F08AF9041E07D001002800FFF7DCFF10
:10958000EA68135C01331354200070BD6C696E6B84
:1095900065645F6275665F68646C5F73616E697451
:1095A000795F636865636B287074722C2875696EC7
:1095B00074385F74202A2968647229007074722DCF
:1095C0003E7265665F636E745B6964785D0000007F
:1095D00070B504000E00FFF74DFF002804D13122C2
:1095E0000D490E48FFF75CFC31002000FFF7A4FF97
:1095F000E36805001B5C002B04D1332206490848B0
:10960000FFF74EFC3100200075F0F6F8E268505D7F
:109610000138C0B2505570BDDE9400188C9500180A
:10962000BC950018038A806859434018704770B58C
:1096300004000D00FFF71EFF002808D029002000BD
:10964000FFF77AFFE368185C431E9841C0B270BD13
:109650000DAB00188DAB001835AB001813B50C4CD2
:10966000A088002813D0FF2807D880225200121AA1
:109670000630FF21001976F0BBFC8022054B06491D
:109680001B6820685200019398470023A38013BDF4
:10969000980A0000509600189E0A0000F7B50D00C9
:1096A00017000190002D00D1F7BDFF22019B144E41
:1096B000934333608023B0885B001C1AA4B2063049
:1096C0008019AC420FD32A00390006F0F9FFB188A7
:1096D0004D19B58000258022B38852009342E1D114
:1096E000FFF7BCFFDEE72200390006F0E9FF019B2F
:1096F0002D1B1B190193B3883F19E418B480EAE7C6
:10970000980A0000144BF7B516001A6844180D00AB
:10971000124F94421DD99B889B189C4219D8FF2355
:1097200082420CD91C400C1B002C0AD00C4B31007F
:109730001B68A2B20193361998472D1B01E0034024
:10974000FF18002D04D02A003900300006F0B8FFC1
:10975000F7BD2C00E8E7C046980A00009E0A00000A
:1097600054960018044B10B51B680003C018034B37
:109770001B68984710BDC046340D0000589600186D
:10978000020030B5080007250121022809D0013068
:1097900080B20400C308D35C2C4023410B42F4D0B8
:1097A00030BD0020F5E70A6803001000083030B52E
:1097B0001468086000201989814209D19D89A4B2EA
:1097C000A54205D15268188A92B2801A4342584184
:1097D00030BD0A680300101D08600020198981420D
:1097E00005D01268588A92B2801A43425841704795
:1097F000044B010010B50020994202D00248FFF747
:1098000011FF10BDFFFF00005C0D00006465765C79
:109810006D6F64756C655C74696E7966735C746990
:109820006E7966732E63006F6666736574253235D4
:10983000363D3D300000000030B5CBB204000D00D5
:10984000C1B0002B04D00E4A0E490F48FFF728FB89
:1098500080210E4B20031C6840196A4600194900FC
:10986000FFF750FF002369469A008A58013205D15C
:109870000133402BF7D1012041B030BD0020FBE780
:109880001F0200000C98001827980018340D0000E3
:1098900010B5010004000548FFF7C9FE002803D0F9
:1098A0002089431E9841C0B210BDC0465C0D000027
:1098B00013B56B46040019805A80694604220020C3
:1098C000FFF77EF96B469880044B20031C686A46BC
:1098D00006210019FFF7E2FE13BDC046340D00005B
:1098E000F0B5374D87B000936B6801925B1A6B60DF
:1098F00080232A8906000C005B019A420FD1AB89B4
:109900000020022B01D0013398B2E98906220131EF
:1099100089B2A881E981FFF7CBFF06232B8180273D
:109920002B897F010293AB890393002C40D0244DF7
:109930002B89BB421ED1019B002B04D1009B9A1D99
:10994000A21892B205E0009B00221B190633BB420D
:10995000F4D3AB890020022B01D0013398B2E989FE
:10996000A881013189B2E981FFF7A2FF06232B818B
:10997000053B0193124D2989AB892A681B0388187E
:1099800018180B19BB420CDD3200791AFFF786FE5E
:1099900029892F817B1AF6180A4BC9186418A4B2BA
:1099A000C3E721003200FFF779FE298964182C8172
:1099B000029B1804039B0343180007B0F0BDC04688
:1099C000340D000000F0FFFF7FB56B465871000AB0
:1099D00098716B46D971090A1972092300266B44E4
:1099E00001AD1A701400120A29005A7030000722C3
:1099F0002E70FFF7E5F80B236B4418700234000A51
:109A00005870320009212800A3B2FFF769FF04B0A3
:109A100070BD012330B585B001AC23706B46587121
:109A2000000A987109236B441970090A59706B4632
:109A30000025DA71120A21001A7228000722FFF7A6
:109A4000BFF80B236B441870000A58702A002B00D3
:109A500009212000FFF744FF05B030BD10B50B4AC7
:109A6000FF2113891C000C400B420AD080204000CB
:109A7000041B01335068A4B2FF33001B8B435060BA
:109A80001381FFF7EBFD200010BDC046340D000030
:109A900010B580240B8864019B18A3420CDB03885B
:109AA0000024022B01D001339CB2044B0480D21855
:109AB0000B889A180A8010BD0B80FCE706F0FFFFA8
:109AC00070B50D00141E01D000231360084B98429E
:109AD00001D1002070BDFFF78BFE0389002B02D15E
:109AE000038AAB42F6D0002C00D02060C089EDE79D
:109AF000FFFF000010B50C00074B984201D1002079
:109B000010BDFFF775FE0389002B02D0038AA34224
:109B1000F6D0C089F0E7C046FFFF0000F7B5144F4C
:109B20001D003B680C0006000003C01880231100D4
:109B3000A21800195B019A4203DC2A00FFF7E2FD3C
:109B4000F7BDE4B261186442E4B2CBB22A0021004E
:109B50000193FFF7D7FD00233868022E01D00136AC
:109B6000B3B206301B0301992A19C018E6E7C046B4
:109B7000340D0000F0B585B00092008900220193F9
:109B8000FFF79EFF0A23071E31D0019B468A1A88E1
:109B90000323B2422BD302AA941C8288C38803AD4C
:109BA00029002000228009222B80FFF771FF009BF3
:109BB000320029882088FFF7B1FF320029002000F9
:109BC000FFF766FF02AB0633022229882088FFF7E1
:109BD000A5FF320000200099FEF7F2FF02ABDA8801
:109BE0000123904203D17B8A019A1380002318003D
:109BF00005B0F0BD010010B5002803D00248FFF702
:109C00009BFC10BD0148FCE75C0D0000FFFF00005D
:109C1000706172656E742D3E6368696C640000004B
:109C200070B5038905000C00002B04D1164A1749B2
:109C30001748FFF735F9002C19D0A2896B8A9A4290
:109C400005D12000FFF7D6FF2600288109E0E08932
:109C5000FFF7CEFD0400EEE7F089FFF7C9FD061E11
:109C600005D0B2896B8A9A42F6D0B44200D170BD59
:109C70002389002B03D031002000FFF7D1FFE089BA
:109C8000FFF7B6FD0400F0E79E0200000C980018F4
:109C9000109C001870B505000089FFF7A9FD041E8F
:109CA00003D082896B8A9A4200D070BD2389002B31
:109CB00002D02000FFF7EEFF2800FFF79BFFA081F6
:109CC000E089EAE7F7B5040000880D00FFF790FD92
:109CD00023881F00854230D1628893420FD101232F
:109CE0005B42638023802A890923002A02D16B8A80
:109CF0000B339BB20120A288D31AA380FEBD6B89CF
:109D0000F0E73800FFF774FD438918000193FFF76F
:109D10006FFD060085420FD13800FFF769FD73899A
:109D2000019A43816388934200D167803289092375
:109D3000002ADFD1738ADBE7019F024B9F42E0D10B
:109D40000020DBE7FFFF000070B5040008000D00F5
:109D5000FFF750FF22880D4B06009A4200D1208069
:109D6000012252426A816088984202D0FFF740FD8A
:109D7000468166802A890923002A02D16B8A0B3327
:109D80009BB2A2889B18A38070BDC046FFFF000055
:109D90007769706500693C3D6E756D00F0B58BB0FC
:109DA000664B00AFB8605A89002306251900644C41
:109DB0006448013309182800504320188088091A84
:109DC000B868814217DD9BB27B610023FB610623EB
:109DD0005A4D5B4C6A89B9685343E3189B885B18FA
:109DE00058495B186968994202D8AB89934212D1ED
:109DF000BD460BB0F0BD022A0BD0013292B29BB22D
:109E0000032BD5D1504A51495148FFF749F8002357
:109E1000DAE70022F3E77B69FA69934204D24D4AFC
:109E20004A494D48FFF73CF86B893B6106233A6984
:109E30005343E3187B607B681888484B984214D1E1
:109E4000FFF70CFE3869FFF78DFC3C4B3D495A6823
:109E500052185A605A890021022A01D0013291B267
:109E60005981FB6901339BB2B0E7FFF7C1FC0622C1
:109E700004008388324853432100C018FFF722FFB3
:109E80002389258AA089002B11D0668AFFF7B0FCB0
:109E90003100428A2800FFF7BCFD60600622A388DB
:109EA000274853432100C018FFF74EFFC3E7FFF7D1
:109EB0009FFC628A418A2800FFF786FD3862638A28
:109EC00002339EB263687B626B463B60331C402E5C
:109ED00000D940236A469BB2BB610733DB08DB0035
:109EE000D31A9D46FB602623F918023B0922F81875
:109EF000FFF7CEFD002E04D13B689D463B6A6360B0
:109F0000CCE7BB693D8BB34200D9351CADB22A000A
:109F1000F98CB88CFB68FFF701FE2623761BF91835
:109F2000023BF8182A00B6B2FFF7B2FD3300012257
:109F30002900F868FFF7D4FCDCE7C046340D0000C8
:109F4000480D0000FA0F0000D70300000C9800181D
:109F5000909D0018DD030000959D0018FFFF000094
:109F6000F7B50400100015001F000B3080B20E0082
:109F7000FFF714FF2A0039006582208AFFF724FDCD
:109F800029000223606001223000FFF7A9FC2A00AB
:109F900031000020FEF714FE6A4603000221901DE6
:109FA000038001220023FFF79BFC0620A3882100E9
:109FB00043430248C018FFF7C7FEF7BD480D000035
:109FC00064656C00F7B506000192008900221F004D
:109FD0000091FFF775FD051E16D0838806204343C8
:109FE00017482900C018FFF76DFE002804D1154A54
:109FF00015491648FEF754FF28003A00738A019964
:10A00000FFF7AEFF0020FEBD1148FFF7AFFA0400D6
:10A010000220002CF7D030002581FFF7EBFD009BDC
:10A02000A081238233892000E381FFF7E3FD3A001A
:10A030003081738A20000199FFF792FF2800E2E740
:10A04000480D0000D10400000C980018C09F0018B3
:10A050005C0D0000F0B587B001900E890C00150072
:10A06000002E2ED00520FFF799FE09210322638AD6
:10A0700002A8091804AE0B701B0A4B7000203100B7
:10A080003270FEF79DFD0B2302AA9B181870000A80
:10A090005870002305211A003000FFF721FCE389E6
:10A0A000002D32D0EB810620A388210043431848BD
:10A0B000C018FFF707FE21001648FFF789FA07B01E
:10A0C000F0BD0720FFF76AFE0221019B04AF5B8A07
:10A0D000228A02A83970073109180A70120A4A70D8
:10A0E0000B22121813701B0A53703900052230001E
:10A0F000FEF766FD0D2302AA9B181870000A58701F
:10A100003200330007213800C7E7019A1381CAE7FC
:10A11000480D00005C0D000013B5040001AA008981
:10A12000FFF7CEFC01000A20002904D02000019A8C
:10A13000FFF790FF002016BD0FB473B5104D2E0031
:10A14000123607AB288800930E4B984204D10024A6
:10A150000635B542F5D10DE0FFF74AFB009B01A99A
:10A160000193069B04009847002801D16089EBE722
:10A17000002CEDD0200076BC08BC04B01847C046C7
:10A18000480D0000FFFF0000572F54494E59465319
:10A190003A6469722072656D6F76652070617273C2
:10A1A00065207761726E696E673A666C61736820CC
:10A1B000616464723A25780070B50D009178537827
:10A1C00009020D481943FFF7B7FF041E0DD083881D
:10A1D0000620434309482100C018FFF773FD210002
:10A1E0000748FFF7F5F9052070BD064B2A0001204E
:10A1F0001B6805499847F6E7D3970018480D0000FB
:10A200005C0D0000D8BE000088A10018572F5449EB
:10A210004E5946533A7265636F72642072656D6F72
:10A220007665207061727365207761726E696E6702
:10A230003A666C61736820616464723A2578000044
:10A24000130070B50D0051789278D87812020A4345
:10A250001979090201430D48FFF76EFF041E0DD066
:10A260008388062043430A482100C018FFF72AFDCF
:10A2700021000848FFF7ACF9072070BD064B2A0003
:10A2800001201B6805499847F6E7C046A7970018C4
:10A29000480D00005C0D0000D8BE00000CA20018A4
:10A2A00070747200F7B50191917953790902070032
:10A2B000194324481500FFF73FFF234E041E2CD0FE
:10A2C00083880620584321003018FFF7FBFC002844
:10A2D00005D1CE221D491E48FF32FEF7E1FD019B4C
:10A2E000A780E380AB786A781B02134323822B7923
:10A2F000EA781B021343A381AB796A791B021343EB
:10A30000144A118A994200D2138206207843210010
:10A310003018FFF719FD0920FEBD0F48FFF726F999
:10A32000041E05D1D22209490C48FF32FEF7B8FDC0
:10A33000AB796A791B021343638201235B42238159
:10A34000E381CCE7D3970018480D00000C98001863
:10A35000C09F0018340D00005C0D0000A0A2001882
:10A36000F7B51500019153789278297912021A43B2
:10A37000EB780902070019432148FFF7DDFE214E63
:10A38000041E23D083880620584321003018FFF78D
:10A3900099FC002805D1D7221B491C485200FEF722
:10A3A0007FFD0620019BA780E380AB7978436A7923
:10A3B0001B021343301863822100FFF7C5FCA87904
:10A3C0006B79000218430B3080B2FEBD1048FFF7D6
:10A3D000CDF8041E05D1D9220B490E485200FEF7D4
:10A3E0005FFDAB786A781B02134323822B79EA78EE
:10A3F0001B021343A38100232381013BE381D0E7A8
:10A40000A7970018480D00000C980018C09F00186E
:10A410005C0D0000A0A20018626173652025202851
:10A4200030783130303029203D3D203000616C7271
:10A43000656164795F696E5F6C6973742D3E752E1A
:10A440006964213D746F5F696E736572742D3E752A
:10A450002E696400F0B5030505008DB0002B05D012
:10A46000C222A849A8489200FEF71AFDA74EA84BA1
:10A470001322142130000093A64BFFF711F8A64CCD
:10A4800030002560FFF772F8A44B00251860012307
:10A49000A34AA4495B4241608360C3601380538038
:10A4A000D38013819381D3819F4B05AE1B780561C7
:10A4B000337009AB958002930391236806AF28039C
:10A4C000C0183A000621FFF71DF9042239000020C8
:10A4D000FEF776FBBB88834209D10122AA4033787C
:10A4E00013433370029A3B8813807B885380029B0E
:10A4F000013504330293032DDFD13278002A6AD06C
:10A50000002301211000D84005000D40084200D072
:10A51000F6E00133202BF5D180227A49834852009E
:10A52000FEF7BEFC29003000FFF72AF90CAAAB00A9
:10A53000D3180CA982008A180C3B1B880C3A12888D
:10A54000591C0700914250D09B1A1BB2002B52DDC0
:10A550006081A581A5890CAAAB00D3180C3B1B8890
:10A56000E381290005A8FFF70BF9050083000CAA79
:10A57000D3180C3B5C88A31F6D4A9BB293424CD806
:10A5800006AB092221002800FFF7C8FA02AB1B7CAA
:10A59000032B33D80E27674AD65C02AB023EFF1866
:10A5A000F6B206AB99190222380006F089F832009B
:10A5B000002006A9FEF704FB3B8898421ED102AB9F
:10A5C0001B7C5D4A9B0021009B58280006AA9847E7
:10A5D0002418A4B2CFE7594B2282636080235B0129
:10A5E000A3600223E3600DB0F0BD39003000FFF737
:10A5F000C7F83D009AE76581A081ABE7FF231C42C5
:10A6000005D0FF230134FF34A4B29C43B3E72100FB
:10A610002800FFF711F90028F3D03F4A93899D42A3
:10A620009FD180205389400114814549041B9D42DC
:10A6300023D35B1B02334B431C19394E54603788BC
:10A64000039B9F421ED13F4B0636B342F7D1334E98
:10A65000012734687F42E089FFF7CAF80100200033
:10A66000FFF7DEFA3068FFF7C5FA0400039B9C424F
:10A6700036D13068FFF70EFBB5E75D1B013D4D435A
:10A680002C19DAE73800FFF7B3F80400234B1B68F6
:10A690000293029BD889FFF7ABF8051E06D1029BF7
:10A6A000DB89E381029BDF816789C9E78289A3890E
:10A6B0009A42F4D812D30389002BF0D02389002BBF
:10A6C0000CD0428A638A9A4204D11F4A0D491F481E
:10A6D000FEF7E6FB6A8A638A9A42E0D80295D8E7D9
:10A6E0002000FFF785F8C48905002000FFF780F8F7
:10A6F0000028BBD08289AB899A42B7D0EF81B5E7F9
:10A700009DB20FE70C98001818A400185C0D00000B
:10A710001C0D0000A00B0000340D0000300D0000E7
:10A72000480D0000FFFF000074A900182BA40018BA
:10A73000F90F0000B4AA0018B8AA0018EE2F000004
:10A74000FA0F00005A0D0000750200002DA4001839
:10A75000F8B504000D0016001F00002804D1094AB6
:10A7600009490A48FEF79CFB2000FFF791F8030017
:10A770000520002B05D03B00320029002000FFF708
:10A78000F9F9F8BD270400000C98001896A70018E6
:10A7900075707065725F646972000000F7B507003C
:10A7A0000D001600002904D1244A25492548FEF74A
:10A7B00077FB2800FFF76CF80523002808D031004C
:10A7C0002889FFF797F90190002803D00823386003
:10A7D0001800FEBD1C4B1D4A198A04239142F7D074
:10A7E0001B48FEF7C3FE0223041EF1D0164B164A87
:10A7F0001B8A01339BB21382438206822B89C38159
:10A80000FFF7F8F901235B42288123812800FFF735
:10A81000F1F9A0810920FFF7C1FA6A8A618A300044
:10A82000FFF7F7F80623606080B243430948210030
:10A83000C018FFF789FA019B3C60C9E78D0400004E
:10A840000C98001890A70018340D0000FFFF0000BE
:10A850005C0D0000480D000064617461006C656E61
:10A8600067746800F8B504000F0015001E0000288A
:10A8700004D1104A10491148FEF712FB002D04D1F3
:10A880000F4A0D490F48FEF70BFB002E04D10E4A6C
:10A8900009490E48FEF704FB2000FEF7F9FF03000C
:10A8A0000520002B05D033002A0039002000FFF7D7
:10A8B00089FBF8BDEC0400000C98001896A700185E
:10A8C000ED04000058A80018EE0400005DA8001870
:10A8D00070B504000D00002804D1084A0849094851
:10A8E000FEF7DEFA2000FEF7D3FF03000520002B61
:10A8F00003D029002000FFF70FFC70BD22050000E7
:10A900000C98001896A700187C20002020007C2BB3
:10A91000007C2D00F7B5060015000191002817D125
:10A92000F7BD01993A1B91400A1E0B4900DB0B4908
:10A93000002098470134E4B2094B721E1B68944210
:10A94000EFDB0849002D00D0074900209847E7E7D2
:10A9500000241F27F0E7C04608A900180BA900181B
:10A96000D8BE00000EA9001811A9001825642825DA
:10A9700064290D0A000000000123F0B585B00092A3
:10A980001A008A40D24301924A1E9340DB430400DE
:10A990000F000393002C4BD022892649531E9BB2F3
:10A9A0000D00009E8B420CD82348018A83685143D6
:10A9B0005B18DB89013B9BB2AB4202D9019E009B35
:10A9C0001E403100D2B23800FFF7A4FF1B4B20001D
:10A9D0001B681D00238A0293FFF70CF9029A0300FB
:10A9E00017490020A847238912495A1E92B2002015
:10A9F0008A4204D8104A108A43439068C018791CD0
:10AA00003200C9B2FFF7B8FFE4890E4B9C420FD069
:10AA1000094B084A188A444398680419E389013BA2
:10AA20009BB29342B6D9009A039B1A400092B1E7B9
:10AA300005B0F0BDFDFF00005C0D0000D8BE0000B9
:10AA40006CA90018FFFF0000492F54494E59465386
:10AA50003A6469726563746F7279207472656520F7
:10AA60007072696E743A282D646972286964782955
:10AA7000202B7265636F726428696478292900004D
:10AA800010B5084C01202368074998470122074B5D
:10AA9000524298680021FFF76FFF002023680449A5
:10AAA000984710BDD8BE000048AA00185C0D0000F1
:10AAB00072A900180909070561A30018A5A20018CA
:10AAC00041A20018B9A1001810B586B00291322138
:10AAD000002B00D1303902AC2171010203980190A2
:10AAE00068460079084303907C20217AA281814343
:10AAF000080048210143217203482100E37305F057
:10AB0000AFFD06B010BDC0465505000010B50123CD
:10AB100001F01AF910BD000007B5030C01A90B7074
:10AB20008870030A02484B7005F09AFD07BDC046C5
:10AB30001D05000010B501F012F910BD10B500217F
:10AB4000014805F08DFD10BD450500007FB5EB23E4
:10AB5000029102A90B7103990302019169460879D8
:10AB60007F211843039002AB1B7A07488B431900DF
:10AB70007D230B4302A90B7280235B00CB818A816A
:10AB800005F096FD07B000BDA504000010B501F06A
:10AB9000F1F810BD7FB50B23029102A90B71039947
:10ABA00003020191694608797F211843039002ABA3
:10ABB0001B7A07488B4319004C230B4302A90B72E5
:10ABC00000238A81CB7305F073FD07B000BDC0463A
:10ABD000B5040000002307B5000101A9487003482F
:10ABE0000B708B7005F03CFD07BDC04631050000C1
:10ABF00010B586B00292422202AC2271039AC905B6
:10AC000001926A46C90D0003084311790002084306
:10AC10007C210390227AA3818A43110048220023D9
:10AC20000A43044821002272E37305F019FD06B0BF
:10AC300010BDC0466505000010B586B002924822DE
:10AC400002AC2271039AC90501926A46C90D00033C
:10AC500008431179000208437F210390227AA381DF
:10AC60008A4311004C2200230A4304482100227227
:10AC7000E37305F01DFD06B010BDC046BD04000025
:10AC800010B5541EA241074C1202226301226162D8
:10AC90002062216B1142FCD1A26A1A60E26A029B17
:10ACA0001A6010BD0024004010B504000120002CE3
:10ACB00030D0200001F0A2FA200001F0D1FA0421E6
:10ACC000A27923681007C00F1140000101439007CB
:10ACD000D206800FD20F014352020A43DA6080226B
:10ACE000D9681143D960A188002900D09960D9683A
:10ACF00091430122D960D9691143D9610421D869EE
:10AD00000143D9610448210001F0D0FA0020034B2F
:10AD1000E061238310BDC04651AD00182020000023
:10AD20007047492F4E4F5F5441473A556172742026
:10AD300069727100492F4E4F5F5441473A55617215
:10AD400074207278206F76657272756E0000000054
:10AD5000F7B50368434F1E6BDD6A1B6A040001935D
:10AD600001203B684049984702231E4215D01D42EE
:10AD700013D0227E2368212A0BD1DA699203D20EE6
:10AD800007D10832E189002955D10222996A0A4384
:10AD90009A620222996B0A439A6380239B001E42A7
:10ADA00017D01D4215D0AA0713D42168CA6992038F
:10ADB000D20E08D18A6A200013438B622023616A75
:10ADC0002376FFF7ADFF802322689B00916B0B4336
:10ADD000936301231E4226D01D4224D0637E222B82
:10ADE00021D11F20302120252268D3691B0A03426C
:10ADF00019D0236912685E1C26611A70E28A2368E2
:10AE0000013A92B2E282002A21D1DA6920008A4313
:10AE100020210A43DA6101226176996A0A439A6223
:10AE2000216A01F0CFFC019B9B0703D501203B6801
:10AE30000E499847F7BD0139E181A168013A481CE4
:10AE4000A0600978D2B25960002A9BD1A1E7072AF5
:10AE500003D8DA698A43DA61C6E7DA698A432A43A2
:10AE6000F9E7C046D8BE000022AD001834AD001886
:10AE7000F0B5057E04000220202D28D101380029DC
:10AE800025D0002A23D0636221232376236800255E
:10AE9000DE69A2813043C026E561D861D869013AF4
:10AEA000B043D861986B4136FF3630439863022037
:10AEB0009F6B07439F635F6A3E435E625E6A3043F7
:10AEC00058622800E2814A1CA2600A785A60F0BDEC
:10AED00030B5457E04000220202D1ED10138002906
:10AEE0001BD0002A19D0216100212362E16123686F
:10AEF00022316176D968A2822943E282D960D96978
:10AF00000843D8613021072A08D8DA698A43DA6110
:10AF100001220020596A0A435A6230BDDA698A4325
:10AF20001543DD61F4E700008021054B1A6A8A436E
:10AF30001A62DA6A8A43DA629A6B8A439A637047C2
:10AF40000010024010B505F09BFB8021214B1A6ACE
:10AF50000A431A62DA6A8A43DA629A6B8A439A630C
:10AF600004221D4B19680A431A60C0221968920016
:10AF70000A431A601A6819491140802212010A43D3
:10AF800008211A601A688A431A601A681449114025
:10AF9000802292020A4302211A601A688A431A60C8
:10AFA000072219690A431A610122196811431960BD
:10AFB00059681142FCD0022259681142FCD001218B
:10AFC0009C681A688A431A60FFF7AEFF05F050FBD1
:10AFD000200010BD00100240001C0040FFF3FFFFE6
:10AFE000FFFFFCFF10B5FFF7ADFF10BD70B50C0003
:10AFF000050001002422200005F062FB6B6A6362F9
:10B00000AB6AA36270BD00239A008258002A02D165
:10B010000133092BF8D10922D31A4362704770B566
:10B020000D000400FFF7E2FF290020002C312C3036
:10B03000FFF7DCFF2900200058315830FFF7D6FF1A
:10B0400070BD70B50C000500012600218CB02022D7
:10B0500001A80B910A9674F0CBFF210028000996F5
:10B06000FFF7C4FF210028002C312C30FFF7BEFF72
:10B07000210001A85831FFF7B9FF0CB070BD70B5C1
:10B080000025040001268CB02022290001A80A9680
:10B090000B9574F0ADFF210001A80995FFF7A6FFFD
:10B0A000210001A82C310996FFF7A0FF210001A87B
:10B0B00058310995FFF79AFF0CB070BDC022084BBC
:10B0C00092009958E821002800D1C821C120090622
:10B0D00099500222800019581142FCD0012070477B
:10B0E00000200040C022084B92009958F02100280F
:10B0F00000D1D021C12009069950022280001958A0
:10B100001142FCD00120704700200040C022084BB3
:10B1100092009958E021002800D1C021C1200906E1
:10B1200099500222800019581142FCD0012070472A
:10B1300000200040C022084B92009958F8210028B6
:10B1400000D1D821C1200906995002228000195847
:10B150001142FCD001207047002000400121012055
:10B16000274B4942DA6910B5D9619A6998615A69E1
:10B1700000225A611C691A61DC68DA609C68996077
:10B180005C6859601C6819601E490C680A601E4999
:10B190000C680A601D490C680A601D490C680A6049
:10B1A0001C490C680A601C490C680A601B490C6841
:10B1B0000A601B490C6808601A4908680A601A4945
:10B1C00008680A60194908680A60194908680A602D
:10B1D000184908680A60184908680A601749086829
:10B1E0000A60174908680A60C022920099581549F8
:10B1F000C12099500222800019581142FCD010BD84
:10B2000000200040DC200040D8200040D420004036
:10B21000D0200040CC200040C8200040C420004086
:10B22000C0200040FC200040F8200040F4200040F6
:10B23000F0200040EC200040E8200040E4200040E6
:10B24000E020004038000080F8B503680400002BBF
:10B250002BD003219A0842329200821852680B4088
:10B26000150AEDB2022B07D0D5B28B4204D0150CD3
:10B27000EDB2012B00D0150E0723012622685F1EB8
:10B28000232A01D1002B0DD0280018410D4B30404E
:10B290001A78002A0FD0002801D000221A703B0033
:10B2A0007A1CEBD1236801332360206824384342A1
:10B2B0005841C0B2F8BD002800D03000FFF726FF8B
:10B2C000EDE7C046C0000000F0B5E54C1C30A544D9
:10B2D00001930FAD00232E00042404930F931A93BF
:10B2E0001C311C32C77883783F061B04FB18077893
:10B2F0000439DB19477804363F02DB1904AFE35108
:10B30000CF798B793F061B04FB180F790434DB19C6
:10B310004F7904383F02DB193360D77893783F06C2
:10B320001B04FB181778043ADB1957793F02DB1925
:10B33000F362242CD6D104A8FFF765FE0FA8FFF70F
:10B3400062FE1AA8FFF75FFE0024C62247AE520035
:10B350002100300019942494469468AF74F048FE9C
:10B3600025A90FA8FFF76DFE390025A8FFF757FEA6
:10B3700089A904A8FFF73AFE3000FFF780FE0423F6
:10B380004693B84B73AA1F60B74B21001A60B74BA6
:10B3900052AA1E60B64B20341A60B64B7EAA1A60C1
:10B3A000B54B5DAA1A6046AB1800009307239C4674
:10B3B00069AA6346B14F5B1A9B000131DB191E6815
:10B3C0008F000FAEBE59AD4F1E6010235B1A9B005D
:10B3D000DB191E68166804301E6018235B1A9B0078
:10B3E000DB191E68D66A04321E60631A9B00DB19E3
:10B3F0001E68566D1E6028235B1A9B00DB191E68B1
:10B4000046681E6030235B1A9B00DB191E68066BC2
:10B410001E6038235B1A9B00DB191E6800261E6025
:10B420000829C6D1964B3C001A6803221A60C02333
:10B430009B00FA58934A0220FA500292C1229200CD
:10B440001100A6580642FCD0E2588F4AE25002236F
:10B4500062581A42FCD0C0239B00E2588B4A02205B
:10B46000E250C12292001100A6580642FCD0E258D8
:10B47000874AE2500223039262581A42FCD0C0234A
:10B480009B00E258834A0220E250C1229200110040
:10B49000A6580642FCD0E2587F4AE2500223625886
:10B4A0001A42FCD0C0239B00E2587C4AC121E250E2
:10B4B0000223890062581A42FCD00020FFF7FEFDEB
:10B4C0000122774B1A7046A8FFF7BEFE0028FAD07B
:10B4D0000126919B734F1E403000FFF703FEC023EF
:10B4E000C1219B00E258E7500223890062581A42AA
:10B4F000FCD0FFF733FE6C4B1A6804221A606B4BCA
:10B500001A68032252421A60694B1A680122524299
:10B510001A60684B1968022149421960664B196824
:10B52000052149421960654B19681A60644BC121B5
:10B530001A6800221A60634B89001A6803221A6095
:10B54000C0239B00E258039AE250022362581A4239
:10B55000FCD0072349499A0052181168296B043519
:10B560001160013BF6D2C0239B00E258029AE250E0
:10B57000043302221D00E1581142FCD03000FFF7D5
:10B58000D9FDC0239B00E2584F4AE2500222615984
:10B590001142FCD0E2584D4AE250C1239B000222E6
:10B5A0001900E0581042FCD0C0239B00E258022250
:10B5B000E75060581042FCD0E258454A0221E25060
:10B5C000C122920010002D4B9C580C42FCD0C0228E
:10B5D000920099583F499950022219581142FCD0C3
:10B5E000224A042112689446214A1768214A1668A3
:10B5F0001C4A15681C4A126802920F226446900089
:10B60000185860501000083080001858029C78507C
:10B610001000103080001858705010001830800052
:10B62000185868501000203080001858013A6050B7
:10B630000431072AE2D1019B46AA1C339168180005
:10B640000C0EDC700C0C9C7019700C0A01995C706B
:10B650000432043B8142F1D1B09B1C333CE0C04634
:10B6600054FDFFFF800D0000880D0000840D0000D8
:10B670008C0D00007C0D0000780D000000200040C3
:10B68000C02000400C0000809C0000802C01008045
:10B69000BC0100804C020080DC0200806C03008052
:10B6A000C0000000BA010080FC200040F8200040EB
:10B6B000F4200040F0200040EC200040E820004052
:10B6C000E4200040E02000409A0000802A01008031
:10B6D0004A020080DA020080009A1900526B043B93
:10B6E000100ED871100C98711A71100A009A5871C6
:10B6F00004320092B09A8A42EED1B298B19B984738
:10B70000AB239B009D44F0BD8023194A5B00116A66
:10B7100010B50B4380211362164B89005A58012241
:10B7200052425A50043158585A50043158588320C4
:10B730005A50800019580021195004301C581950D3
:10B7400004301C581950862189005858012058503F
:10B75000043158585A50C022920099588021C12073
:10B76000090699500222800019581142FCD010BDE0
:10B77000001002400020004080222F4BD200596967
:10B780002E4811435961596901405961196A0A43A8
:10B790001A622B4B1A6B00221A63596B5A63996B0E
:10B7A0009A63D96BDA6319691A6159695A6199699F
:10B7B0009A61D969DA61196A1A62596A5A62996A90
:10B7C0009A62D96ADA6219681A6059685A60996887
:10B7D0009A60D968DA60196C1A64596C5A64996C69
:10B7E0009A64D96C0C21DA641A6D8A431A651A6D51
:10B7F00024318A43110010220A431A651A6D114937
:10B800000A401A658022196D52010A431A651A6DA1
:10B810000D490A401A651A6D0C490A401A651A6DDD
:10B82000520052081A658022196D0A431A65802257
:10B83000074B12011A60704700100240FFFBFFFF28
:10B8400000280040FFFCFFFFFFDFFFFFFFBFFFFFFF
:10B8500000E100E07FB50100102202A804F030FFF3
:10B86000084B1A69029A1A615A69039A01925A613D
:10B870009A69049A01929A61DA69059ADA6107B0C5
:10B8800000BDC046002800407FB50100102202A87C
:10B8900004F016FF40220A4B196D0A431A65DA6D4F
:10B8A000029ADA65DA6D039A0192DA65DA6D049A22
:10B8B0000192DA65DA6D059ADA6507B000BDC04617
:10B8C00000280040074B10B5186002231400064AF8
:10B8D000106D034313650800FFF7BCFF2000FFF75E
:10B8E000D3FF10BD900D00000028004002000800AA
:10B8F000054B10B5196C0160596C4160996C816001
:10B90000DB6CC360904710BD002800400123044A4F
:10B9100010B5916D0B439365024B1B68984710BDA2
:10B9200000280040900D0000CD4A03008218501EF0
:10B930008241F0B5002487B00232059248780A7837
:10B94000000210438A7812041043CA781206024398
:10B950001000E04001D107B0F0BD0120A0400190EF
:10B960000240904200D0FAE04D7908792D0205435B
:10B97000887900040543C8790006284304280BD8B9
:10B980000138032815D865000295032574F0FCFAE8
:10B990004B00EE0082019C01B24DA84209D03BD879
:10B9A000B14DA84205D035D8B04D2840B04DA84281
:10B9B0006BD1487A0D7A000228438D7A66002D04F7
:10B9C0002843CD7A2D0605430320B040C043002D07
:10B9D00000D02EE1DD690540DD611D6928400125AB
:10B9E00018614E7D087D360230438E7DA5403604B9
:10B9F0000643C87D9F6A00063043A040AF4307431B
:10BA00009F625869019EA843304358619869A843D2
:10BA100098613AE0974DCAE7974D984E0540B54278
:10BA2000C7D0974DC3E70120A0404E7B0D7B360267
:10BA300035438E7BC04336042E43CD7B2D063543E4
:10BA400000D08EE01D6A054003276600B7401D62E6
:10BA50001D69BD431D615D6A4E7CAC460D7C36029E
:10BA600035438E7C36042E43CD7C2D06354366004F
:10BA7000B5406646BE4335435D629D69019E054003
:10BA800035439D615D6928405861C879C00666D517
:10BA90002500FF2A00D934E17A4E0720AD00A840E6
:10BAA000376887439020C00584460020634505D051
:10BAB000754884460120634500D00598A840074397
:10BAC00037604E790879360230438E79CD79360465
:10BAD00006432D066D483543F60300D4FBE00668A7
:10BAE00016430660C0262F00B6023740B74200D08A
:10BAF000F4E0466A16434662EE0200D4F1E086693D
:10BB000016438661AE0200D4EEE0C6691643C661F4
:10BB1000C0262F00B6033740B74200D0E7E0C66921
:10BB20001643C661866916438661ED0100D4E4E0E0
:10BB30003F26C56A2A43C2624A1CC56AD27FB54302
:10BB400032402A43C2628A1CD67FCA1CD27FC56A91
:10BB5000120232434E4E120235402A43C262013471
:10BB6000ECE61D6A019E054035436DE7FF2A3BD890
:10BB70001D000F2A35D82000303503266700BE404F
:10BB8000F743BC460227C000039018690490600088
:10BB9000874004980297B0433843FF271861039801
:10BBA0002E688740BE434F7E087E3F0238438F7E1B
:10BBB0003F040743C87E00063843039FB840304324
:10BBC00028604D7A087A2D0228438D7A2D0405438A
:10BBD000C87A0006284314D16046DF690740DF6158
:10BBE00053E73435201FC8E780201D004001824202
:10BBF00003D2200038350838BFE720003C350C3828
:10BC0000BBE701280BD16646DD6935406600B040D0
:10BC10002843D8619868019D2843986035E76046BD
:10BC2000DF690740029807430198DF619D680004BF
:10BC3000F2E7012D09D1B540DF69019E07403D4380
:10BC4000DD619D6835439D60C7E60227B740DD6929
:10BC500005403D43DD61019D9E682D04F2E7C0462D
:10BC600000F8FFB70000111100002110FFFFFDFFD9
:10BC70000000111000003110FFFFEFFF0000211144
:10BC8000000013113004014000040048000401408A
:10BC9000FF0000FF6600B54001266700BE4018693E
:10BCA000A843304318614E7F087F360230438E7FB1
:10BCB000DF6A36040643C87FAF43000630436600A0
:10BCC000B0400743DF62E0E66600B5401869A8436C
:10BCD00005431D61D9E60668964302E7466A964326
:10BCE00009E7866996430CE7C66996430FE7C6697C
:10BCF0009643C6618669964316E7856A95438562D1
:10BD00002DE7014E083DC8E634040140002A01D069
:10BD1000816070470904FBE7054AD3680123D360BB
:10BD2000C733013BDBB2D168002BFAD17047C04664
:10BD3000001C024010B5FFF7EFFF10BD00DF704799
:10BD400001DF704703DF704710B5EFF31084002C5C
:10BD500002D0FEF7B9FE10BDFFF7F0FFFBE710B50C
:10BD6000EFF31083002B02D0FEF7D6FE10BDFFF7D5
:10BD7000E7FFFBE710B5EFF31083002B02D0FEF7CF
:10BD8000E5FE10BDFFF7DEFFFBE7000070B583693D
:10BD90000400023B1B78072B08D8054A9B009D58DE
:10BDA0004168C36882680068A847206070BDC046CB
:10BDB000B4BD0018C9AA001819AB001895AB00183B
:10BDC0004DAB00183DAB0018D5AB0018F1AB001817
:10BDD00039AC001810B500210A4A0B4874F008F974
:10BDE0000A4A0B490B4804F06BFC80220021D20167
:10BDF000094874F0FDF800F051F90021012004F029
:10BE000067FC10BD5C060000A4B900000000000043
:10BE100000000818A4B9000000400050C021044AE6
:10BE2000044B4900535011680B4313607047C046E0
:10BE300000E100E0080008C0014B024ADA677047E1
:10BE400004E100E0FBDFFFFF80221249D205CB694D
:10BE5000C1201B021B0A1343C02210B5CB610E4B3D
:10BE60000E49920099500E4A80001A500D4C043031
:10BE70001A5004301C5004301950C52189005A5002
:10BE800004315A50C722084992009950074A1A6053
:10BE900010BDC04600ED00E000E100E080808000C1
:10BEA00080808080800080808080000004200000EE
:10BEB0008021054A89014003936B084003490B40E8
:10BEC000184390637047C04600140240FFDFFFFF35
:10BED00080220E4B5202996B0A439A638022996B1F
:10BEE00012020A4380219A6349019A6B0A4208D0E0
:10BEF0009A6B07490A409A639A6B06490A409A630B
:10BF000070479A6B1205120DDA64EEE700140240D6
:10BF1000FF7FFFFFFFFFFEFF492F504C463A73792A
:10BF20007320696E6974000013B5FCF76DFF284B30
:10BF300001201B6827499847C023274A27495B00EF
:10BF4000D150FFF781FFFFF769FF254C254B0522F4
:10BF50000C2120000093244BFDF7A2FA200002F0F0
:10BF600019FCFFF7D1FBFFF73DF8FFF705FCFEF7E3
:10BF7000E9FF03F0A9FE00F07DFB00F08FFB1B48FA
:10BF80001B4B000B0003C018FEF764FAFEF778FDA8
:10BF90000720184A002351680840042805D10B06E1
:10BFA0001B0F083B591E8B410133FF21C9000B4376
:10BFB0001364136C104900200B401364FFF778FFE3
:10BFC000FFF786FF00F074FA002000F077FB13BD46
:10BFD000D8BE000018BF001800E100E004200000F7
:10BFE000DC0D0000D40D0000980D0000E0F70418EF
:10BFF00000D0FFE7001002400FFEFFFF014B18606A
:10C00000FEE7C046846600007FB504000D00160000
:10C0100004F036FB03AB290020003200009302AB92
:10C02000FEF72EFE04F024FB0298039904B070BDC5
:10C0300070470000014B18687047C04684660000D6
:10C0400010B504F055FB04F02BFB002801D104F0DF
:10C050001FFB084B08499A6B0A409A639A6B074981
:10C060000A409A63DA6B06491140802292050A431E
:10C07000DA6310BD00140240FFFFFBFFFFFFFDFF6E
:10C08000FFFFFFC010B5FFF7DBFFFFF7A3FE00F0D7
:10C0900071F8FFF749FF10BD012070471B4B1C4A88
:10C0A00010B51A601B4B1C4A80211A601B4B1C4A9E
:10C0B00080201A601B4B1C4A89011A601B4B1C4ACA
:10C0C00000011A601B4B1C4A1A601C4B1C4A1A6068
:10C0D0001C4B1D4A1A601D4B1D4A1A601D4B1E4AFF
:10C0E0001A601E4B1E4A1A6002221E4B1A70012350
:10C0F0001D4A13701D4A13701D4A1370BD330A0088
:10C100009B0002F07DF801F007F810BD30BF000081
:10C11000158F0018E4BE0000FDBF0018D4BF00005A
:10C12000C9B20018C4BF000011FD0018A4B9000076
:10C1300009C00018BCBE00003D070000C0BE0000E2
:10C140004D070000D8BE0000F18D0018D4BE0000DD
:10C15000118E001838BF0000C5B8001834BF0000A9
:10C16000EDB80018DDBE0000DEBE0000DFBE00003E
:10C17000E0BE00000322074B1A70074B074A1A6003
:10C18000074B084A1360084A1360084A1360084ABC
:10C1900013607047DCBE0000A8BE00005DD300182D
:10C1A00099C00018B4BE0000B8BE0000B0BE0000C8
:10C1B000ACBE0000FFF73CFF0549064A064B9B1A40
:10C1C00003DD043BC858D050FBDCFCF71DFC00002D
:10C1D0000080001800000000F0090000FEE7C046E3
:10C1E00004207146084202D0EFF3098001E0EFF32A
:10C1F00008800149084700008DBD00180368124AF5
:10C2000093420AD18022114BD20199690A439A6163
:10C210009A690F490A409A6170470E4A9342FBD1CE
:10C2200080220A4B920259690A435A615A690A49A3
:10C230000A405A6180225969D2020A435A615A69F6
:10C2400006490A405A61E7E7003801400010024001
:10C25000FFBFFFFF00440040FFFFFDFFFFFFFBFFAC
:10C2600003680E4A934206D180230D4ADB01516ACE
:10C270000B43536270470B4A934207D00A4A9342DA
:10C28000F8D18023064ADB02116A03E08023044AC6
:10C290009B02116A0B431362ECE7C0460038014071
:10C2A000001002400044004000480040294B70B597
:10C2B0001C68002C00D118600E68274D274C2848B8
:10C2C000002A23D0AE4208D18022C025254B12057A
:10C2D0006D005A51244D29601A600B68A34208D1A1
:10C2E0008022C0241F4B520564001A511E4C61600D
:10C2F0001A600B68834208D18022C020194B920536
:10C3000040001A50184881601A6070BDAE4207D1D3
:10C310008025164A2D05D567BFF34F8FBFF36F8F6A
:10C320000A68A24207D18024104A6405D467BFF38B
:10C330004F8FBFF36F8F0A68824207D180210B4A6B
:10C340008905D167BFF34F8FBFF36F8F00221A604B
:10C35000DBE7C0462C5B0000003801400044004091
:10C360000048004000E100E0205B000004E100E044
:10C3700010B5034B034A1B681068984710BDC046B0
:10C380002C5B0000205B000010B5034B034A1B68C8
:10C390005068984710BDC0462C5B0000205B000031
:10C3A00010B5034B034A1B689068984710BDC04600
:10C3B0002C5B0000205B0000014B185C7047C046FE
:10C3C0006CC6001870477047030007221340044AE8
:10C3D000C008D35C4000C01A403840B27047C04625
:10C3E00064C600180420704704207047002070477E
:10C3F0001C4B1D4AF8201A601C4A40055A601C4A12
:10C400009A601C4ADA601C4A1A61802212065A613C
:10C4100080229A61194ADA61194A1A62194A5A62E3
:10C42000194A9A62194A11780A061040184A0243BA
:10C43000F820DA62174A40011A63174A1A65174A48
:10C440009A65174ADA650A0202401F2001400A4332
:10C4500014490A431A67144B144A9A6090229201B5
:10C460001A627047007400403F01FEC30F335D60E5
:10C470000024800FC100C920054060408000001FDB
:10C480008C00EE00C82A705A1D01153F305B000079
:10C49000002064A0447800F0AC6106010A0804485A
:10C4A0004A4C4F0200000C1900780040741400043C
:10C4B000F8B5C0235D4ADB05116A0B431362FFF731
:10C4C00097FF01225A4B196D0A431A651022196D04
:10C4D0000A431A654022196D0A431A652022196918
:10C4E0001143196180211868890001431960802176
:10C4F0001868C900014319608021186809010143C7
:10C50000196019684B480140196019690A431A619A
:10C510008022D96912060A431F21DA611A698A4307
:10C52000110014220A431A611A6943490A401A6128
:10C530001A6942490A401A618022196991431961B6
:10C5400019690A4304211A613D4A986B084268D070
:10C55000002A66DC8022196852010A431A60DA6AEE
:10C56000384C39492240DA62DA6A0A40DA628022BB
:10C57000D86AD20502430220DA62314A9D6B054235
:10C5800051D0002A4FDC802080271F259A6BDE6A5D
:10C5900080050643DE621E69D208BE431E61DE6A64
:10C5A0002A403140D962D969284E49004908D961E9
:10C5B00027490A70D96A0C40DC62DC6A11063440F3
:10C5C0002143D962196F234CA94311431967196F8D
:10C5D000120221400A4320211A67DA6A1043D86206
:10C5E0001A698A431A611A681B490A401A601A6854
:10C5F0001A490A401A601A6819490A401A608022CA
:10C60000196892020A4301211A601A6D8A431A6559
:10C610001A6D0F318A431A651A6D30318A431A65D3
:10C62000F8BD013A91E7013AA8E7C0460010024080
:10C6300000740040FFFFFDFFFFFFF8FFFFDFFFFF7B
:10C6400050C30000FFFFFFDFFFFFFFBFFFFFFFE062
:10C65000305B0000FFE0FFFFFFF7FFFFFFFBFFFF86
:10C66000FFFDFFFF2B251F19130D0701E9ECEFF26A
:10C67000F5F8FBFE8022064B9200596905481143EC
:10C680005961596901405961196A0A431A62704730
:10C6900000100240FFFDFFFF002070470423014A05
:10C6A0001A607047F3070000024A0349136C0B40FD
:10C6B0001364704700100240FFFEFFFFE023C00636
:10C6C0009B051840094B0A4918430A4B98645A6C59
:10C6D0001140802292030A4307215A645A6C8A430C
:10C6E000110005220A435A647047C046080008003A
:10C6F000FFFF80FF00140240014B18707047C046D6
:10C70000315B0000064B074A10B51A64FFF794FB33
:10C7100003F0E6FFFFF798FB0122034B1A7010BDF0
:10C720000014024002200000315B0000014B187829
:10C730007047C046315B00008023034A1B06916CA2
:10C740000B4393647047C0460014024070470000DA
:10C7500070B50E4D868801683200280073F01EFC0B
:10C76000041E01D001BE70BD094904220B689E1948
:10C770000E60084E03003000FEF77AFB23004022D3
:10C7800029003000FEF7A4FBEDE7C046F05F000093
:10C79000EC5F0000345B0000F8B51F0006000D00E0
:10C7A000140002F023FB0368002B0AD1002E08D0EE
:10C7B000002D06D0002C04D006608581C381446022
:10C7C0008760F8BD10B500234021024A0248FFF7F8
:10C7D000E3FF10BD4DC70018F05F000070B5040006
:10C7E0000D0002F007FB0368002B06D1002C04D0DB
:10C7F000024AC36002604460856070BDE05B000077
:10C8000010B50D490D48FFF7E9FF1F220C4C0D4BE9
:10C81000200023600C4BA380A37993431A000323C9
:10C820001343A371FEF740FA00234022200007497A
:10C83000FEF74EFB10BDC046E05F000051C7001878
:10C84000345B0000003801402B020000F05F000064
:10C85000014B18687047C046D45B0000014B186854
:10C860007047C046D85B00008023DB05586B7047DB
:10C87000492F4D433A656E74657220727800492FD6
:10C880004D433A627265616B2072780010B50C4CB2
:10C8900001200C49236898470B4B1B78002B04D0D0
:10C8A000012023680949984710BD02F099FA002831
:10C8B000F2D002F075FC012002F08CFAECE7C046E1
:10C8C000D8BE000070C80018CC5B00007EC80018FD
:10C8D000F0B590268027012500248BB01B22F60599
:10C8E000002103A873F084FB7F01300001A90295A9
:10C8F0000197FFF719F83000082622003900FFF7EA
:10C9000005FA0295074D01A92800019604940594A3
:10C91000FFF70AF8220031002800FFF7F7F90BB003
:10C92000F0BDC0460004004810B501000148FCF706
:10C9300029F910BDC400000010B501000148FCF742
:10C94000E9F810BDC4000000492F4D433A656E74EC
:10C95000657220747800492F4D433A6578697420D8
:10C960007478000070B501251348FCF713F9134CD7
:10C97000002809D003F084FE2378022B01D0002385
:10C98000237003F075FE70BD02F01AFC03F078FE10
