:04000005180368383C
:020000041800E2
:100000003C3CA5A5C3C35A5A02000000FFFFFFFFF6
:0C001000FFFFFFFF00100018200D000093
:0600200020200503501032
:1010000000C00000791B0018A11B0018451900182A
:1010100000000000000000000000000000000000D0
:10102000000000000000000000000000A51B0018E8
:101030000000000000000000A11B0018A11B001808
:10104000A11B0018A11B0018A11B001831080000EB
:10105000A11B0018A11B0018A11B0018A11B001840
:10106000A11B0018A11B0018A11B0018A11B001830
:10107000A11B001831080000A11B0018A11B0018BB
:10108000A11B0018A11B0018A11B001831080000AB
:10109000A11B0018A11B0018A11B0018A11B001800
:1010A000A11B0018A11B0018A11B0018C11B0018D0
:1010B000D91B0018F11B001831080000310800008E
:1010C00000000000A41C0018C41C0018841C001898
:1010D0000000000000000000000000000000000010
:1010E0000000000000000000000000000000000000
:1010F00000000000000000000000000000000000F0
:1011000000000000000000000000000000000000DF
:1011100000000000000000000000000000000000CF
:10112000FEE70000F0B50400134D9B021D43903410
:101130000600256005009436A835042A12D8002A36
:101140000FD0013A12051A4320231A4303002260EC
:101150000A68A8331A600122143B1A600368002B46
:10116000FCDAF0BD80C9043A2F60112792B23760D3
:101170000768002FFCDAE0E720003000F7B5040034
:1011800008009902164B25000B43210090310B609B
:101190002600230011219433A035A436082A13D841
:1011A000002A10D023000121943319602368002BFA
:1011B000FCDA2300A0331B68A4340093236869463B
:1011C000019300F055FBF7BD083A196092B2083060
:1011D0002768002FFCDA2F68076037684760DDE773
:1011E00010000700F0B50F7A87B003930D793C0724
:1011F000E40F2D0664002C43BD072D0C01957D07DF
:10120000FE06ED0FBF06ED00FF0F0295BD00E027C3
:10121000AC46551EFF022D043D4017007B1E9F412A
:10122000F60F3F0176022743019C37432743029C78
:1012300006002743644627430124039B3D431B01CB
:1012400025431C430300903635604D6894332D0AC6
:10125000B5601C600368002BFCDAA03003680868E6
:1012600005A9059300F004FB07B0F0BDF0B50F7AB7
:1012700087B0039304003B070879DB0F00065B008F
:1012800003437807FD06BE07C00FBF06C000FF0F6F
:101290000290B800E0278446501EFF030005384046
:1012A000170001937B1E9F41019BED0F7F016D0293
:1012B0001F432F43029B360C3E431E4363460125CA
:1012C0001E432300304328439033186020004B68AE
:1012D00098301B0A0360096805A800F0C9FA2300CA
:1012E000059AA8331A60039B1B011D432300943306
:1012F0001D602368002BFCDA07B0F0BDF7B5019341
:101300008C8906000D001700042C0FD80023E4B2CE
:10131000290030682200B847AA892968121BAB7BD4
:101320003068091992B2019CA047F7BD0A680323EF
:1013300014001C401A4202D001331C1BE4B20123EA
:10134000E6E770B50400012100F010FA200000F07B
:10135000FDF92000256800F019FAE860200000F08F
:1013600011FA1E222368400010401861200000F08E
:101370000BFAF023C004DB031840812322681843D2
:10138000106070BD4A7810B553071407DB0FE40FE7
:10139000097824041B0323430B43D106C90F090515
:1013A000920700680B4392091343436010BD036822
:1013B0009962704710B5024B024AFFF79FFF10BDBC
:1013C0007D010000E501000010B5024B024AFFF765
:1013D00095FF10BD250100006D020000F0B51C0056
:1013E000013B05000E00170085B0032B01D9FFF764
:1013F00097FE6B462C221E711B7A694693436A4600
:10140000137200232800009794819373FFF7DCFF89
:1014100005B0F0BD036801221800090611439030A1
:101420000160190094310A601A68002AFCDA7047DA
:10143000F0B51C00013B05000E00170085B0072B1E
:1014400001D9FFF76DFE6B462C221E711B7A69468F
:1014500093436A4613720023280000979481937384
:10146000FFF7A8FF05B0F0BD7FB56B4607330293C9
:10147000EB233F2202A903930B7A064893431A00F9
:101480003D2313430B7201238B81FFF793FF07B0BA
:1014900000BDC046C808000070B50400044D00211E
:1014A0002800FFF784FF28002100FFF783FF70BDAD
:1014B000C808000010B501000148FFF77BFF10BD10
:1014C000C808000010B5FFF7F5FF10BD10B5020009
:1014D000022301210148FFF781FF10BDC808000069
:1014E00010B50200032320210148FFF777FF10BD4C
:1014F000C808000010B50200032344210148FFF78B
:101500006DFF10BDC808000010B560210148FFF74D
:1015100081FF10BDC808000010B501000148FFF7A9
:1015200053FF10BDC808000010B5FFF7F5FF10BD50
:101530000023044A1370044A1370044B044A1A60CF
:101540007047C046C4080000C5080000C808000075
:101550000000024010B50248FFF7F3FE10BDC04680
:10156000C808000037B50F4C2378002B18D100F0C5
:10157000DBF80D4D20212800FFF719FFFFF774FF5E
:101580006B469B88094A5B0B5B0313436A46280042
:10159000938001A9FFF7F6FE0123237000F0CCF839
:1015A00037BDC046C5080000C8080000EB1E00009B
:1015B00010B5084C2378002B0BD000F0B5F80021B3
:1015C0000548FFF7F4FEFFF74FFF0023237000F0FC
:1015D000B3F810BDC5080000C808000070B50D00C4
:1015E0000400FFF7E5FF2800A047FFF7BBFF70BD31
:1015F00010B50200012305210148FFF719FF10BDB6
:10160000C808000073B50D00040000F08DF8FFF766
:10161000CFFF06210B48FFF7FDFE2800A04701245D
:10162000094D2C7000F088F86B46DE1D3000FFF786
:10163000DFFF33781A0022402342F5D12A70FFF7EA
:1016400091FF73BDC8080000C408000010B5020077
:10165000012335210148FFF7EBFE10BDC80800004B
:1016600007B56B46991D08800148FFF7CBFF07BD02
:10167000CD04000010B5B9210148FFF7CBFE10BD25
:10168000C808000010B5AB210148FFF7C3FE10BD2C
:10169000C808000013B56B4601AC581DFFF7D6FF14
:1016A00063789B070BD42000FFF7A2FF63782078B4
:1016B0001B020343802080001843FFF7D1FF13BDB6
:1016C00010B575210148FFF7A5FE10BDC808000040
:1016D00010B57A210148FFF79DFE10BDC808000033
:1016E000014B18787047C046C4080000014B1878B9
:1016F0007047C046C508000070B504000D1E02D03A
:10170000012000F053F82020640104401F38054BED
:10171000284004431C60002D02D1280000F046F848
:1017200070BDC04600740140024A13680133136063
:1017300072B67047CC080000034A1368013B13607F
:10174000002B00D162B67047CC0800008022054B08
:10175000520599690A439A619A6903490A409A6154
:101760007047C04600100240FFFFFFEF034A0448E5
:10177000536A090703401943516270470010024041
:10178000FFFFFFEF022070470020704700487047BE
:10179000050301000121044B1A690A431A611A6901
:1017A0008A431A617047C0460010024010B502001B
:1017B0000124084B2240D9694007A1430A438021F4
:1017C000DA6189055A6A084003490A4010435862A1
:1017D00010BDC04600100240FFFFFFDF072110B51B
:1017E0000124104A53688B4323435360802351687C
:1017F0001B060B43536072B6FFF79AFEFFF7AAFE73
:10180000FFF748FFFFF7AEFE21002000FFF774FF4F
:10181000054B1B6883F30888044B1B68984700201E
:1018200010BDC04600100240006003180460031899
:1018300070B5FFF755FF0500FFF758FF0400002DB6
:1018400005D0002801D0FFF76BFCFFF739FF002C13
:1018500001D1FFF787FE00F017F800F01DF8002C0B
:1018600001D1FFF7A5FE002D01D0FFF731FF70BDBC
:10187000002310B59A4200D110BDCC5CC454013392
:10188000F8E700000000000001B40248844601BCF3
:10189000604700BFA5D2071801B40248844601BCC6
:1018A000604700BF35120618F8B5C046F8BC08BC42
:1018B0009E467047F8B5C046F8BC08BC9E467047C7
:1018C000164B002B00D1144B9D46402292029A1ACF
:1018D000924600218B460F461348144A121A7EF096
:1018E00087FB0F4B002B00D098470E4B002B00D0EE
:1018F00098470020002104000D000D48002802D068
:101900000C4800E000BF00F099F92000290000F029
:10191000F3F900F07BF9C0460000080000C00000A9
:101920000000000000000000A8080000E00800001F
:101930000000000000000000012801D172B6FEE79F
:101940007047000010B5EFF3088319005A68044887
:10195000083100F010F801221378002BFCD110BDE3
:10196000A808000000B57346FFF7E6FF00BD013888
:101970000028FCD170470160EFF309834360826067
:10198000C4600561466187617047000010B586B08C
:1019900002913221002B00D1303902AC21710102B9
:1019A0000398019068460079084303903C20217A0F
:1019B000A2818143080008210143217203482100CC
:1019C000A37300F091F906B010BDC04619050000E0
:1019D00007B5030C01A90B708870030A02484B700D
:1019E00000F082F907BDC046E104000010B50021F7
:1019F000014800F079F910BD090500007FB5EB231F
:101A0000029102A90B7103990302019169460879B9
:101A10003F211843039002AB1B7A07488B43190000
:101A20003D230B4302A90B7201238A818B7300F0C3
:101A30006BF907B000BDC046990400007FB50B23C9
:101A4000029102A90B710399030201916946087979
:101A50003F211843039002AB1B7A07488B431900C0
:101A60000C230B4302A90B7200238A818B7300F0B5
:101A70004BF907B000BDC046B504000007B5002310
:101A80000A0001A90B70D3050001DB0F03430348D3
:101A90004B708A7000F028F907BDC046F5040000BD
:101AA00010B586B00292422202AC2271039AC90597
:101AB00001926A46C90D00030843117900020843E8
:101AC0003C210390227AA3818A431100082200233B
:101AD0000A43044821002272A37300F005F906B0FE
:101AE00010BDC0462905000010B586B002924822FC
:101AF00002AC2271039AC90501926A46C90D00031E
:101B000008431179000208433F210390227AA38100
:101B10008A4311000C2200230A4304482100227248
:101B2000A37300F0F1F806B010BDC046C504000074
:101B300070B583690400023B1B78072B08D8054A5F
:101B40009B009D584168C36882680068A847206070
:101B500070BDC046581B00188D190018D119001807
:101B60003D1A0018FD190018ED1900187D1A00180B
:101B7000A11A0018E91A001800F046F80549064AAB
:101B8000064B9B1A03DD043BC858D050FBDCFFF723
:101B900097FE00000010001800000000A8080000D8
:101BA000FEE7C04604207146084202D0EFF30980E8
:101BB00001E0EFF30880014908470000311B0018DD
:101BC00010B5034B034A1B681068984710BDC04608
:101BD000DC080000D008000010B5034B034A1B6866
:101BE0005068984710BDC046DC080000D0080000CF
:101BF00010B5034B034A1B689068984710BDC04658
:101C0000DC080000D008000070470000084B10B549
:101C10000400002B02D0002100E000BF054B186833
:101C2000836A002B00D09847200000F05BF8C04684
:101C300000000000381C0018C000000070B500262D
:101C40000C4D0D4C641BA410A64209D10026FFF7D1
:101C50002BFE0A4D0A4C641BA410A64205D170BD90
:101C6000B300EB5898470136EEE7B300EB589847BE
:101C70000136F2E700000000000000000000000054
:101C80000000000000000000000000000000000054
:101C90000000000000000000000000000000000044
:101CA0000000000000000000000000000000000034
:101CB0000000000000000000000000000000000024
:101CC0000000000000000000000000000000000014
:101CD0000000000000000000000000000000000004
:101CE00000000000FEE7C04601B40248844601BC83
:101CF000604700BF0506000001B40248844601BCED
:101D0000604700BFDD07000001B40248844601BC03
:101D1000604700BFDD050000A8FBFF7F0100000059
:020000041803DF
:10600000C0B90000798F0318A18F03182D6E0318F3
:106010000000000000000000000000000000000080
:10602000000000000000000000000000A58F031821
:106030000000000000000000A18F0318A18F0318CA
:10604000A18F0318A18F0318A18F0318C1070000A7
:10605000A18F0318A18F0318A18F0318A18F031814
:10606000A18F0318A18F0318A18F0318A18F031804
:10607000A18F0318C1070000A18F0318A18F031877
:10608000A18F0318A18F0318A18F0318C107000067
:10609000A18F0318A18F0318A18F0318A18F0318D4
:1060A000A18F0318A18F0318A18F0318B9900318AB
:1060B000D1900318E9900318C1070000C107000040
:1060C000C4000000000000007CA003189CA003187E
:1060D0005CA00318000000000000000000000000A9
:1060E00000000000000000000000000000000000B0
:1060F00000000000000000000000000000000000A0
:10610000000000000000000000000000000000008F
:10611000000000000000000000000000000000007F
:1061200000000000FEE70000F0B50400134D9B02E4
:106130001D4390340600256005009436A835042AD6
:1061400012D8002A0FD0013A12051A4320231A430D
:10615000030022600A68A8331A600122143B1A6007
:106160000368002BFCDAF0BD80C9043A2F601127C8
:1061700092B237600768002FFCDAE0E720003000B9
:10618000F7B5040008009902164B25000B432100C7
:1061900090310B602600230011219433A035A436E2
:1061A000082A13D8002A10D0230001219433196043
:1061B0002368002BFCDA2300A0331B68A43400936F
:1061C00023686946019300F01BFBF7BD083A19608C
:1061D00092B208302768002FFCDA2F680760376812
:1061E0004760DDE710000700F0B50F7A87B0039332
:1061F0000D793C07E40F2D0664002C43BD072D0CE0
:1062000001957D07FE06ED0FBF06ED00FF0F02951D
:10621000BD00E027AC46551EFF022D043D4017008F
:106220007B1E9F41F60F3F0176022743019C3743B7
:106230002743029C06002743644627430124039B0F
:106240003D431B0125431C430300903635604D68D8
:1062500094332D0AB5601C600368002BFCDAA03073
:106260000368086805A9059300F0CAFA07B0F0BDF5
:10627000F0B50F7A87B0039304003B070879DB0F72
:1062800000065B0003437807FD06BE07C00FBF068C
:10629000C000FF0F0290B800E0278446501EFF03A5
:1062A00000053840170001937B1E9F41019BED0FB5
:1062B0007F016D021F432F43029B360C3E431E435A
:1062C000634601251E432300304328439033186062
:1062D00020004B6898301B0A0360096805A800F08D
:1062E0008FFA2300059AA8331A60039B1B011D43F4
:1062F000230094331D602368002BFCDA07B0F0BD47
:10630000F7B501938C8906000D001700042C0FD8F7
:106310000023E4B2290030682200B847AA8929681E
:10632000121BAB7B3068091992B2019CA047F7BDE4
:106330000A68032314001C401A4202D001331C1BBC
:10634000E4B20123E6E770B50400012100F00CFA85
:10635000200000F0F9F92000256800F015FAE86047
:10636000200000F00DFA1E22236840001040186142
:10637000200000F007FAF023C004DB03184081235B
:1063800022681843106070BD4A7810B5530714078F
:10639000DB0FE40F097824041B0323430B43D106CE
:1063A000C90F0905920700680B4392091343436024
:1063B00010BD03689962704710B5024B024AFFF79F
:1063C0009FFF10BD81010000E901000010B5024BE4
:1063D000024AFFF795FF10BD29010000710200007D
:1063E000F0B51C00013B05000E00170085B0032B23
:1063F00001D9FFF797FE6B462C221E711B7A694666
:1064000093436A4613720023280000979481937384
:10641000FFF7DCFF05B0F0BD036801221800090694
:10642000114390300160190094310A601A68002A03
:10643000FCDA7047F0B51C00013B05000E001700A8
:1064400085B0072B01D9FFF76DFE6B462C221E711C
:106450001B7A694693436A4613720023280000970B
:1064600094819373FFF7A8FF05B0F0BD7FB56B462D
:1064700007330293EB233F2202A903930B7A0648CA
:1064800093431A003D2313430B7201238B81FFF7C3
:1064900093FF07B000BDC046D80B000070B50400E4
:1064A000044D00212800FFF784FF28002100FFF79A
:1064B00083FF70BDD80B000010B501000148FFF745
:1064C0007BFF10BDD80B000010B5FFF7F5FF10BD26
:1064D00010B50200022301210148FFF781FF10BD22
:1064E000D80B000010B50200032320210148FFF75C
:1064F00077FF10BDD80B000010B502000323442124
:106500000148FFF76DFF10BDD80B000010B56021EA
:106510000148FFF781FF10BDD80B000010B5010046
:106520000148FFF753FF10BDD80B000010B5FFF76F
:10653000F5FF10BD0023044A1370044A1370044B86
:10654000044A1A607047C046D40B0000D50B000007
:10655000D80B00000000024010B50248FFF7F3FE20
:1065600010BDC046D80B000037B50F4C2378002B68
:1065700018D100F0C3F80D4D20212800FFF719FFB6
:10658000FFF774FF6B469B88094A5B0B5B03134361
:106590006A462800938001A9FFF7F6FE01232370C5
:1065A00000F0B4F837BDC046D50B0000D80B000092
:1065B000EB1E000010B5084C2378002B0BD000F028
:1065C0009DF800210548FFF7F4FEFFF74FFF002379
:1065D000237000F09BF810BDD50B0000D80B000015
:1065E00070B50D000400FFF7E5FF2800A047FFF796
:1065F000BBFF70BD10B50200012305210148FFF764
:1066000019FF10BDD80B000073B50D00040000F099
:1066100075F8FFF7CFFF06210B48FFF7FDFE2800B6
:10662000A0470124094D2C7000F070F86B46DE1D68
:106630003000FFF7DFFF33781A0022402342F5D104
:106640002A70FFF791FF73BDD80B0000D40B000038
:1066500010B50200012335210148FFF7EBFE10BD04
:10666000D80B000007B56B46991D08800148FFF75D
:10667000CBFF07BDD104000010B5B9210148FFF7D9
:10668000CBFE10BDD80B000010B5AB210148FFF7C1
:10669000C3FE10BDD80B000013B56B4601AC581DEE
:1066A000FFF7D6FF63789B070BD42000FFF7A2FF0C
:1066B000637820781B020343802080001843FFF793
:1066C000D1FF13BD10B575210148FFF7A5FE10BD20
:1066D000D80B000010B57A210148FFF79DFE10BDD0
:1066E000D80B0000014B18787047C046D40B00004F
:1066F000014B18787047C046D50B0000024A13685A
:106700000133136072B67047DC0B0000034A136854
:10671000013B1360002B00D162B67047DC0B000018
:106720004046494652465B46FFB500216A460A602C
:1067300000F03CF830BF00F03AF8FFBC80468946D4
:1067400092469B4600BD00008022054B5205996988
:106750000A439A619A6903490A409A617047C046A0
:1067600000100240FFFFFFEF034A0448536A090785
:10677000034019435162704700100240FFFFFFEFD2
:106780000220704700207047004870470503010051
:1067900010B5FFF70FFFFFF76FFFFFF7C1FFFFF720
:1067A000DBFEFFF771FFFFF7DFFE10BD70478023B0
:1067B000024A1B0651680B435360704700140240A5
:1067C00070B5FFF78FFF0500FFF792FF0400002D63
:1067D00005D0002801D0FFF7A5FCFFF773FF002CC0
:1067E00001D1FFF7C1FE00F017F800F01DF8002CF2
:1067F00001D1FFF7DFFE002D01D0FFF76BFF70BD69
:10680000002310B59A4200D110BDCC5CC4540133B2
:10681000F8E700000000000001B40248844601BC13
:10682000604700BFA5D2071801B40248844601BCE6
:10683000604700BF35120618F8B5C046F8BC08BC62
:106840009E467047F8B5C046F8BC08BC9E467047E7
:10685000164B002B00D1144B9D46402292029A1AEF
:10686000924600218B460F461348144A121A49F0EB
:10687000BFFB0F4B002B00D098470E4B002B00D0D6
:1068800098470020002104000D000D48002802D088
:106890000C4800E000BF03F0E5FA2000290002F0F8
:1068A00003FE03F0C7FAC04600000800C0B90000AC
:1068B000000000000000000038080000D84D000073
:1068C000000000000000000030B58A18914200D19D
:1068D00030BD0D78040A6C406400E45A0002604048
:1068E00080B20131F2E7000010B5024BFFF7ECFF78
:1068F00010BDC046F8680318000021104220633024
:106900008440A550C660E770088129914AA16BB107
:106910008CC1ADD1CEE1EFF13112100273325222AF
:10692000B5529442F772D662399318837BB35AA357
:10693000BDD39CC3FFF3DEE362244334200401147F
:10694000E664C774A44485546AA54BB528850995A7
:10695000EEE5CFF5ACC58DD553367226111630064F
:10696000D776F6669556B4465BB77AA719973887F7
:10697000DFF7FEE79DD7BCC7C448E5588668A7780F
:106980004008611802282338CCC9EDD98EE9AFF947
:10699000488969990AA92BB9F55AD44AB77A966AEF
:1069A000711A500A333A122AFDDBDCCBBFFB9EEB97
:1069B000799B588B3BBB1AABA66C877CE44CC55CBF
:1069C000222C033C600C411CAEED8FFDECCDCDDDE7
:1069D0002AAD0BBD688D499D977EB66ED55EF44E8F
:1069E000133E322E511E700E9FFFBEEFDDDFFCCF37
:1069F0001BBF3AAF599F788F8891A981CAB1EBA18B
:106A00000CD12DC14EF16FE18010A100C230E32006
:106A10000450254046706760B9839893FBA3DAB3AE
:106A20003DC31CD37FE35EF3B1029012F322D23256
:106A30003542145277625672EAB5CBA5A89589857E
:106A40006EF54FE52CD50DC5E234C324A0148104A6
:106A50006674476424540544DBA7FAB79987B8974E
:106A60005FE77EF71DC73CD7D326F2369106B016F6
:106A700057667676154634564CD96DC90EF92FE90E
:106A8000C899E9898AB9ABA9445865480678276846
:106A9000C018E1088238A3287DCB5CDB3FEB1EFBEE
:106AA000F98BD89BBBAB9ABB754A545A376A167A96
:106AB000F10AD01AB32A923A2EFD0FED6CDD4DCDBE
:106AC000AABD8BADE89DC98D267C076C645C454CE6
:106AD000A23C832CE01CC10C1FEF3EFF5DCF7CDF8E
:106AE0009BAFBABFD98FF89F176E367E554E745E36
:106AF000932EB23ED10EF01E10B50400002000F01F
:106B000049FA002C04D000220249100000F042FA99
:106B100010BDC046F76B03180EB403B503AB02CB30
:106B200001AA0193FFF7E8FF02B008BC03B01847C1
:106B300010B500F043FC10BD417373657274696F4A
:106B40006E204661696C65643A2066696C65202533
:106B5000732C206C696E652025642C2025730A0037
:106B600007B5130072B60A00009002490020FFF733
:106B7000D3FF07BD386B03186C766C3A25782C6C04
:106B8000723D3078253038782C706172616D303DFF
:106B9000307825782C706172616D313D30782578C0
:106BA0000A00000013B5040001920091020004499C
:106BB0000020FFF7B1FF012C01D172B6FEE713BD33
:106BC000786B0318212121212121212121214861D4
:106BD00072644661756C742048616E646C657220E5
:106BE0006973207472696767657265642121212168
:106BF0002121212121210D0A0050726F6C6F673A0B
:106C00000D0A0052342020203D203078253038787D
:106C10000D0A0052352020203D203078253038786C
:106C20000D0A0052362020203D203078253038785B
:106C30000D0A0052372020203D203078253038784A
:106C40000D0A006C722020203D20307825303878E5
:106C50000D0A006D737020203D2030782530387883
:106C60000D0A0070737020203D2030782530387870
:106C70000D0A0050535020537461636B20496E66B7
:106C80006F3A0D0A004D535020537461636B2049D5
:106C90006E666F3A0D0A0052302020203D20307879
:106CA000253038780D0A0052312020203D203078E0
:106CB000253038780D0A0052322020203D203078CF
:106CC000253038780D0A0052332020203D203078BE
:106CD000253038780D0A0052313220203D2030789E
:106CE000253038780D0A004C522020203D20307885
:106CF000253038780D0A0050432020203D20307880
:106D0000253038780D0A0078505352203D203078D5
:106D1000253038780D0A000010B500202F49FFF704
:106D2000FBFE00202E49FFF7F7FE2E4C0020E26804
:106D30002D49FFF7F1FE002022692C49FFF7ECFEF8
:106D4000002062692A49FFF7E7FE0020A26929496D
:106D5000FFF7E2FE0020A2682749FFF7DDFE0020D2
:106D600022682649FFF7D8FE002062682449FFF711
:106D7000D3FEA36803332DD1646822490020FFF7B6
:106D8000CBFE226800202049FFF7C6FE6268002083
:106D90001E49FFF7C1FEA26800201D49FFF7BCFE97
:106DA000E26800201B49FFF7B7FE226900201A495C
:106DB000FFF7B2FE626900201849FFF7ADFEA26935
:106DC00000201749FFF7A8FE0020E2691549FFF7E8
:106DD000A3FE10BD24681449D0E7C046C46B031855
:106DE000F96B031838080000036C0318136C0318C0
:106DF000236C0318336C0318436C0318536C03188B
:106E0000636C0318736C0318976C0318A76C031852
:106E1000B76C0318C76C0318D76C0318E76C03181A
:106E2000F76C0318076D0318856C031810B5EFF3A2
:106E3000088319005A680548083100F012F8FFF776
:106E40006BFF01221378002BFCD110BD3808000025
:106E500000B57346FFF7A6FE00BD01380028FCD13F
:106E600070470160EFF3098343608260C46005618D
:106E7000466187617047826810B504004068531C02
:106E8000834205D820688154A360E3680133E3603E
:106E9000A26863689A4209D12168206900F074FAF7
:106EA000A368984203D001235B42E36010BD002336
:106EB000A360FBE7F0B5050017000800012685B0C8
:106EC0000A9C02910093B84219D2009A0196964208
:106ED00000D2019201230B9A1A4003920B9A1A4294
:106EE00002D1002C10D10024EB680126002B4BDBD3
:106EF000009B012B1FD9013B00937E43F8E739002B
:106F000015F0C8FD0136DEE70B9B20269B0704D554
:106F1000009B1036002B00D0103E019BA342E3D211
:106F200031002800FFF7A7FFEB68013C002BDBDBFB
:106F3000002CF2D1D7E73100029815F0ABFD874263
:106F4000DBD90298310015F0B5FD114B0291195CA7
:106F50002800FFF790FFEB68002B05DB39003000BD
:106F600015F098FDBE4211D2039B002B0CD0002CD3
:106F70000AD0019BA34207D220212800FFF77BFF04
:106F8000EB68013C002BF2DA05B0F0BD0600D8E753
:106F9000F6710318F0B59FB00EAB099340230A9326
:106FA00000230E00150007900B930D900C93317881
:106FB0000136002907D10C9B0393002B00DD09E16A
:106FC0000C981FB0F0BD252900D0B3E0002708229F
:106FD000042006E0302B0DD1022300E001231F43E3
:106FE0000E003378711C2D2BF8D0F3D8232B10D042
:106FF0002B2B0CD000240A213378721C1800303857
:10700000092808D84C43303C16001C19F4E7074304
:10701000E6E71743E4E7002103912E2B0ED116007B
:107020000A203278711C1300303B092B06D8039BD1
:107030000E004343303BD3180393F2E70423317827
:107040000A0001369A43682A01D13178F8E7782995
:1070500009D86F290BD8632967D017D8252969D09B
:10706000582900D195E00C9B002BA0DAA3E77039DA
:1070700008000829F7D848F07DFFA500F6FFF6FFC5
:107080009400F6FF8300F6FFF6FF8C006429EAD136
:107090002B681A1D1B682A60DA17981804930123BD
:1070A00050400593092849DC039B059A06939342B7
:1070B00000D20692002C05D0049B002B01DB7B073D
:1070C00000D5013C02231F4202D0039B002B05D0B8
:1070D00001231F4202D1002C36D100240C9B0593C2
:1070E000002BC0DB049B002B3ADA2D215B4204937A
:1070F00009A8FFF7C0FE0C9B002BB4DB03233B4029
:10710000022B05D1039B002B02D1002C2CD1002493
:107110000C9B0593002BA6DB0A22039B0499019785
:10712000009409A8FFF7C6FE9DE72B6819681A1D91
:107130002A60C9B209A8FFF79EFE94E70A2115F05C
:10714000B1FC059B0133ACE7069BA342C6D22021CC
:1071500009A8FFF790FE0C9B013C002BBBDABDE7B2
:107160007B07C8D52B21C3E7069BA342D0D2302191
:1071700009A8FFF780FE0C9B013C002BC5DAC7E78E
:107180000A22296801970B1D2B60039B0094096854
:10719000C7E7296801970B1D2B60039B0094102201
:1071A000F5E72B681A1D2A601C6821780134002934
:1071B00000D158E709A8FFF75EFE0C9B0393002B54
:1071C000F3DA50E729680B1D2B6000230193083385
:1071D0000093E4E70B9A002A03D007980EA900F069
:1071E000D3F80C9B03930B9B0493049A039B944644
:1071F00063440C93E4E63031323334353637383972
:107200004142434445460369C268934201D88068BD
:107210001B18013B981A7047F7B58368C46801933F
:107220001F1B436805000E001819A418974207D8C1
:107230003A0002F07DFF019B6868E41A2200F11910
:1072400002F076FFEC60F7BD0023F7B506001700EB
:10725000C568019100933369B4689D421FD2013B18
:107260005B1B641BBC4200D93C009C4200D91C0043
:10727000736822005819019902F05AFF009B2D19DA
:107280001B190093019B3F1B1B190193B368AB4271
:1072900000D10025F560002FDDD10098FEBD1B193F
:1072A000DDE75465726D696E616C00525454005391
:1072B0004547474552000000032310B5104C1149C3
:1072C00023616361104BA161E361802321660F4953
:1072D000DB0001222362616600231021A362636246
:1072E0002367E366E262A16662670949094802F022
:1072F00033FE2000084902F02FFE2023A37110BDA9
:1073000054080000A2720318D5490000C5490000C6
:10731000AB7203185B080000AF720318F8B51600D3
:107320001822451C55434243164B0F00ED189B187D
:10733000DC6A012C10D0022C1BD0002C1FD128009D
:10734000FFF761FF864205D8320039002800FFF7B9
:1073500063FF34002000F8BD2800FFF754FF34001D
:10736000864200D90400220039002800FFF754FFAC
:10737000F0E732002800FFF767FF0400EAE7002487
:10738000E8E7C04654080000F8B50B4B04001B7832
:107390000E001700002B01D1FFF78EFFEFF31085D1
:1073A000012181F310883A0031002000FFF7B6FF79
:1073B00085F31088F8BDC0465408000010B5FFF7EB
:1073C0007BFF10BDF8B58568078A06000C00481BD6
:1073D000390015F077FB0020814208D10800A54252
:1073E00005D8708A4743ED19AC42A4416042F8BD0C
:1073F000F7B505001C001600002701910898002130
:1074000048F0F6FD280047F0E1F9089BAC60EB601E
:10741000019B6E822B82B74200D1F7BD210028006C
:1074200047F0EAF9019B0137BFB2E418F3E764655E
:10743000765C6D6F64756C655C7374617469635FB1
:107440006275666665725C6C696E6B65645F6275B9
:10745000666665722E630028656C656D2D287569FA
:107460006E74385F74202A297074722D3E627566BE
:1074700029257074722D3E656C656D656E745F7341
:10748000697A653D3D30000070B5050083680C00E9
:10749000C81A298A15F016FB002904D03B22054999
:1074A0000548FFF75DFBAB68298AE01A15F0FAFA88
:1074B00080B270BD2E7403185774031870B50500A0
:1074C00047F0E2F9041E07D001002800FFF7DCFFB7
:1074D000EA68135C01331354200070BD6C696E6B55
:1074E00065645F6275665F68646C5F73616E697422
:1074F000795F636865636B287074722C2875696E98
:1075000074385F74202A2968647229007074722D9F
:107510003E7265665F636E745B6964785D0000004F
:1075200070B504000E00FFF74DFF002804D1312292
:107530000D490E48FFF714FB31002000FFF7A4FFB0
:10754000E36805001B5C002B04D133220649084880
:10755000FFF706FB3100200047F04EF9E268505D6E
:107560000138C0B2505570BD2E740318DC74031876
:107570000C750318038A806859434018704770B52A
:1075800004000D00FFF71EFF002808D0290020008E
:10759000FFF77AFFE368185C431E9841C0B270BDE4
:1075A000A588031825890318CD88031813B50C4C3A
:1075B000A088002813D0FF2807D880225200121A72
:1075C0000630FF21001948F013FD8022054B0649C3
:1075D0001B6820685200019398470023A38013BDC5
:1075E000FC080000A075031802090000F7B50D00A3
:1075F00017000190002D00D1F7BDFF22019B144E12
:10760000934333608023B0885B001C1AA4B2063019
:107610008019AC420FD32A00390002F089FDB188ED
:107620004D19B58000258022B38852009342E1D1E4
:10763000FFF7BCFFDEE72200390002F079FD019B75
:107640002D1B1B190193B3883F19E418B480EAE796
:10765000FC080000144BF7B516001A6844180D001A
:10766000124F94421DD99B889B189C4219D8FF2326
:1076700082420CD91C400C1B002C0AD00C4B310050
:107680001B68A2B20193361998472D1B01E00340F5
:10769000FF18002D04D02A003900300002F048FD08
:1076A000F7BD2C00E8E7C046FC0800000209000016
:1076B000A4750318044B10B51B680003C018034BD6
:1076C0001B68984710BDC046980B0000A8750318AA
:1076D000020030B5080007250121022809D0013039
:1076E00080B20400C308D35C2C4023410B42F4D089
:1076F00030BD0020F5E70A6803001000083030B5FF
:107700001468086000201989814209D19D89A4B2BA
:10771000A54205D15268188A92B2801A4342584154
:1077200030BD0A680300101D0860002019898142DD
:1077300005D01268588A92B2801A43425841704765
:10774000044B010010B50020994202D00248FFF717
:1077500011FF10BDFFFF0000C00B00006465765CE8
:107760006D6F64756C655C74696E7966735C746961
:107770006E7966732E63006F6666736574253235A5
:10778000363D3D300000000030B5CBB204000D00A6
:10779000C1B0002B04D00E4A0E490F48FFF7E0F9A4
:1077A00080210E4B20031C6840196A4600194900CD
:1077B000FFF750FF002369469A008A58013205D12D
:1077C0000133402BF7D1012041B030BD0020FBE751
:1077D0001F0200005C77031877770318980B0000EE
:1077E00010B5010004000548FFF7C9FE002803D0CA
:1077F0002089431E9841C0B210BDC046C00B000096
:1078000013B56B46040019805A8069460422002093
:10781000FFF76AF86B469880044B20031C686A46A1
:1078200006210019FFF7E2FE13BDC046980B0000C9
:10783000F0B5374D87B000936B6801925B1A6B60AF
:1078400080232A8906000C005B019A420FD1AB8984
:107850000020022B01D0013398B2E98906220131C0
:1078600089B2A881E981FFF7CBFF06232B8180270E
:107870002B897F010293AB890393002C40D0244DC8
:107880002B89BB421ED1019B002B04D1009B9A1D6A
:10789000A21892B205E0009B00221B190633BB42DE
:1078A000F4D3AB890020022B01D0013398B2E989CF
:1078B000A881013189B2E981FFF7A2FF06232B815C
:1078C000053B0193124D2989AB892A681B0388184F
:1078D00018180B19BB420CDD3200791AFFF786FE2F
:1078E00029892F817B1AF6180A4BC9186418A4B28B
:1078F000C3E721003200FFF779FE298964182C8143
:10790000029B1804039B0343180007B0F0BDC04658
:10791000980B000000F0FFFF7FB56B465871000A1E
:1079200098716B46D971090A1972092300266B44B4
:1079300001AD1A701400120A29005A703000072293
:107940002E70FEF7D1FF0B236B4418700234000A2F
:107950005870320009212800A3B2FFF769FF04B074
:1079600070BD012330B585B001AC23706B465871F2
:10797000000A987109236B441970090A59706B4603
:107980000025DA71120A21001A7228000722FEF778
:10799000ABFF0B236B441870000A58702A002B00B1
:1079A00009212000FFF744FF05B030BD10B50B4A98
:1079B000FF2113891C000C400B420AD0802040009C
:1079C000041B01335068A4B2FF33001B8B4350608B
:1079D0001381FFF7EBFD200010BDC046980B00009F
:1079E00010B580240B8864019B18A3420CDB03882C
:1079F0000024022B01D001339CB2044B0480D21826
:107A00000B889A180A8010BD0B80FCE706F0FFFF78
:107A100070B50D00141E01D000231360084B98426E
:107A200001D1002070BDFFF78BFE0389002B02D12E
:107A3000038AAB42F6D0002C00D02060C089EDE76D
:107A4000FFFF000010B50C00074B984201D1002049
:107A500010BDFFF775FE0389002B02D0038AA342F5
:107A6000F6D0C089F0E7C046FFFF0000F7B5144F1D
:107A70001D003B680C0006000003C01880231100A5
:107A8000A21800195B019A4203DC2A00FFF7E2FD0D
:107A9000F7BDE4B261186442E4B2CBB22A0021001F
:107AA0000193FFF7D7FD00233868022E01D001367D
:107AB000B3B206301B0301992A19C018E6E7C04685
:107AC000980B0000F0B585B0009200890022019368
:107AD000FFF79EFF0A23071E31D0019B468A1A88B2
:107AE0000323B2422BD302AA941C8288C38803AD1D
:107AF00029002000228009222B80FFF771FF009BC4
:107B0000320029882088FFF7B1FF320029002000C9
:107B1000FFF766FF02AB0633022229882088FFF7B1
:107B2000A5FF320000200099FEF7DEFE02ABDA88E6
:107B30000123904203D17B8A019A1380002318000D
:107B400005B0F0BD010010B5002803D00248FFF7D2
:107B50009BFC10BD0148FCE7C00B0000FFFF0000CC
:107B6000706172656E742D3E6368696C640000001C
:107B700070B5038905000C00002B04D1164A174983
:107B80001748FEF7EDFF002C19D0A2896B8A9A42A4
:107B900005D12000FFF7D6FF2600288109E0E08903
:107BA000FFF7CEFD0400EEE7F089FFF7C9FD061EE2
:107BB00005D0B2896B8A9A42F6D0B44200D170BD2A
:107BC0002389002B03D031002000FFF7D1FFE0898B
:107BD000FFF7B6FD0400F0E79E0200005C77031893
:107BE000607B031870B505000089FFF7A9FD041E2E
:107BF00003D082896B8A9A4200D070BD2389002B02
:107C000002D02000FFF7EEFF2800FFF79BFFA081C6
:107C1000E089EAE7F7B5040000880D00FFF790FD62
:107C200023881F00854230D1628893420FD10123FF
:107C30005B42638023802A890923002A02D16B8A50
:107C40000B339BB20120A288D31AA380FEBD6B899F
:107C5000F0E73800FFF774FD438918000193FFF740
:107C60006FFD060085420FD13800FFF769FD73896B
:107C7000019A43816388934200D167803289092346
:107C8000002ADFD1738ADBE7019F024B9F42E0D1DC
:107C90000020DBE7FFFF000070B5040008000D00C6
:107CA000FFF750FF22880D4B06009A4200D120803A
:107CB000012252426A816088984202D0FFF740FD5B
:107CC000468166802A890923002A02D16B8A0B33F8
:107CD0009BB2A2889B18A38070BDC046FFFF000026
:107CE0007769706500693C3D6E756D00F0B58BB0CD
:107CF000664B00AFB8605A89002306251900644C12
:107D00006448013309182800504320188088091A54
:107D1000B868814217DD9BB27B610023FB610623BB
:107D20005A4D5B4C6A89B9685343E3189B885B18CA
:107D300058495B186968994202D8AB89934212D1BD
:107D4000BD460BB0F0BD022A0BD0013292B29BB2FD
:107D5000032BD5D1504A51495148FEF701FF00236A
:107D6000DAE70022F3E77B69FA69934204D24D4ACD
:107D70004A494D48FEF7F4FE6B893B6106233A6998
:107D80005343E3187B607B681888484B984214D1B2
:107D9000FFF70CFE3869FFF78DFC3C4B3D495A68F4
:107DA00052185A605A890021022A01D0013291B238
:107DB0005981FB6901339BB2B0E7FFF7C1FC062292
:107DC00004008388324853432100C018FFF722FF84
:107DD0002389258AA089002B11D0668AFFF7B0FC81
:107DE0003100428A2800FFF7BCFD60600622A388AC
:107DF000274853432100C018FFF74EFFC3E7FFF7A2
:107E00009FFC628A418A2800FFF786FD3862638AF8
:107E100002339EB263687B626B463B60331C402E2C
:107E200000D940236A469BB2BB610733DB08DB0005
:107E3000D31A9D46FB602623F918023B0922F81845
:107E4000FFF7CEFD002E04D13B689D463B6A636080
:107E5000CCE7BB693D8BB34200D9351CADB22A00DB
:107E6000F98CB88CFB68FFF701FE2623761BF91806
:107E7000023BF8182A00B6B2FFF7B2FD3300012228
:107E80002900F868FFF7D4FCDCE7C046980B000037
:107E9000AC0B0000FA0F0000D70300005C7703185A
:107EA000E07C0318DD030000E57C0318FFFF000001
:107EB000F0B587B001900E890C001500002E2ED071
:107EC0000520FFF713FF09210322638A02A809187E
:107ED00004AE0B701B0A4B70002031003270FEF7AD
:107EE00003FD0B2302AA9B181870000A5870002388
:107EF00005211A003000FFF79BFCE389002D32D0EA
:107F0000EB810620A388210043431848C018FFF7DF
:107F100081FE21001648FFF703FB07B0F0BD0720E4
:107F2000FFF7E4FE0221019B04AF5B8A228A02A8CC
:107F30003970073109180A70120A4A700B22121898
:107F400013701B0A5370390005223000FEF7CCFC79
:107F50000D2302AA9B181870000A587032003300D3
:107F600007213800C7E7019A1381CAE7AC0B00006C
:107F7000C00B000013B5040001AA0089FFF748FDFB
:107F800001000A20002904D02000019AFFF790FF89
:107F9000002016BDF7B50400100015001F000B30BF
:107FA00080B20E00FFF7A2FE2A0039006582208A07
:107FB000FFF7B2FC29000223606001223000FFF7C6
:107FC00037FC2A0031000020FEF78EFC6A460300D1
:107FD0000221901D038001220023FFF729FC0620C7
:107FE000A388210043430248C018FFF755FEF7BDA0
:107FF000AC0B000064656C00F7B5060001920089C7
:1080000000221F000091FFF703FD051E16D0838894
:108010000620434317482900C018FFF7FBFD00283E
:1080200004D1154A15491648FEF79AFD28003A0072
:10803000738A0199FFF7AEFF0020FEBD1148FFF7DC
:108040003DFA04000220002CF7D030002581FFF714
:1080500079FD009BA081238233892000E381FFF713
:1080600071FD3A003081738A20000199FFF792FF79
:108070002800E2E7AC0B0000D10400005C77031895
:10808000F47F0318C00B00000FB473B5104D2E0021
:10809000123607AB288800930E4B984204D1002477
:1080A0000635B542F5D10DE0FFF74AFB009B01A96B
:1080B0000193069B04009847002801D16089EBE7F3
:1080C000002CEDD0200076BC08BC04B01847C04698
:1080D000AC0B0000FFFF0000572F54494E59465388
:1080E0003A6469722072656D6F7665207061727393
:1080F00065207761726E696E673A666C617368209D
:10810000616464723A25780070B50D0091785378F7
:1081100009020D481943FFF7B7FF041E0DD08388ED
:108120000620434309482100C018FFF773FD2100D2
:108130000748FFF7F5F9052070BD2A000120054921
:10814000FEF7EAFCF7E7C04623770318AC0B000004
:10815000C00B0000D8800318572F54494E5946537E
:108160003A7265636F72642072656D6F7665207018
:1081700061727365207761726E696E673A666C61D1
:10818000736820616464723A25780000130070B54A
:108190000D0051789278D87812020A4319790902B1
:1081A00001430C48FFF770FF041E0DD083880620A2
:1081B000434309482100C018FFF72CFD2100074860
:1081C000FFF7AEF9072070BD2A0001200449FEF731
:1081D000A3FCF7E7F7760318AC0B0000C00B000018
:1081E0005881031870747200F7B501919179537931
:1081F00009020700194324481500FFF745FF234EE5
:10820000041E2CD083880620584321003018FFF725
:1082100001FD002805D1CE221D491E48FF32FEF780
:108220009FFC019BA780E380AB786A781B02134315
:1082300023822B79EA781B021343A381AB796A79F5
:108240001B021343144A118A994200D2138206205A
:10825000784321003018FFF71FFD0920FEBD0F48AD
:10826000FFF72CF9041E05D1D22209490C48FF3230
:10827000FEF776FCAB796A791B0213436382012314
:108280005B422381E381CCE723770318AC0B00002A
:108290005C770318F47F0318980B0000C00B0000F4
:1082A000E4810318F7B51500019153789278297984
:1082B00012021A43EB780902070019432148FFF71D
:1082C000E3FE214E041E23D083880620584321005C
:1082D0003018FFF79FFC002805D1D7221B491C4806
:1082E0005200FEF73DFC0620019BA780E380AB799E
:1082F00078436A791B021343301863822100FFF729
:10830000CBFCA8796B79000218430B3080B2FEBD1C
:108310001048FFF7D3F8041E05D1D9220B490E48A7
:108320005200FEF71DFCAB786A781B0213432382D0
:108330002B79EA781B021343A38100232381013B9D
:10834000E381D0E7F7760318AC0B00005C770318E5
:10835000F47F0318C00B0000E481031862617365A9
:108360002025202830783130303029203D3D203004
:1083700000616C72656164795F696E5F6C697374CA
:108380002D3E752E6964213D746F5F696E73657251
:10839000742D3E752E696400F0B5030505008DB09F
:1083A000002B05D0C222A849A8489200FEF7D8FBAE
:1083B000A74EA84B1322142130000093A64BFFF7C1
:1083C00017F8A64C30002560FFF778F8A44B00257D
:1083D00018600123A34AA4495B4241608360C360E3
:1083E00013805380D38013819381D3819F4B05AE3B
:1083F0001B780561337009AB958002930391236864
:1084000006AF2803C0183A000621FFF723F904221B
:1084100039000020FEF768FABB88834209D10122A7
:10842000AA40337813433370029A3B8813807B88C9
:108430005380029B013504330293032DDFD1327840
:10844000002A6AD0002301211000D84005000D4009
:10845000084200D0F6E00133202BF5D180227A4982
:1084600083485200FEF77CFB29003000FFF730F90B
:108470000CAAAB00D3180CA982008A180C3B1B88ED
:108480000C3A1288591C0700914250D09B1A1BB21B
:10849000002B52DD6081A581A5890CAAAB00D31801
:1084A0000C3B1B88E381290005A8FFF711F90500A3
:1084B00083000CAAD3180C3B5C88A31F6D4A9BB2A7
:1084C00093424CD806AB092221002800FFF7CEFAD0
:1084D00002AB1B7C032B33D80E27674AD65C02AB5A
:1084E000023EFF18F6B206AB99190222380001F0DD
:1084F0001FFE3200002006A9FEF7F6F93B889842DD
:108500001ED102AB1B7C5D4A9B0021009B582800BA
:1085100006AA98472418A4B2CFE7594B2282636079
:1085200080235B01A3600223E3600DB0F0BD39003E
:108530003000FFF7CDF83D009AE76581A081ABE7F9
:10854000FF231C4205D0FF230134FF34A4B29C4317
:10855000B3E721002800FFF717F90028F3D03F4ABE
:1085600093899D429FD180205389400114814549C0
:10857000041B9D4223D35B1B02334B431C19394E12
:1085800054603788039B9F421ED13F4B0636B3424F
:10859000F7D1334E012734687F42E089FFF7D0F8E6
:1085A00001002000FFF7E4FA3068FFF7CBFA04007F
:1085B000039B9C4236D13068FFF714FBB5E75D1B87
:1085C000013D4D432C19DAE73800FFF7B9F80400F4
:1085D000234B1B680293029BD889FFF7B1F8051E55
:1085E00006D1029BDB89E381029BDF816789C9E7B2
:1085F0008289A3899A42F4D812D30389002BF0D040
:108600002389002B0CD0428A638A9A4204D11F4AE4
:108610000D491F48FEF7A4FA6A8A638A9A42E0D895
:108620000295D8E72000FFF78BF8C48905002000E9
:10863000FFF786F80028BBD08289AB899A42B7D071
:10864000EF81B5E79DB20FE75C7703185C830318F1
:10865000C00B0000800B0000040A0000980B000013
:10866000940B0000AC0B0000FFFF0000F86B031838
:108670006F830318F90F00004C8803185088031803
:10868000EE2F0000FA0F0000BE0B00007502000084
:1086900071830318F8B504000D0016001F000028B0
:1086A00004D1094A09490A48FEF75AFA2000FFF79F
:1086B00097F803000520002B05D03B00320029006D
:1086C0002000FFF7FFF9F8BD270400005C770318CE
:1086D000DA86031875707065725F64697200000055
:1086E000F7B507000D001600002904D1244A2549DA
:1086F0002548FEF735FA2800FFF772F80523002811
:1087000008D031002889FFF79DF90190002803D097
:10871000082338601800FEBD1C4B1D4A198A04232B
:108720009142F7D01B48FEF7C9FE0223041EF1D088
:10873000164B164A1B8A01339BB213824382068270
:108740002B89C381FFF7FEF901235B422881238136
:108750002800FFF7F7F9A0810920FFF7C7FA6A8A16
:10876000618A3000FFF7FDF80623606080B2434362
:1087700009482100C018FFF78FFA019B3C60C9E748
:108780008D0400005C770318D4860318980B000052
:10879000FFFF0000C00B0000AC0B000064617461BF
:1087A000006C656E67746800F8B504000F00150072
:1087B0001E00002804D1104A10491148FEF7D0F9D4
:1087C000002D04D10F4A0D490F48FEF7C9F9002EBC
:1087D00004D10E4A09490E48FEF7C2F92000FEF7FF
:1087E000FFFF03000520002B05D033002A003900CD
:1087F0002000FFF701FCF8BDEC0400005C770318D3
:10880000DA860318ED0400009C870318EE040000CC
:10881000A187031870B504000D00002804D1084A90
:1088200008490948FEF79CF92000FEF7D9FF03002C
:108830000520002B03D029002000FFF79BFB70BD13
:10884000220500005C770318DA860318090907057A
:10885000A5820318E98103188D8103180981031883
:1088600010B586B002913221002B00D1303902AC14
:108870002171010203980190684600790843039032
:108880003C20217AA2818143080008210143217202
:1088900003482100A37301F033FC06B010BDC046AD
:1088A0001D05000010B5012300F0DEF910BD000029
:1088B00007B5030C01A90B708870030A02484B70BE
:1088C00001F01EFC07BDC046E504000010B500F035
:1088D000D6F910BD10B50021014801F011FC10BD02
:1088E0000D0500007FB5EB23029102A90B710399DE
:1088F00003020191694608793F211843039002ABB6
:108900001B7A07488B4319003D230B4302A90B72C6
:1089100001238A818B7301F0FBFB07B000BDC046C9
:108920009D04000010B500F0B5F910BD7FB50B2314
:10893000029102A90B71039903020191694608791A
:108940003F211843039002AB1B7A07488B43190061
:108950000C230B4302A90B7200238A818B7301F055
:10896000D7FB07B000BDC046B904000007B500231F
:108970000A0001A90B70D3050001DB0F0343034874
:108980004B708A7001F0BCFB07BDC046F9040000C3
:1089900010B586B00292422202AC2271039AC90538
:1089A00001926A46C90D0003084311790002084389
:1089B0003C210390227AA3818A43110008220023DC
:1089C0000A43044821002272A37301F099FB06B008
:1089D00010BDC0462D05000010B586B00292482299
:1089E00002AC2271039AC90501926A46C90D0003BF
:1089F00008431179000208433F210390227AA381A2
:108A00008A4311000C2200230A43044821002272E9
:108A1000A37301F07DFB06B010BDC046C904000081
:108A200010B5541EA241074C12022263012261625A
:108A30002062216B1142FCD1A26A1A60E26A029B99
:108A40001A6010BD0024004010B504000120002C65
:108A50002ED000F0B5FA00F0C3FA0421A279236801
:108A60001007C00F1140000101439007D206800F8C
:108A7000D20F014352020A43DA608022D9681143BF
:108A8000D960A188002900D09960D968914301225A
:108A9000D960D9691143D9610421D8690143D961E9
:108AA0000448210000F0A6FA0020034BE061238374
:108AB00010BDC046BD8A03182020000002220368B2
:108AC00070B51E6B0400DD6A164214D0154212D038
:108AD000027E212A0BD1DA699203D20E07D1083225
:108AE000E189002949D10222996A0A439A62022245
:108AF000996B0A439A6380229200164216D015425F
:108B000014D0A90712D4D9698903C90E08D1996A6A
:108B100020000A439A622023616A237600F084FCD5
:108B2000802322689B00916B0B43936301231E42B9
:108B300022D01D4220D0637E222B1DD11F20302148
:108B400020252268D3691B0A034215D023691268C5
:108B50005E1C26611A70E38A2268013B9BB2E382A5
:108B6000002B16D1D36920008B4320210B43D36106
:108B70006176216A00F068FC70BD0139E181A1686D
:108B8000013A481CA0600978D2B25960002AA7D1E6
:108B9000ADE7072B03D8D3698B43D361D1E7D36902
:108BA0008B432B43F9E7F0B5057E04000220202D0E
:108BB00028D10138002925D0002A23D0636221233F
:108BC000237623680025DE69A2813043C026E56153
:108BD000D861D869013AB043D861986B4136FF3605
:108BE0003043986302209F6B07439F635F6A3E4355
:108BF0005E625E6A304358622800E2814A1CA260CD
:108C00000A785A60F0BD30B5457E04000220202D60
:108C10001ED1013800291BD0002A19D02161002162
:108C20002362E161236822316176D968A2822943F7
:108C3000E282D960D9690843D8613021072A08D86F
:108C4000DA698A43DA6101220020596A0A435A62CA
:108C500030BDDA698A431543DD61F4E700DF704710
:108C600001DF704703DF704710B5EFF31084002C6D
:108C700002D0FFF7F5FD10BDFFF7F0FFFBE710B5E1
:108C8000EFF31083002B02D0FFF712FE10BDFFF7A9
:108C9000E7FFFBE710B5EFF31083002B02D0FFF7DF
:108CA00021FE10BDFFF7DEFFFBE7000070B5836912
:108CB0000400023B1B78072B08D8054A9B009D58EF
:108CC0004168C36882680068A847206070BDC046DC
:108CD000D48C031861880318B18803182D890318F0
:108CE000E5880318D58803186D890318918903183E
:108CF000D989031810B50021044A054847F078F9CE
:108D0000044A0549054801F013FA10BD4006000069
:108D1000C0B900000000000000000818C0B9000041
:108D200080221349D205CB69C1201B021B0A1343C1
:108D3000C02210B5CB610F4B0F49920099500F4ADA
:108D400080001A500E4C04301A5004301C5004306D
:108D50001950C52189005A5004315A50C722094977
:108D600092009950C021084A49005A501A6010BD1B
:108D700000ED00E000E100E08080800080808080E5
:108D80008000808080800000082008C0492F504C5F
:108D9000463A73797320696E6974000013B5FDF764
:108DA000C7FE01201349FDF7B7FEFFF7B9FF124CCC
:108DB000124B05220C2120000093114BFEF718FBEB
:108DC000200000F0D3FF00F017FB00F027FB0D4858
:108DD0000D4B000B0003C018FFF7DEFAFF220B4B10
:108DE000D2001A641A6C0A490A401A6400F0F0FAB8
:108DF00013BDC0468C8D0318240C00001C0C000011
:108E0000E00B000094CA041800D0FFE700100240F5
:108E10000FFEFFFF10B5FFF76DFF00F02BF801F01C
:108E20007FF900F07FF8FFF7B9FF10BD014B186024
:108E3000FEE7C046D84D000070477FB504000D0026
:108E4000160001F07DF903AB2900200032000093E9
:108E500002ABFFF7E5FD01F07BF90298039904B03E
:108E600070BD7047014B18687047C046D84D000070
:108E700001207047174B184A10B51A60174B184A53
:108E80001A60184B184A1A60184B194A1A60194B85
:108E9000194A1A60194B1A4A1A601A4B1A4A1A6070
:108EA0001A4B1B4A1A6002221A4B1A7001231A4AE3
:108EB00013701A4A13701A4A13708022110010009E
:108EC000BD339B0092014901000100F005FD00F057
:108ED00035FC10BD3CBF0000516E0318F0BE000011
:108EE0002D8E0318D4BF0000398E0318C4BF0000B4
:108EF000AD9E0318C0BF0000F59E0318C0B9000066
:108F00003B8E0318D0BE0000FD060000D4BE00005A
:108F10000D070000E9BE0000EABE0000EBBE000045
:108F2000ECBE00000922094B1A70094B094A1A606D
:108F3000094B0A4A1A600A4B0A4A1A600A4B0B4A42
:108F40001A600B4B0B4A1A607047C046E8BE00001F
:108F5000BCBE0000718E0318C8BE000069940318DF
:108F6000CCBE000085940318C4BE0000A194031871
:108F7000C0BE0000A3940318FFF773FF0549064A1B
:108F8000064B9B1A03DD043BC858D050FBDCFDF7B1
:108F90005FFC0000006003180000000038080000BB
:108FA000FEE7C04604207146084202D0EFF3098074
:108FB00001E0EFF30880014908470000AD8C031879
:108FC0008022054BD20199690A439A619A69034943
:108FD0000A409A617047C04600100240FFBFFFFF81
:108FE0008023034ADB01516A0B4353627047C0463A
:108FF00000100240294B70B51C68002C00D118608D
:109000000E68274D274C2848002A23D0AE4208D1AD
:109010008022C025254B12056D005A51244D296030
:109020001A600B68A34208D18022C0241F4B52054E
:1090300064001A511E4C61601A600B68834208D1AB
:109040008022C020194B920540001A5018488160B8
:109050001A6070BDAE4207D18025164A2D05D5672E
:10906000BFF34F8FBFF36F8F0A68A24207D18024EE
:10907000104A6405D467BFF34F8FBFF36F8F0A6840
:10908000824207D180210B4A8905D167BFF34F8FF8
:10909000BFF36F8F00221A60DBE7C0466049000013
:1090A00000380140004400400048004000E100E07A
:1090B0005449000004E100E010B5034B034A1B686B
:1090C0001068984710BDC046604900005449000030
:1090D00010B5034B034A1B685068984710BDC04643
:1090E000604900005449000010B5034B034A1B6857
:1090F0009068984710BDC046604900005449000080
:1091000020222A4B10B519690A431A618022D969B5
:1091100012060A431F21DA611A698A4311001422D8
:109120000A431A611A6922490A401A611A692149D7
:109130000A401A61802219699143196119690A4329
:1091400004211A611C4A986B08422AD0002A28DCA4
:109150008022196852010A431A60DA6A1749184CCA
:109160000A40DA62D96A02222140D9628021D86A93
:10917000C9050143D9621049986B104213D00029E8
:1091800011DC8021986BDA6A890511438022D9624B
:109190001969000691431961DA6AC00E2240DA6249
:1091A00010BD013ACFE70139E6E7C0460074004040
:1091B000FFFFF8FFFFDFFFFF50C30000FFFFFFDFEF
:1091C000FFFFFFBF014B185C7047C046F0930318C8
:1091D00070477047030007221340044AC008D35C5D
:1091E0004000C01A403840B27047C046E8930318A8
:1091F0000F2070470F20704700207047F8B50126F8
:1092000010224021354CF827236D354D334323651B
:10921000236D7F0513432365236D324A0B4323657A
:10922000314B2360314B6360314BA360314BE360C2
:10923000314B236180231B0663618123DB01A36122
:109240002E4BE3612E4B23622E4B63622E4BA362A7
:109250002B781B063B401343E3622C4B23632C4BC0
:109260002365FFF74DFF2B4BC0B21870FFF748FF87
:10927000294BC0B21870FFF743FF1F21C0B22870FE
:10928000E36A264A1340E362E26A2B781B061F401A
:10929000234B13401F43E762226F2B788A430B4016
:1092A000F82113432367226F2B7849011B020B40DF
:1092B0001C490A40134323678023E26A9B0513433A
:1092C00010224021E362236DB3432365236D934352
:1092D0002365236D8B432365F8BDC04600740040B1
:1092E00066490000002064A0000FFCC30F335D60DE
:1092F0000024800F0100C920344020408000001F5E
:109300008C00EE00C82A705A1D01153F441400F06D
:10931000FD6106066449000065490000FFFFFFDFAC
:10932000FFFFFFE0FFE0FFFF10B5FFF767FF194BFE
:10933000194A1A491A601A4A5A601A4A9A601A4A0D
:10934000DA601A4A1A61802212065A6180229A61F2
:10935000174ADA61174A1A62174A5A62174A9A621A
:10936000174ADA62174A1A63174A1A65174B9A683E
:1093700011408022D2040A4380219A601A6AC900EF
:10938000520B52030A431A628022196A92010A435D
:109390001A6210BD007400403F01FEC3FFFF00E0F1
:1093A0000F335D600024800FC100C92005402040BC
:1093B0008000001F8C00EE00C82A705A1D01153F66
:1093C000002064A7447400F0AC61060600780040F9
:1093D000C023044A10B5116ADB050B431362FFF783
:1093E000A3FF10BD001002402B251F19130D07010C
:1093F000E9ECEFF2F5F8FBFE8022064B920059698A
:10940000054811435961596901405961196A0A4374
:109410001A62704700100240FFFDFFFF0423014A5B
:109420001A60704737070000054A030010B50800AE
:109430009A4203D1034B00211B68984710BDC046D8
:109440006849000094490000054A030010B508006F
:109450009A4203D1034B00211B68984710BDC046B8
:10946000684900009049000010B5044C22608AB29F
:1094700001000348FFF7C7FB10BDC046904900003C
:109480006849000010B5044C22608AB2010003480C
:10949000FFF789FB10BDC0469449000068490000F1
:1094A000704701207047000010B5FFF7B3FC1F2282
:1094B0000848094B0360094B8380837993431A0062
:1094C000032313438371FFF7BFFA00F0EBFA00F0B8
:1094D00009FBFCE7684900000038014082060000F3
:1094E0000020704700207047002070470020704720
:1094F0000020704700207047002070470020704710
:1095000000207047002070470020704700207047FF
:1095100000207047002070470020704700207047EF
:1095200000207047002070470020704700207047DF
:1095300000207047002070470020704700207047CF
:1095400000207047002070470020704700207047BF
:1095500000207047002070470020704700207047AF
:10956000002070470020704700207047002070479F
:10957000002070470020704700207047002070478F
:10958000002070470020704700207047002070477F
:10959000002070470020704700207047002070476F
:1095A0000020704700207047C3B210B5462B21D869
:1095B0000020132B25D9153B1800312B25D846F058
:1095C000CFFC2843463D40211E2B2E373A313449EB
:1095D0004C4F5255585B615E67646D6A7F7C858233
:1095E00073707976888B8E919497A0A39A9DA6A983
:1095F000ACAFB2B50020C82B03D14E4B06E0FFF74D
:109600006FFF10BDFFF76EFFFBE74B4B1B689847E2
:10961000F7E7FFF769FFF4E7FFF768FFF1E7FFF708
:1096200067FFEEE7FFF766FFEBE7FFF765FFE8E7A9
:10963000FFF764FFE5E7FFF763FFE2E7FFF762FF8D
:10964000DFE7FFF761FFDCE7FFF760FFD9E7FFF730
:109650005FFFD6E7FFF760FFD3E7FFF75BFFD0E7D9
:10966000FFF75EFFCDE7FFF759FFCAE7FFF75AFFA5
:10967000C7E7FFF759FFC4E7FFF758FFC1E7FFF758
:1096800057FFBEE7FFF756FFBBE7FFF755FFB8E709
:10969000FFF754FFB5E7FFF753FFB2E7FFF752FFBD
:1096A000AFE7FFF759FFACE7FFF758FFA9E7FFF770
:1096B00057FFA6E7FFF756FFA3E7FFF745FFA0E731
:1096C000FFF744FF9DE7FFF743FF9AE7FFF742FFED
:1096D00097E7FFF749FF94E7FFF748FF91E7FFF7A8
:1096E00047FF8EE7FFF746FF8BE7FFF745FF88E769
:1096F000FFF744FF85E7FFF743FF82E7FFF742FFED
:109700007FE7FFF74DFF7CE7FFF74CFF79E7FFF7B7
:109710003BFF76E7FFF73AFF73E7FFF739FF70E7A4
:10972000FFF738FF6DE7FFF737FF6AE7FFF736FF10
:1097300067E7C0469C49000098490000014B024A77
:109740001A607047A0BA0000A995031810B5044B21
:10975000044A19680448FEF7C3FF002010BDC04644
:10976000940B0000FEFF0000A049000073B5060046
:109770000C001500002813D11A222A492A48FDF7A7
:10978000EFF96A4623782948D3806B462A0000689F
:10979000B1B20633FEF77EFF00283ED0012023E061
:1097A00001381128EDD846F0D1FB09ECECECECECDB
:1097B0002EECECECECEC152020EC2B2B0B780420A1
:1097C000052B11D906221C300A702900FFF7AAF8D0
:1097D000002009E00B780420012B05D9022300208A
:1097E0000B7030331370507076BD0B780420012B52
:1097F000FAD902230B70DA331370D73B6B70E7E7AB
:1098000001231370E4E70B780420012BECD9022329
:109810000B70F2331370F33BF0E76B46DB88237079
:10982000E2E7C046AC9D0318C49D0318A0490000A0
:1098300010B5041E0DD15A220E490F48FDF790F9BC
:109840000E4BA1B21868FEF7E5FF431E9841C0B267
:1098500010BD01381128F3D846F078FB09F2F2F276
:10986000F2F209F2F2F2F2F2090909F2090905200D
:10987000EEE7C046AC9D0318C49D0318A049000044
:1098800070B504000D00160000280FD173220F4997
:109890000F48FDF765F90F48ABB232000068A1B27E
:1098A000FEF782FF431E9841C0B270BD01381128F7
:1098B000F1D846F04BFB09F0F0F0F0F009F0F0F0D1
:1098C000F0F0090909F009090520EEE7AC9D03183D
:1098D000C49D0318A0490000F0B5354C354D2560F6
:1098E000354C364D2560364C364D2560364C374D5F
:1098F0002560374C374D2560374C384D2560384C46
:10990000384D2560384C394D2560394C394D25602E
:10991000394C3A4D25603A4C3A4D25603A4C3B4D16
:1099200025603B4C3B4D25603B4C3C4D25603C4C01
:109930003C4D25603C4C3D4D25603D4C3D4D2560EA
:109940003D4C3E4D25603E4C3E4D25603E4C3F4DCE
:1099500025603F4D3F4C25603F4C404D404E2560BB
:10996000404C414D2560414C414D2560414C424D9C
:109970002560424C424D2560424D434C2560840891
:10998000A7007F1937608E083619404FB40064195C
:109990003C609408A419A40064193D4D2C603D4C12
:1099A00020603D4801603D490A603D4A1360F0BDBA
:1099B00040BA00003C0D000044BA0000400D000019
:1099C000F0B900004C0D000048BA0000440D000042
:1099D0009CBA00008C480000F4B90000500D000053
:1099E000DCB900004C480000E0B90000504800001D
:1099F00050BC00006048000054BC0000C848000093
:109A000048BC0000380C00004CBC0000F80C000002
:109A100088BD0000544800008CBD00005C48000078
:109A200090BD0000F00C00008CBE0000E80C0000AF
:109A3000A8BE00000C0D000090BE00008048000091
:109A40009CBE00002049000080BC0000A04800002F
:109A5000580C000078BC00007CBC0000140D000015
:109A6000ACBE0000A4BA0000080D0000C4BA00009B
:109A7000884800002CBC00001049000060BF0000B6
:109A800028490000540D0000B0BE0000B4BE000024
:109A9000B8BE0000DCBE0000D8BE0000E0BE000082
:109AA000E4BE000010B5FFF751FE094B094A0A4811
:109AB0001A600A4A5A600A4A9A6000F029F8FFF7C9
:109AC000D1F943F017F800F063F962B610BDC04653
:109AD000F4BE00006D97031804BF000081980318BE
:109AE0003198031810B543F099F8034B1B68984759
:109AF000024B1B68984710BDD0BE0000D4BE0000CA
:109B00000723024A11680B4313607047300000506E
:109B10000023F0B5040003624362734B8BB04361D2
:109B2000FFF76AFB23002C331870FFF763FB230059
:109B300094222D3318706D4BD203A3626C4BFF2619
:109B400023606C4B6C4863606C4BC027E3616C4BCB
:109B5000BF02A3616B4B6C4C1A606C4B6C4A1A6071
:109B60006C4B6D4A1A606D4B6D4A1A606D4B1A68EA
:109B70001202120A1A605A221968B1430A43C0211C
:109B80001A601A68C90002400A431A60B4221D68AC
:109B9000D20325402A431A60634B64491A688C46F5
:109BA0000A403A431A607F221D68502195436B3A60
:109BB0002A431A60A0221D68120105402A431A6038
:109BC0005B4BA0251A68ED031202120A1A601A688C
:109BD000B2430A43C0211A601A68C90002400A430E
:109BE00061461A601A6822402A431A60514B1A686B
:109BF0000A403A431A607F221F6850219743783AFF
:109C00003A431A60C0221F68920007403A431A6024
:109C1000494A4A4F13681B021B0A13603B68B3434F
:109C20000B43C0213B603B68C90003400B433B60D2
:109C30001368614623401D431560C025404BAD04A9
:109C40001F683F023F0A2F431F601F680F40C0215B
:109C500089020F431F601F6839007F27B943693F9E
:109C60000F431F60374B1F68BC466146364F394073
:109C70009827BF010F4350211F601768B7430F4358
:109C8000C02117601668C9003040014311601A688E
:109C90007F271202120A15431D601A682240C82449
:109CA000E403144336221C601968B9430A431A605E
:109CB00025236A461370243B69465A1ECA54013351
:109CC0000C2BF9D11A330B73193B69469A1ECA54EF
:109CD0000133272BF9D102AAD3771C48282200F0A0
:109CE00027FA0BB0F0BDC046C5910318019B0318BD
:109CF000D1910318D3910318FF80FFFFD59103186A
:109D0000F191031870000050FFFF00FF7400005035
:109D100020500000780000504000C0C87C00005077
:109D200000E400E48000005090000050FFFF80FF3E
:109D30008400005094000050880000508C000050B7
:109D40009C00005098000050FF00FFFF00410050B1
:109D5000054B013810B5C1B21868FDF70BFC43681C
:109D60008068984710BDC046A4490000014B1860A8
:109D70007047C046A449000010B548680B68984772
:109D8000002010BD10B5FFF7E3FF002010BD00005C
:109D900010B5044B044918780930C0B244F028F8D3
:109DA00010BDC046EABE0000C89D0318737461630D
:109DB0006B5C6578706F72745F6C69625C6E766400
:109DC000732E630074616700D49D0318A8490000D6
:109DD00001000200FFFF0000859D031800540000F1
:109DE000799D0318F0B515042D0C0F0001002E000D
:109DF000C64684460004140C000C090C46434D432F
:109E0000604361434019340C241800B5A54203D9BE
:109E10008020400280464144250C6D18614659431C
:109E20007A43300449192404000C2018891804BC12
:109E30009046F0BD084B10B50400002B02D0002165
:109E400000E000BF054B1868836A002B00D09847DC
:109E5000200000F053F9C04600000000609E031887
:109E6000C400000070B500260C4D0D4C641BA410FE
:109E7000A64209D10026FCF7DFFC0A4D0A4C641B00
:109E8000A410A64205D170BDB300EB589847013627
:109E9000EEE7B300EB5898470136F2E70000000008
:109EA0000000000000000000000000000D4B70B535
:109EB0001D680400AB6B002B0FD1182000F054F884
:109EC000094BA8630360094B01224360084B836080
:109ED0000B2383810023026143610022AB6B1C6171
:109EE0005A6170BDC00000000E33CDAB34126DE678
:109EF000ECDE0500124B10B51C68A36B002B0FD1D4
:109F0000182000F031F80F4BA06303600E4B0122C4
:109F100043600E4B83600B23838100230261436106
:109F2000A46B0B4A206961690A4BFFF75BFF0122B2
:109F3000002380185941206161614800400810BD2C
:109F4000C00000000E33CDAB34126DE6ECDE050030
:109F50002D7F954C2DF4515803000A7801311A7069
:109F60000133002AF9D1704710B5034B010018687E
:109F700000F004F810BDC046C0000000F8B503238F
:109F8000CD1C9D43083506000C2D1FD20C25A9427F
:109F90001ED8300000F094F825490A681400002CFF
:109FA0001AD1244F3B68002B04D12100300000F06F
:109FB00043F838602900300000F03EF8431C2BD1F4
:109FC0000C233000336000F083F803E0002DDEDA6C
:109FD0000C2333600020F8BD23685B1B19D40B2BC6
:109FE00003D92360E418256003E06368A2420ED120
:109FF0000B60300000F06CF8200007220B30231DAE
:10A000009043C21A9842E6D01B1AA350E3E753606C
:10A01000EFE722006468C2E70323C41C9C43A0420C
:10A02000E1D0211A300000F007F8431CDBD1C7E76C
:10A03000AC490000B0490000002370B5064D040093
:10A0400008002B6000F04CF8431C03D12B68002B58
:10A0500000D0236070BDC046B84900000000000079
:10A0600000000000000000000000000000000000F0
:10A0700000000000000000000000000000000000E0
:10A0800000000000000000000000000000000000D0
:10A0900000000000000000000000000000000000C0
:10A0A00000000000000000000000000000000000B0
:10A0B0000000000000000000000000007047704732
:10A0C00010B50248FFF7FAFF10BDC046C0490000B6
:10A0D00010B50248FFF7F3FF10BDC046C0490000AD
:10A0E000044A03001068002802D0C31813607047A8
:10A0F0000148FAE7B4490000E04D0000FEE7C04621
:10A1000001B40248844601BC604700BF0906000054
:10A1100001B40248844601BC604700BFE10500006D
:10A1200001B40248844601BC604700BF3505000009
:10A1300001B40248844601BC604700BF010800002A
:10A1400001B40248844601BC604700BFFD06000020
:10A1500001B40248844601BC604700BF0D070000FF
:08A16000F0C6FF7F01000000C2
:020000041804DE
:10CA940010B5024B00221B68984710BDC0B90000B6
:10CAA40010B5024B01221B68984710BDC0B90000A5
:10CAB40010B5024B00221B68984710BDC0B9000096
:10CAC40010B5024B01221B68984710BDC0B9000085
:10CAD400F8B5092031F016FB114D2E68002E1CD13B
:10CAE400F8BD3B00A3401E4203D02000C9B200F0B1
:10CAF4001DFA0134E4B20B4B1B78013B9C4202DA71
:10CB040029890029EDD12B68002BE9D02B89002B32
:10CB1400E6D0092031F0D4FAE2E700240127EAE75D
:10CB2400C4B90000E9BE000010B5040001280ED00D
:10CB3400022809D0002803D10920084931F0A4FAB9
:10CB4400200000F03DF910BD092031F0DBFA0C2281
:10CB54000021034833F04AFAF2E7C046D5CA041864
:10CB6400C4B9000010B500F031F810BD024B988034
:10CB7400D98019817047C046C4B90000014B188997
:10CB84007047C046C4B9000070B50125094C854002
:10CB9400236800290BD01D4205D12389002B02D024
:10CBA400092031F08DFA23681D43256070BDAB4325
:10CBB4002360FBE7C4B9000010B504000021FFF7AF
:10CBC400E3FF0021200000F089F810BDF8B5184FEC
:10CBD40086003B6804009B59002B05D00022154BAE
:10CBE400110001201B6898470423200218430021E8
:10CBF40031F054F90021382030F004FF041E08D12C
:10CC04000C4B020001001B68012098473B689C51B3
:10CC1400F8BD002520C031F0D7FD2000E560A576E1
:10CC2400103031F0D1FD0423E5762377EEE7C046DA
:10CC3400DCB900003CBF000070B5042400020443CA
:10CC4400200016000D0031F095F9002E05D0284380
:10CC5400C1B2200031F022F970BDA843F8E700000A
:10CC6400F8B50D00110004221C0006AB1E8800025A
:10CC740007AB1F8802430623044830F08FFD05707C
:10CC840087804680447030F0ADFDF8BD040A000092
:10CC9400F7B51300104A0D00126881008E58040085
:10CCA400002E17D0002D15D1316800290DD00F00AA
:10CCB40005200C3F3A890978009001952000FFF780
:10CCC400CFFF380030F0BEFD356000220121200086
:10CCD400FFF7B2FFF7BDC046DCB90000F0B5334F33
:10CCE40087B0830004933B6882009D5804220302AA
:10CCF4001A43040003910592002D27D02C481100FB
:10CD040030F0CAFC2868002807D0039B002B23D1ED
:10CD1400462219002000FFF7BBFF012629690029DC
:10CD24001ED1E868002801D030F0F8FE214AAB7E1D
:10CD340011895B1813816E68002E17D13B68049A21
:10CD4400985830F0EBFE3B68049A9E503F210598BA
:10CD540031F0A4F807B0F0BD0C3830F073FDDCE717
:10CD6400039A2000724001F00DFFD7E7281D31F02F
:10CD740089FD039B0600002B0DD182880E4B9A423D
:10CD84000DD1039B02890193438A0621009320005D
:10CD94004623FFF765FF300030F0C0FECBE7074BBA
:10CDA400210002201B689847F5E7C046DCB9000063
:10CDB400140A0000C4B90000120A00003CBF0000BD
:10CDC40070B5040001282FD002282BD0002814D1DC
:10CDD4001A491B4B1B4D0B601B4B04201B6804267C
:10CDE4004B602B78013B0B81184B1B884B8130F037
:10CDF400FDFF2B78013B9C4200DB70BD20023F21EC
:10CE04003043013431F04AF8E4B2F2E72000012162
:10CE1400FFF764FF0134E4B20A4B1B78013B9C42E8
:10CE2400F4DBEAE70024F7E7064B00211A78084B05
:10CE3400013A1868920033F0D9F8DEE7D0B900005F
:10CE440044DA0418E9BE0000E0B90000ACDA0418C2
:10CE5400DCB900000F4B70B51B688200D5580E4B2F
:10CE64000C001B78013B984205DB00220B4B1100A0
:10CE740001201B689847002C05D00022074B1100A5
:10CE840001201B689847A4006359181E00D0187825
:10CE940070BDC046DCB90000E9BE00003CBF000024
:10CEA4000D4B70B51B688200D5580C4B0C001B78D9
:10CEB400013B984205DB0022094B110001201B684D
:10CEC4009847002C05D00022054B110001201B6857
:10CED4009847A400605970BDDCB90000E9BE0000A9
:10CEE4003CBF00000E4B70B51B6815008200D6587D
:10CEF4000C4B0C001B78013B984205DB00220A4BCB
:10CF0400110001201B689847002C05D00022064B15
:10CF1400110001201B689847A400A55170BDC046AC
:10CF2400DCB90000E9BE00003CBF0000F0B5AB4B2B
:10CF340082001B688FB0D358070008910493002B1C
:10CF440000D143E15C68231E02D00B005A1E9341BA
:10CF5400042206933B021A430B92069B002B00D13A
:10CF64002CE1162308AA9B1800221A8015230125F8
:10CF740008AA9B181D7014F049FB0590002805D1E0
:10CF8400974B020001001B6828009847954A059BAF
:10CF9400944663440993A188934B994235D0934BAB
:10CFA400994200D0A9E0152208ABD218E3892000E9
:10CFB400591E8B4113700092162208A952182100A1
:10CFC400099B0E31103000F0E5FD0300051E03D16E
:10CFD400228A002A00D095E0002122890191618AE9
:10CFE400380000910621FFF73BFE049B181D31F029
:10CFF40049FC200030F026FC002D00D17BE0059890
:10D0040014F05EFB00230693D4E002213800228A48
:10D0140001F09CFD061E00D1DCE0431CDB7FDB0736
:10D0240000D4D5E0438BE5890793A38A0A93002DA6
:10D0340016D11D00079B02359D4200D91D00ADB2DB
:10D04400B18B002904D1664B0A0001201B68984764
:10D05400B38B013BB383638A0133638200230EE005
:10D06400A81C0799FFF72CFD079B0A9A5B1A551B0E
:10D074009D4200D91D00ADB28BB20029E0D05A1EEA
:10D084009341152208A9DBB2521813701622029399
:10D094002300521821000E33019500933800099B98
:10D0A400103100F003FD051E03D1E289A38A9A42E0
:10D0B40015D1B37B618A2289380001910093042140
:10D0C4002B00FFF7CDFD049B181D31F0DBFB200086
:10D0D40030F0B8FB002E8FD0002373608CE7B58B43
:10D0E400002D0FD102230136F27F1343F377049B03
:10D0F400181D31F0C7FB069504E0394B3A000320B4
:10D104001B689847380007F001FA082301000B9ABE
:10D11400374830F043FB162308AA9B1819880500EA
:10D124004180002904D12E4B0320A2881B68984714
:10D13400059B38006B6007F0E9F9000B08D0284B19
:10D1440038001E6807F0E2F92A4902000320B047BC
:10D1540038002E8807F0DAF91523360B360336B279
:10D16400064308AA2E809B181A78234E13033342D1
:10D1740005D0C0211A4B03201B68890198472B88CE
:10D1840008AA1E4015239B181B7828001B031E4366
:10D19400B604B60C2E8010F073FD184A0899138952
:10D1A4000139013B1381049B049A9B7E01339376DE
:10D1B400CBB20893089B002B00D0CEE6049B38002A
:10D1C40059684B1E9941C9B2FFF7DEFC0FB0F0BDA0
:10D1D40033256EE73325237C6CE7C046DCB90000B9
:10D1E4003CBF0000004000500D0A0000120A00007D
:10D1F40006110000FF0F0000FFCFFFFFC4B90000BD
:10D2040010B5024B1B68984710BDC046C0BF000054
:10D2140000207047F7B510000D0014001E0030F018
:10D22400A9FE240A462329783F2803D04B1F5A1EFF
:10D23400934142330027E879AA7900020243019717
:10D24400200000923200FFF70BFD3800FEBD73B5DD
:10D2540010000E00150030F08DFE00243F280AD087
:10D26400F388052B07D13378280AA34205D1311D51
:10D2740001F008FC0400200076BD332BFBD0717A4A
:10D28400312B05D1012200941A3B01F093FBF2E704
:10D294000029F0D0230022000094F6E7F0B50888B6
:10D2A40089B00005000D059107F014F90600FF2868
:10D2B40058D04E4B82001B68D558059B59684C4B7F
:10D2C400CB180793002904D14A4B0A0001201B689C
:10D2D4009847059B02AA5B885382059B1B889B0485
:10D2E4009F0F002D05D1434B2A00290001201B6804
:10D2F4009847012F04D0022F34D1300000F0E4FE0F
:10D30400EA7E2B7F9A4208D2122302AA9B181A00A3
:10D31400300007A900F038FF0227EC68002C21D068
:10D32400A188354B994225D0344B994258D1029764
:10D3340002AB5B8A22000193079B210000932B0020
:10D34400300018330E32103100F066FD002802D18F
:10D354002B8B002B06D10023EB60207320000C30B4
:10D3640030F040FA059B586880B214F0FFF80020B2
:10D3740009B0F0BD2A0002AB18325B8A0192220088
:10D3840021000E32029700923000079A103100F00B
:10D39400C3FB071E02D12B8B002BE3D101213000EC
:10D3A400228A01F0D3FB011E16D0431CDB7FDB076E
:10D3B40012D5002F0BD1E289A38A9A4204D1876047
:10D3C40020000C3030F00EFA0023EB60CAE73A007C
:10D3D400300001F02DFCF7E7E86830F09FFBF3E73D
:10D3E400044B320003201B689847BBE7DCB90000FC
:10D3F400004000503CBF00000E0A0000130A000069
:10D4040070B510000D00140030F0B4FD3F2808D0B2
:10D41400240A00212000FFF71DFD01280DD0022859
:10D4240001D0002070BD01216A88200001F08EFB2C
:10D4340001220100200001F0A5FB4522002120006B
:10D44400FFF726FCEDE70000F7B5150010000C000F
:10D454001F0030F08FFD2D0AEEB23F2838D023781C
:10D46400042B0BD043230025A2883000009221789E
:10D474003A000195FFF7F4FB280022E00121300077
:10D48400A28801F063FB002824D04368002BE9D173
:10D494002189028B91421FD844606380C38AA38090
:10D4A400838B002B0ED021000C4BAD001B680C3974
:10D4B400E858043031F09EF901213000FFF764FB95
:10D4C4000120FEBD02230130C27F1343C377F7E777
:10D4D4004623C8E73323C6E73123C4E7DCB9000099
:10D4E400F7B5140010000D001E0030F043FD220AB1
:10D4F4002978D7B23F2813D04323062911D1290014
:10D504000D4B92001B680C39D058043031F072F97D
:10D5140038000121FFF738FB002301206B80FEBD9A
:10D5240046230024EA883800009201943200FFF771
:10D5340097FB2000F3E7C046DCB90000F7B5009183
:10D54400132B0FD1FFF71AFB0024009B01909D1CA5
:10D55400009B1B78A34207D8019B002B02D1092012
:10D5640030F0AEFD0020FEBD288806F0B3FF0200B7
:10D57400FF2814D00C4F86003B689B59002B04D124
:10D584000A4B032029881B689847094B69881A8924
:10D594008A181A813B689A59937E5B1A93760134F0
:10D5A400A4B20235D4E7C046DCB900003CBF000099
:10D5B400C4B90000F0B5100087B00D00049230F03B
:10D5C400D9FC3F2800D179E0049B02211F0A3800CE
:10D5D4002A8801F0BBFA041E00D16FE0AB7837262D
:10D5E400002B36D0431CDA7F012316001E401A425A
:10D5F40000D072E02B8905930BF0EEFD059B984259
:10D6040000D26CE02B89162B00D868E06B89059357
:10D614000BF0E8FD059B984200D262E06989162967
:10D6240000D85EE0288908180130FFF739FAEB8842
:10D63400984258DAAB88002B43D0AA881300403BA9
:10D644003F2B52D80121380001F080FA002800D085
:10D654003E26AB883000E3812B8923826B89638269
:10D66400EB88A38201F054FA0100208AE21CE389CA
:10D67400D27F0290608A0190A08A0090380001F065
:10D684001FFBAB78002B12D00C23E18B049A1B48B0
:10D6940030F084F8A38906704380E3898380A38BE8
:10D6A400C380238B0381638B438130F09BF8002E6E
