:020000041806DC
:101D300010B5024B01221B68984710BDA4BA0000E1
:101D400010B5024B00221B68984710BDA4BA0000D2
:101D500010B5024B01221B68984710BDA4BA0000C1
:101D600010B5024B00221B68984710BDA4BA0000B2
:101D7000F8B500262A4D04002E701CF0ADF8294B52
:101D800030001A68284B92B219681BF041FD274BAE
:101D900001201A68264B92B219681BF039FD254BB9
:101DA00002201A68244B92B219681BF031FD287882
:101DB0001CF034FE214930001DF06CF8287800F04A
:101DC0008BFA287803F00AFB28781BF085F8B442D8
:101DD00009D01B4B9C4202D01A4B9C4208D11A4B93
:101DE00020001B68984701232B701AF09FFFF8BD55
:101DF00001231022310015481BF08AFC144B070008
:101E00009C4205D101230370380000F0A3F9EAE7F2
:101E1000104B3200210003201B689847F4E7C046AE
:101E200020BF0000C8BE0000A0BE0000CCBE000065
:101E3000A4BE0000D0BE0000A8BE0000ACCD0718B4
:101E4000A5A5A5A5C3C3C3C3D8BE00000311000048
:101E5000F2F2F2F224BF0000F7B51022664B1D68C3
:101E600015420BD00121654B49421A60644B196041
:101E700064490B6893430B6002F010FC202215426A
:101E80000BD001215D4B49421A605D4B59605D49A1
:101E90000B6893430B6002F031FB0124254234D0E0
:101EA000564B574E1C60738B23422ED068461AF057
:101EB000D9FF544B009F1A68A2431A6032681C0075
:101EC000531C0AD0974208D1012310225B42336091
:101ED00023689343236002F0E1FB73685A1C0AD025
:101EE0009F4208D1012320225B4273602368934301
:101EF000236002F003FBB3685A1C03D09F4201D158
:101F00001AF06EFF01201BF0F3F880242402254212
:101F100003D002F06DFD394B1C6002231D4249D0F5
:101F2000364E08203360384B1F681BF0E1F8012063
:101F30001AF0BEFF354B9F4205D90022344B1100E9
:101F400001201B6898473D242D4AF9001369FB18AE
:101F500067435B18180A3F18DBB2136138002D493C
:101F6000FFF7EEFE80232C4A1B06034313609C23DD
:101F7000284C9B004443E41BE418A4B2A30A05D0F8
:101F80000022234B110001201B6898470821234B96
:101F9000234A1C6013680B4313601A4A21491368D3
:101FA0000B400121136013688B430B4313603160B6
:101FB0001CF0CAFF40231D4203D0104A13601AF0E0
:101FC0000FFF042425420BD00C4B10201C601BF08B
:101FD0008FF80C4A01201368A34313601BF00CFF19
:101FE0000822154207D0054B06491A600B68934337
:101FF0000B6002F0FBFAF7BD1C00005020000050FF
:1020000034BF000018000050380000507F841E00CC
:1020100024BF000071020000440000504000005046
:1020200030000050FFFFFF8F70B580256D020B4A16
:102030001368002B11D02B42FAD0094B094C1D60BC
:10204000094B032019681A682368120C984700226C
:102050000120110023689847E9E770BD1000005087
:102060001400005024BF00006000005010B5034B66
:102070005B8BDB0701D41BF003FF10BD34BF0000F6
:102080000120704701207047F8B507000E001500C9
:10209000034C20001CF0FEF9A760E6602561F8BD46
:1020A0005CBF0000F0B59C27002685B00090019130
:1020B000BF00124D009B6A6901369C18019BAA69FA
:1020C00024019B182409BB4204D90D4A0134240180
:1020D00024099B186C61AB6102A81BF09BF9029B61
:1020E00001331C1B074B240124099C42E1D9686978
:1020F000A9691BF021F8300005B0F0BD5CBF0000FD
:1021000090FDFFFFFEFFFF0773B56C460E00050054
:1021100020001BF07FF9044B2800143306CC06C3C3
:102120003100FFF7BFFF73BD5CBF0000083810B57A
:102130000100040006481CF015FA002807D0A0880A
:10214000FF22E1881BF020FB20001BF005FC10BDE6
:102150005CBF0000F8B506000C3883881D4A934226
:1021600005D01D4A934223D000F02AFB1FE0037ADA
:102170003F2B1FD85A1ED2B21849D4080F5D07242E
:102180000125224017412A00BA432F420BD03E2B93
:1021900009D13278013AD3B2DA0889180A7C23408F
:1021A0001A4195432A00002ADED01BF0F4FAF8BD4C
:1021B0003E23DFE7582BD7D8403BDBB2074AD9088C
:1021C00052180721127A0B401A41130001229A4338
:1021D000E9E7C0460311000004110000ACBA00009A
:1021E00070B50C4B04001A78824204D80A4B0100E7
:1021F0001B6803209847094D2B681B5D002B05D0F9
:102200000022054B110001201B68984701222B6812
:102210001A5570BDD4BE000024BF0000A8BA00004B
:1022200070B50C4B04001A78824204D80A4B0100A6
:102230001B6803209847094D2B68195D002904D1BC
:10224000054B0A0001201B68984700222B681A558D
:1022500070BDC046D4BE000024BF0000A8BA000074
:10226000030010B504292AD808001CF079FE0303E6
:10227000091023000A000320144B1B68984717E03D
:1022800008221900124880181CF096FE10E0104C2D
:102290001900200008221CF08FFE002320000D4CA6
:1022A0000278195D01330A4302700130082BF7D11F
:1022B000002010BD0648082219001030E4E7002273
:1022C000024B110001201B68D8E7C04624BF000064
:1022D000ACBA00003C23061870B5022305000400C8
:1022E0009D4315D1182229000B481CF081FE0B4B91
:1022F00029001A780A4B18681CF07AFE0321094855
:10230000FFF7AEFF04210848FFF7AAFF01F02CFEFB
:10231000200000F0D9FA70BDACBA0000D4BE0000B5
:10232000A8BA00002C23061834230618FFFFFFFF6D
:10233000FF9F00201F00000000000000006004005C
:10234000F8074002F0B5A54B87B01C68002C09D1F6
:1023500001F04CFE002800D18BE0A04B9C68002CC3
:1023600000D186E09D4B1C61A1889D4BC8180528B3
:1023700000D92AE11CF008FE060058007F00D000BA
:1023800029011101954B5B7D5BB2042B02DC934A62
:10239000013353750E26E31D0393258902ABF6180E
:1023A00063892800338001F0EDF9021E1FD03388C5
:1023B000002B1CD08768002F17D0200092780C309B
:1023C0007F2A0DD80100320000971BF0FDFD0100AF
:1023D000002910D02A00834B1B68032098470AE08D
:1023E00001003200B847C1B2F2E70421F2E7002D44
:1023F00015D0012323730E23E3713288774B033208
:10240000D2B222725B7D191C5BB2002B00DA002174
:10241000A5722D0A6172E5720420023222E0714B2E
:10242000290032881B68D8E76C4B5B7D5BB2042BBC
:1024300002DC6A4A013353750F22E31D0393E271F4
:102440000B3A23892272227B6272644A527D111CEC
:1024500052B2002A00DA002104200622E3721B0A8D
:10246000A172237300235D490B755F4B03991CF028
:102470003DFD07B0F0BD23000E270A33039302ABE6
:102480002189FF186389CEB23B80FF2904D9554BBF
:10249000002203201B689847300001F0A5F9021EB6
:1024A00033D04568002D19D0200092783B880C303D
:1024B000002A0ED100953A0001001BF085FD0500B1
:1024C000002D0ED0474B3200290003201B6898478F
:1024D00008E03A000100A847C5B2F1E76389002B84
:1024E00011D1002562893B889A4205D23D4B3200CA
:1024F000290003201B6898470E2302AAA6729B1886
:102500001B88E37206E00425DCE7364B310003202C
:102510001B689847E27A7FE723000A33267B039300
:10252000638902AA3000D38101F070F9021EECD059
:102530004568002D2FD02000927802ABDB890C304B
:10254000002A21D102A90E320095521801001BF079
:102550003BFD0500002D05D0224B32002900032051
:102560001B6898470E2702ABFF18398863898B4296
:1025700004D21C4B320003201B689847002DC9D1A0
:102580003E23A3723B88BCE70E2202A95218010029
:10259000A847C5B2DEE70425DEE7216913480A1F14
:1025A0000918A389039112491248535412491B0A6E
:1025B0005354E38911495354190A1154DAB20902E8
:1025C0000A430432022092B24CE7064B0022032059
:1025D0001B68984700200200039043E7C8BA000038
:1025E000FFEEFFFF24BF000001260618FC3F00504D
:1025F0000040005003400050014000500240005095
:1026000070B52D4C2D4B25691B6898472C4BAA881B
:102610009A4212D12B7B022B04D002221900914343
:102620000D2923D1217E002905D1264B0A00012046
:102630001B68984701E00139217601232375A98899
:10264000214B99421AD8053B99422ED92369002B78
:1026500003D020001BF07CFF050028001BF09BF836
:102660001A4B1B689847FFF76DFE70BD152BE4D120
:10267000E17D0029D9D00139E175DEE7144B99429B
:1026800013D1200008301BF063FF124B1A78AB897E
:102690001B051B0D9A4203DD2B6998B203F036F837
:1026A0000023236101F08CFCD0E7064B00220320BD
:1026B0001B689847CAE7C046C8BA0000C0BE000001
:1026C0000411000024BF000005110000C4BE00007A
:1026D00006110000D4BE0000F0B587B006000D0062
:1026E0001700039300285AD08468002C4FD08378B9
:1026F0007F2B29D80E2202A952180021009408002D
:10270000294B1BF067FD0400002C38D1B36802226E
:102710001800264902931CF041FC0E2302AA9B18C4
:102720001E88002819D12A002100330020481AF001
:10273000EFFF022204000770023003991CF03CFCFA
:102740002000FFF707FD20E000230E2202A9521807
:1027500018001900A047C4B2D6E703221549029811
:102760001CF01CFC33002A00210000281AD110485C
:102770001AF0CEFF0622040007700130DDE70E4B91
:102780002A00210003201B68984707B0F0BD0A000B
:102790000123210009481AF0BBFF0770D1E70A00A6
:1027A000012301000248F6E7FFFF00009EA606187D
:1027B000011100008938061824BF00000211000032
:1027C00070B505003A4B1B689847AB88394A3A4CBC
:1027D000934205D12000290008301BF071FE50E023
:1027E000364A934207D12B7B0F2B30D006D8022BD1
:1027F00027D00D2B0AD029002000EEE7152BFAD1A7
:10280000E37D032B3AD80133E375F4E7EB89E97DE7
:102810005B069B0F01290DD1627E022A3AD0002A65
:1028200002D1227E032A35D8013B5A425341DAB203
:10283000002332E0A27EF0E7012300222DE0A27601
:102840002EE00323227E93429B415B4228E01C4AF8
:10285000A97B1068EB7C4218415C022923D0002937
:1028600002D1217E03291ED8013B59424B411370EE
:10287000237E01332376BEE70023137028001AF06D
:102880008AFF104B1B689847237D012B01D1FFF76E
:1028900059FD70BD012BCFD102220129CFD1627623
:1028A000002BE5D0EAE7012BE6D10223E5E7C0469D
:1028B000C0BE000006110000C8BA000004110000EC
:1028C000C4BA0000C4BE000070B5051E0C4C14D183
:1028D00001001C2220001CF08BFB0A4B29001A78F7
:1028E000094B18681CF084FB20001BF0D3FD20006E
:1028F00008301BF0CFFD012323750523637570BDE0
:10290000C8BA0000D4BE0000C4BA000010B500F080
:1029100039FFFF23002800D0C378D8B210BD0000D3
:10292000F0B589B005000391029200F02BFF5D4CD9
:102930000700637D7F2B05D900225B4B110001202E
:102940001B689847594B9D4202D0637D013B6375DC
:10295000002F00D1A2E0637D7F2B00D96DE00F2115
:10296000BB7804931940082946D808001CF0F8FAEF
:1029700005260526444444444B0000260E2204ABA1
:10298000D21800239C461380039B634542D07C6889
:10299000644555D040216B4604989B8908400590BA
:1029A0000498084231D10094029905981BF012FC5A
:1029B0000400012C2FD10023122218E0039B012BCD
:1029C00013D9029B029A5B7812781B021343384A90
:1029D00012789A4209DD374A1268D25C002A04D084
:1029E00001221B0213439EB2C8E70222029B290068
:1029F0003800FFF771FE04E02B4B2A0003201B6810
:102A0000984709B0F0BD0226B8E760460299A04792
:102A1000C4B2CEE7039C04AB31002A00DB89264810
:102A20001AF076FE0600002C05D01F4B2A0021006C
:102A300003201B689847002E04D100230722D6E705
:102A40000424E8E704ABDB89002B12D07B689C46AA
:102A5000002B0ED06B46BA789B89520615D462467D
:102A600000920E2204A95218300002991BF0B2FB0A
:102A70000400002C05D00C4B2A00210003201B6809
:102A8000984730001AF068FEBBE70E2204A964469E
:102A9000521830000299A047C4B2EAE73B00012275
:102AA000A5E7C046C8BA000024BF0000350C0000EE
:102AB000D4BE0000A8BA00000511000070B5134A8A
:102AC0000C00117802050300120D002091420BDD6D
:102AD0009B0B834208D11800FB2C05D802F05AFE4C
:102AE000011E02D00A4BC01870BD01231A220948EA
:102AF0001AF00EFE01250570FFF72CFB29002000BF
:102B00001AF0A0FE044B9D75EEE7C046D4BE00004F
:102B10000040005003110000C8BA0000F8B5174B80
:102B200006009C7D0D001700002C06D010001AF046
:102B300013FF0023114A9375F8BD114B01051B7853
:102B4000090D8B4212DD01230902194322000D48B1
:102B500089B207331AF0DCFD06804580002D01D0D4
:102B6000094BFC1844601AF0F7FDE5E7074B02003B
:102B7000290003201B689847DEE7C046C8BA00005A
:102B8000D4BE00000611000000C0FFAF24BF00004B
:102B9000F8B50D0006A90E78016807008819012410
:102BA000824211D31C1E09D02A6828689419A342B6
:102BB000A4413200644264001CF0FEF93B689B199A
:102BC0003B602B689E192E602000F8BDF0B589B0DF
:102BD0000500029103920691002940D0CE180123EE
:102BE00017880790C719009332003B0007A906A871
:102BF000FFF7CEFF0400031E26D0079B5D1B039B3F
:102C00001D80200009B0F0BD013305935B000493E3
:102C1000EB18079302233200009307A93B0006A894
:102C2000FFF7B6FF002818D1049A07A90232AB18A3
:102C3000079302233200009306A83B00FFF7A8FF8A
:102C400000280AD16B461B7D0299079A0978521B0E
:102C50009942D2D9062AD7D9CFE70400CDE7062377
:102C6000039A029C1380CCE7F0B599B01D00029046
:102C70003A23081E0592079160D0029B002B61D079
:102C800001271488029B1C190126029B45190893F1
:102C90002A002300009608A907A8FFF779FF00285B
:102CA00049D1029B2A009B1908930096230008A98A
:102CB00007A8FFF76DFF00283DD1029B2A000233D1
:102CC00008930096230008A907A8FFF761FF0028D2
:102CD00031D1029B2A0003330893062308A90093ED
:102CE00007A82300FFF754FF002824D1029B2A00E5
:102CF000093308930096230008A907A8FFF748FFA7
:102D0000002818D1029B597A0390002921D1039BF6
:102D1000032B04D9434B0A0001201B6898477F42CC
:102D200000233C400227029E04931836039B049A1A
:102D3000934216DC0020089B029A9B1A059A138086
:102D400019B0F0BD4E2404ABE41809AB029F029306
:102D50009AE7314203D0039B0133DBB20393490866
:102D6000D3E733000E3B08932A002300009708A9FD
:102D700007A8FFF70DFF0028DDD133000C3B0893B7
:102D80002A002300009708A907A8FFF701FF0028E1
:102D9000D1D133000A3B08932A002300009708A9E9
:102DA00007A8FFF7F5FE0028C5D13300083B0893BC
:102DB0002A002300009708A907A8FFF7E9FE0028CA
:102DC000B9D1B31F08932A002300009708A907A8C8
:102DD000FFF7DEFE0028AED1331F08932A00230040
:102DE000009708A907A8FFF7D3FE0028A3D1B31EB8
:102DF00008932A002300009708A907A8FFF7C8FE38
:102E0000002898D123002A00009708A907A808964F
:102E1000FFF7BEFE1036002800D08CE7049B01337C
:102E2000049383E724BF0000F0B58DB00700039240
:102E30000691002900D176E0002843D015880122B0
:102E4000451904920126CB180293029A2B00009692
:102E500007A906A80797FFF79BFE041E2BD1BB19F5
:102E60000793029A2B00009607A906A8FFF790FE89
:102E7000041E20D1BB1C0793029A2B00009607A9C1
:102E800006A8FFF785FE041E15D1B97800291DD1CB
:102E9000022C04D9264B0A0001201B689847062003
:102EA0003E006043049B5B421D40C3190593059B94
:102EB000B34211D10024079BD81B039B188020002C
:102EC0000DB0F0BD04900CAD08AFBBE7314201D0AE
:102ED0000134E4B24908D9E7331D07930123029A6C
:102EE000009307A92B0006A8FFF752FE041EE2D1AB
:102EF000B31D049307930223029A009307A92B00A2
:102F000006A8FFF745FE041ED5D10223029A0093BE
:102F100008362B0007A906A80796FFF739FE041EFE
:102F2000C9D1049EC3E71023039A0C001380C6E79F
:102F300024BF0000F0B58BB007000C1E0492069170
:102F400066D0002832D01588012245190592012645
:102F5000E3180393039A2B00009607A906A8079786
:102F6000FFF716FE041E1AD1BB190793039A2B0014
:102F7000009607A906A8FFF70BFE041E0FD17B7869
:102F80003F2B05D9244B020001001B6830009847F5
:102F9000059B5E42354000267B78B3420AD8079BEA
:102FA000D81B049B188020000BB0F0BD05900AAD23
:102FB00008AFCCE7B31C0593FB1807930123039AD2
:102FC000009307A92B0006A8FFF7E2FD00281DD1FA
:102FD000059A07A953000222FB18079300922B00C1
:102FE000039A06A8FFF7D4FD00280FD1B31DFB18E4
:102FF00007930123039A009307A92B0006A8FFF764
:10300000C7FD002802D10136F6B2C5E70400C6E7C5
:103010000823049A1380C6E724BF0000F0B5B7B0B8
:1030200007001D000392002900D1C7E0002800D14D
:10303000A2E01688861901234D1900932A00330057
:1030400008A907A808970797FFF7A2FD041E00D05C
:103050008BE0BB1C079302232A00009308A93300CE
:1030600007A8FFF795FD041E00D07EE03B1D0793E7
:1030700001232A00009308A9330007A8FFF788FD61
:10308000041E72D17B1D079301232A00009308A917
:10309000330007A8FFF77CFD041E66D1BB1D079314
:1030A00002232A00009308A9330007A8FFF770FD48
:1030B000041E5AD13B000833079301232A000093D2
:1030C00008A9330007A8FFF763FD041E4DD13B009C
:1030D0000933079301232A00009308A9330007A8A6
:1030E000FFF756FD041E40D13B000A33079301232E
:1030F0002A00009308A9330007A8FFF749FD041E22
:1031000033D13B000B33079301232A00009308A916
:10311000330007A8FFF73CFD041E26D13B000C330B
:10312000079302232A00009308A9330007A8FFF79A
:103130002FFD041E19D1BB7B2A0004933B000E33E4
:103140000793012308A9009307A83300FFF720FD88
:10315000041E0AD1049B02975B00DB19059301232F
:103160000493059B029A934209D1089BD81B039BA9
:103170001880200037B0F0BD36AE09AF5BE7029B88
:103180002A000F330793049B08A9009307A8330074
:10319000FFF7FEFC00280FD1029B2A001033079393
:1031A000049B08A9009307A83300FFF7F1FC029BDA
:1031B000023302930028D4D00400D6E7039B0C000E
:1031C0001980D6E7F0B5B7B007001D0004920029BA
:1031D00000D1B8E0002800D193E0168886190123B9
:1031E0004D1900932A00330008A907A808970797EC
:1031F000FFF7CEFC041E00D07CE0BB1C079302232B
:103200002A00009308A9330007A8FFF7C1FC041E99
:1032100070D13B1D079301232A00009308A93300B6
:1032200007A8FFF7B5FC041E64D1BB1D079302235A
:103230002A00009308A9330007A8FFF7A9FC041E81
:1032400058D13B000833079301232A00009308A9B3
:10325000330007A8FFF79CFC041E4BD13B00093349
:10326000079301232A00009308A9330007A8FFF75A
:103270008FFC041E3ED13B000A33079301232A0032
:10328000009308A9330007A8FFF782FC041E31D180
:103290003B000B33079301232A00009308A9330056
:1032A00007A8FFF775FC041E24D13B000C330793DD
:1032B00002232A00009308A9330007A8FFF768FC3F
:1032C000041E17D1BB7B2A0005933B000E330793E6
:1032D000012308A9009307A83300FFF759FC041E37
:1032E00008D1059B03975B00DB190593059B039AA7
:1032F000934209D1089BD81B049B1880200037B04B
:10330000F0BD36AE09AF6AE7039B2A000F3307937F
:10331000012308A9009307A83300FFF739FC002810
:103320000FD10123039A009310323300079208A9AA
:103330002A0007A8FFF72CFC039B02330393002805
:10334000D4D00400D6E7049B0C001980D6E7F0B572
:10335000C9B00C001D0002900592002900D1E2E0E6
:1033600000282ED016888619029B651907930693AC
:1033700001232A00009307A9330006A8FFF708FCE1
:10338000041E16D1029B2A0001330693012307A9CC
:10339000009306A83300FFF7FBFB041E09D10123AD
:1033A000029F049019370393029B049A5B7893421F
:1033B0000BDC079B029A981A059B1880200049B0E5
:1033C000F0BD08AB48AE0293CEE73B00173B069337
:1033D00002232A00009307A9330006A8FFF7D8FBB1
:1033E000002800D09DE03B00039A153B0693009215
:1033F00033002A0007A906A8FFF7CAFB002800D05F
:103400008FE03B00143B069306232A00009307A994
:10341000330006A8FFF7BCFB002800D081E03B008A
:10342000039A0E3B0693009233002A0007A906A8D0
:10343000FFF7AEFB002874D13B00039A0D3B0693C7
:10344000009233002A0007A906A8FFF7A1FB002875
:1034500067D13B00039A0C3B0693009233002A008D
:1034600007A906A8FFF794FB00285AD13B00039A4E
:103470000B3B0693009233002A0007A906A8FFF72A
:1034800087FB00284DD13B00039A0A3B069300922C
:1034900033002A0007A906A8FFF77AFB002840D1CD
:1034A0003B00093B069302232A00009307A933003F
:1034B00006A8FFF76DFB002833D1FB1F0693039B83
:1034C0002A00009307A9330006A8FFF761FB002834
:1034D00027D1BB1F069306232A00009307A93300B8
:1034E00006A8FFF755FB00281BD1039B2A00009379
:1034F00007A9330006A80697FFF74AFB002810D15A
:103500003B787A1C069200932A00330007A906A88C
:10351000FFF73EFBFE37002803D1049B01330493E1
:1035200042E7040045E7059B198047E7F0B58FB0F7
:1035300007000C001D000592002900D188E000283A
:103540002BD0168886190123651900932A003300B1
:1035500008A907A808970797FFF71AFB041E15D1BB
:103560007B1C079301232A00009308A9330007A8B6
:10357000FFF70EFB041E09D13B0011330293012318
:10358000049003937B78049A93420BDC089BD81B2E
:10359000059B188020000FB0F0BD262604ABF6185E
:1035A00009AFD0E7029B2A000F3B0793039B08A9B2
:1035B000009307A83300FFF7EBFA002846D1029BDF
:1035C0002A000E3B0793039B08A9009307A833002A
:1035D000FFF7DEFA002839D1029B2A000D3B079342
:1035E000062308A9009307A83300FFF7D1FA0028A3
:1035F0002CD1029A08A9D31F039A07930092330093
:103600002A0007A8FFF7C4FA00281FD1029A08A9C8
:10361000931F079306232A00009307A83300FFF7A0
:10362000B7FA002812D1029B2A000793039B08A92E
:10363000009307A83300FFF7ABFA029B1033029305
:10364000002803D1049B013304939BE704009DE70A
:10365000059B19809EE7F0B595B007000C001D0092
:103660000592002900D189E000282BD01688861900
:103670000123651900932A00330008A907A80897B9
:103680000797FFF785FA041E15D17B1C07930123CA
:103690002A00009308A9330007A8FFF779FA041E4F
:1036A00009D13B000A3302930123049003937B78F2
:1036B000049A93420BDC089BD81B059B18802000C2
:1036C00015B0F0BD3F2604ABF61809AFD0E7029B5A
:1036D0002A00083B0793039B08A9009307A833001F
:1036E000FFF756FA002847D1029B2A00073B0793B1
:1036F000039B08A9009307A83300FFF749FA0028A5
:103700003AD1029B2A00063B0793062308A900939F
:1037100007A83300FFF73CFA00282DD1029B2A00AE
:103720000793039B08A9009307A83300FFF730FA1B
:10373000002821D1029B029A1B7801320792009344
:103740002A00330008A907A8FFF722FA002813D19E
:10375000029B2A0020330793039B08A9009307A824
:103760003300FFF715FA029B29330293002803D197
:10377000049B013304939AE704009CE7059B19809E
:103780009DE700008205920D830A012B19D0032BBF
:1037900019D0042B19D0052B19D0082B19D00020D3
:1037A0003F2B0DD13A3B0F49DB00CB1858685988A5
:1037B000002805D00C234B43C31898420BD100209E
:1037C00070470023EFE70123EDE70223EBE7032334
:1037D000E9E70423E7E701888905890D9142EFD0E5
:1037E0000C30EAE72C390618002310B50200064811
:1037F000D9000C5C944201D1401810BD0133092B53
:10380000F6D10020F9E7C046603E0618020000230A
:1038100010B50549DC0060180C5D944203D00133FB
:10382000182BF7D1002010BDA83E0618424248428E
:1038300042364248484842004242484848480042CE
:1038400042483842004248384248004242484242D8
:1038500036423642364248484842004242363442B6
:103860000042423332420042424842420042424811
:1038700042423642424842004248424242426E423E
:1038800000424242484200424242364200424248DE
:1038900048484242364242484200424848484C006A
:1038A000424833423342424242364242424242421C
:1038B0004242004238420048484242423642424276
:1038C00000423331420042484842420048484242A6
:1038D0003642424848484848480042483542004835
:1038E0003842483136420042364231364231364261
:1038F0000048424242480042484848004242484844
:103900000042424236424848420042364242004269
:1039100042424242426E42004842484842003634E7
:103920004242004242484248480000000100020072
:10393000003E0618030009005C3906180400040064
:10394000C839061805000100183E06180800560080
:10395000F83906183F000500243E0618010C00083F
:10396000B4380618C4380618030C00000000000024
:10397000C43806182D0C110375380618743806184B
:10398000310C0001C4380618C4380618330C00077F
:1039900025390618C4380618350C401ECD2B0618DC
:1039A000C43806187B0C11029FA60618FD380618AD
:1039B0007C0C1104FE3806189EA60618630C00083D
:1039C000B4380618C43806180110000000000000C2
:1039D0002339061802100000000000005C380618A9
:1039E0000310000000000000B338061809100000A2
:1039F00000000000893806183920422A352F0618A1
:103A0000C438061836200219A038061820390618BE
:103A1000372002FF12390618C438061801200208A0
:103A2000B4380618C438061802200200000000004E
:103A3000743806180320020000000000B33806188E
:103A400005200206EE380618C438061807200200C2
:103A500000000000203906180620020FB7380618AB
:103A6000C438061808200220C1380618C4380618C1
:103A700009200220C1380618C43806180A2002019D
:103A8000C4380618C43806180B200207C6380618B2
:103A9000C43806180C20020220390618C43806184B
:103AA0000D200219CC380618000000000E2002007C
:103AB00000000000C43806180F20020000000000BB
:103AC000203906181020020000000000C438061833
:103AD0001120020789380618C43806181220020778
:103AE00089380618C43806181320130EB6A606180F
:103AF0000000000014200205DC380618C43806183F
:103B0000152013029FA60618DA380618162013028D
:103B10009FA606180000000017200220EA380618A9
:103B2000EC3806181820020000000000B338061810
:103B30001920131CDF380618000000001A20131289
:103B4000E23806189EA606181B2013029FA6061828
:103B50009EA606181C20020000000000B3380618BC
:103B60001D200201C4380618C43806181E2002039E
:103B7000BD380618C43806181F20020000000000D7
:103B80009EA606182020130EB6A606189EA6061896
:103B900021201303753806189EA606182220130646
:103BA000F83806189EA60618232002000000000020
:103BB000FD38061824200204FE380618C4380618FA
:103BC0002520020000000000000000002620024026
:103BD0005D3806180000000027200227E738061885
:103BE000C43806182820020789380618C438061871
:103BF0002920020000000000C43806182A20020014
:103C000000000000203906182B200207893806180A
:103C1000893806182C2002078938061889380618B2
:103C20002D200201C4380618C43806182E200202BE
:103C30009FA60618C43806182F20020000000000B6
:103C400039380618302013029FA60618683806185F
:103C500031200203BD380618C43806183220130775
:103C6000F13806180000000033200203BD380618A2
:103C7000C438061834200204AE380618C4380618B2
:103C80003520020789380618C4380618382002FF84
:103C900012390618C43806183A2002000000000045
:103CA0009EA606183B2002000000000020390618DE
:103CB0003C200201C4380618C43806183D20020012
:103CC00000000000C43806183E200207F738061826
:103CD000C43806183F2002FF13390618C4380618E6
:103CE0004020020220390618C43806184120420D2F
:103CF000292E0618C438061842200206FC38061879
:103D0000C43806184320423A692C06180000000007
:103D10004420020E01390618000000004520020070
:103D200000000000C4380618462002029FA60618AC
:103D3000C4380618472002080A390618C43806187D
:103D4000482002080A390618C4380618492002001B
:103D500000000000C43806184A20020000000000DD
:103D6000203906184B20020000000000BD3806185C
:103D70004C20020000000000FD3806184D2002040F
:103D8000FE380618C43806184E2002080A390618EC
:103D9000C43806184F2002520F390618C4380618C6
:103DA000502002520F390618C43806185920020351
:103DB00075380618C43806185A201306F83806183D
:103DC0009EA606185B201305063906189EA606183F
:103DD0005C200308183906189EA606185D20020606
:103DE00005390618C43806185E2002411E39061827
:103DF000000000005F200201C4380618C43806180D
:103E00000604110375380618000000001D04110295
:103E10009FA6061800000000051411029FA60618B0
:103E20007438061811FC0801C4380618C43806187E
:103E300012FC0800000000009A38061813FC130456
:103E4000FE3806189EA6061814FC13050639061837
:103E50009EA6061815FC1306F83806189EA6061826
:103E600005010000743806180801000074380618AF
:103E70000C0100002439061810000000C438061890
:103E8000110100009FA6061813020000FD38061855
:103E90001A000000C4380618300100009EA606185B
:103EA000570100009FA60618010000002C380618D4
:103EB00002000100573606180301000038380618C2
:103EC000040100003F3806180501000045380618B7
:103ED0000601000095A606180701000095A6061821
:103EE0000A0000004B380618080000005B3806186E
:103EF00009000000613806180B0001002D35061876
:103F00000C010000673806180D0001004F33061839
:103F10000E0000006D3806180F00000078380618F3
:103F2000100000009EA6061811000000C4380618F4
:103F300012000000813806181300000087380618A8
:103F4000140100007438061815000100C531061868
:103F5000160101001D30061817010000F33806187D
:103F6000180000008D38061810B5082200210248FC
:103F70001BF03EF810BDC046E4BA00001123FA2839
:103F800002D9024B5980002318007047E4BA0000A0
:103F9000084B094A1B681278D2189A4203D1074B82
:103FA0001870002005E00133591E09780029F4D06B
:103FB0000C207047A8BA0000D4BE0000E4BA00008C
:103FC000034B1A78002A02D0DA880132DA8070476F
:103FD000E4BA0000044A0021D388834201D91B1AA5
:103FE00099B2D1807047C046E4BA0000064A1378FF
:103FF000002B07D05388D2880020934201D99B1A06
:1040000098B270470148FCE7E4BA0000FFFF0000E7
:10401000F7B50F004A688021436806008068D51A0A
:104020000090B8682D012D09090501908D4227D90E
:104030009B1A1B011B095D42002B03D1019B009AB7
:1040400093421FD8019B3F690524D819009BC01AD1
:10405000002834DD1B490138FDF76AFEE8422ED402
:10406000009B3069013C1818019BC01AC01B002836
:1040700025DC1549FDF75CFE4419E40F03341EE00E
:10408000002DDBD00024009B36699E19019BF61A97
:10409000A64214DD0C49701EFDF74AFE4019A042ED
:1040A0000DDC38690134301A002808DD0649013872
:1040B000FDF73EFE45196C1E2C43E40F0134200031
:1040C000FEBDC046710200008FFDFFFF37B5684698
:1040D00018F0C8FE019B9C2019009131FF31009A15
:1040E0008000814204D9E13B19000132120112091A
:1040F0000F4B1B68002B12D00E485C6800780E4DE9
:10410000201A000100099C68831A1B011B09AB429D
:104110000BD8904201D1A14204D2210002E001203B
:104120001900404219F076F837BD1000FAE7C04692
:10413000ECBA0000E8BE0000FEFFFF07394BF0B507
:10414000DD68002385B003900093002D07D1354B27
:10415000DB68002B01D019F017F905B0F0BDAA8A71
:104160002B680293930B5AD03F233F2011110B4031
:10417000014254D00024A97D303810400918A97597
:104180002949013B1B010A4013439BB2AB82039EAA
:104190009B0B0193002E0DD1224E2A003000009976
:1041A0000C301AF017FA2A00210030001AF06AFACF
:1041B000009D34E031002800FFF72AFF0028EBD0F3
:1041C000052802D134003668E4E7B368326917493C
:1041D0009F183800FDF7B4FD73681449C4183800FF
:1041E000FDF7BEFDAB688B4289414942641824014A
:1041F000019B24096C60012BE4D98023E8681B052E
:10420000071B3F013F099F4203D9271A3F013F097E
:104210007F4206492869FDF793FDB842D2DD00953B
:10422000029D92E7ECBA00000FFCFFFF7102000054
:10423000013810B5012809D8054C20001AF02AF9D8
:1042400020000C301AF026F90023A36010BDC046F0
:10425000ECBA0000F0B5854B01690400CA18844B24
:1042600087B09A4204D9834B002203201B689847E9
:104270009C23A2689B009A4205D900227D4B110025
:1042800001201B6898477C4B1B68984704A818F0CE
:10429000E9FD7A4B049A1B7805999B18FA22920043
:1042A0001B018918793A1B09FF3A914215D86568B4
:1042B000734EEA1A1201A08A1209B24204D89D4232
:1042C00019D1A2688A4216D2820B0CD101256D4BFE
:1042D0001B689847280007B0F0BD644801331B01F4
:1042E00009181B09E1E7A26863608A4203D201331F
:1042F0001B011B096360800B012812D98020E16833
:1043000063680005CA1A12011509854203D95B1AB0
:104310001B011B095D425C492069FDF711FDA842A4
:10432000D4DC5A4B9D68002D00D11D6800260296F2
:1043300001960396002D6FD0A54205D100224D4B6A
:10434000110001201B68984729002000FFF760FE3C
:10435000002861D0052813D0A17DAA7D914230D9D3
:104360004A4B9B68AB422CD0019B002B00D101959E
:10437000022398430136C0B2F6B2029501284BD011
:10438000A38A9B0B012B13D98021E268636809057E
:10439000D71A3F013F098F4203D99F1A3F013F09B6
:1043A0007F4239492069FDF7CBFCB84200DD8DE73B
:1043B000364B9A68AA424FD0002E00D103952D6843
:1043C000B8E7A38A9B0B18D0AB682A692E499F18BF
:1043D0003800FDF7B5FC6B682B49C6183800FDF7AF
:1043E000BFFCA3688B4289414942761836013609E1
:1043F0006660002602960196C2E7914200D865E702
:10440000224B9B68AB4200D060E7C31EDBB2012B9E
:1044100000D95BE70328B3D1019B1C4D002B0AD0C8
:104420002800029A03991AF00BF92800029A0199C0
:104430000C301AF05BF8039B002B0FD02200190000
:1044400028001AF01FF90025019BAB4200D13EE77E
:104450002000FFF773FE3AE71D686BE72100280094
:104460001AF064F8FFF732FEEDE7C0468FFDFFFF5C
:104470000F18060024BF0000C0BE0000E8BE000008
:10448000FEFFFF07C4BE000071020000ECBA00008E
:10449000174B70B51B6806000C009847002E05D11D
:1044A0000024144B1B689847200070BD124DAB6868
:1044B000B34202D10024AC60F3E7002CF0D12B68AA
:1044C0009E4205D128001AF043F8FFF7FFFDE8E708
:1044D000310028001AF046F80028E1D12800310008
:1044E0000C301AF03FF80028DAD10224D9E7C04690
:1044F000C0BE0000C4BE0000ECBA0000F0B5374EEC
:1045000085B0346802A818F0ADFC002C06D1F36821
:10451000002B5FD1FFF7DAFD05B0F0BD0625039B48
:10452000626801932E4B029F1B78ED1BD31A5A1918
:104530002C49120112098A4208D806331B011B09B3
:10454000BB4227D1A368019A934223D2300019F0CD
:10455000FFFF010030000C3019F0B2FF3468002C6E
:10456000D5D01F4B62681B78D31A5D191D4A2D01E7
:104570002D09954208D806331B011B09BB4209D1FE
:10458000A368019A934205D20022174B1100012023
:104590001B689847124B62681B781249D31AFA437A
:1045A000D218120112098A4208D8013B1B011B09CB
:1045B000BB42ACD1A368019A9342A8D8300019F04D
:1045C000C7FF8369B060002B00D098473468002C87
:1045D000E0D19CE718F0D8FE9CE7C046ECBA00009A
:1045E000E8BE0000FEFFFF0724BF000070B50F4EBD
:1045F00030000C301AF068F8C4B263B2002B00DC53
:1046000070BD30000C3019F0A3FF051E05D1084B1A
:10461000020001001B68012098472B6A002B01D083
:1046200028009847013CE4B2E7E7C046ECBA000036
:1046300024BF0000124B13B51C68002C1CD0684628
:1046400018F010FC9C22019BC8219200D21A002372
:10465000490091425B41009A01339B181B0162683B
:104660001B09D21A0749120112098A4200D9636054
:10467000606818F0A7FD13BD01204042F9E7C0466D
:1046800000BB0000FEFFFF07013810B5012802D86B
:10469000014819F0FFFE10BD00BB000013B56846CD
:1046A00018F0E0FB0E480468002C17D06268009BED
:1046B0009B1A0C4A1B011B0993420DD819F048FFA5
:1046C000A168002902D020008847E8E7064B0A00CD
:1046D00001201B689847E2E7FFF7ACFF13BDC04617
:1046E00000BB0000FEFFFF0724BF000073B51D4B99
:1046F00004001B689847684618F0B4FB9C22019B95
:10470000FA219200D21A0023490091425B41009A9B
:1047100001339B181B0162681B09D21A124D12014A
:104720001209AA4200D96360002110480268002AD9
:1047300008D1002910D0220019F0A4FF0C4B1B68EF
:10474000984773BD536866689B1B1B011B09AB42EE
:10475000EFD911001268EAE7210019F0E7FEFFF730
:1047600069FFEBE7C0BE0000FEFFFF0700BB0000D3
:10477000C4BE000070B5144D04002B00FF335A78FE
:10478000824204D0114B01001B68032098472B0084
:10479000FF33D978002904D10C4B0A0001201B6893
:1047A000984724012B19197B002904D1074B0A00D3
:1047B00001201B68984729194B68002B03D002225F
:1047C00089682859984770BD08BB000024BF0000C5
:1047D00070B5144D04002B00FF335A78824204D088
:1047E000114B01001B68032098472B00FF33D97839
:1047F000002904D10C4B0A0001201B6898472401B2
:104800002B19197B002904D1074B0A0001201B68D2
:10481000984729194B68002B03D00322896828592F
:10482000984770BD08BB000024BF0000F8B5284CB5
:1048300005002300FF33D978002904D1254B0A0055
:1048400001201B6898472E01A7193B7B002B31D014
:10485000214BE818000118F0E9F98006400F0628FE
:1048600028D17B68002B1ED00422B968A059984734
:104870002300FF335A78AA4203D10F2001350540A7
:104880005D7000232200A619FF323373D378013BF9
:10489000D370FF34E378012B13D10F2263780133F7
:1048A0001340A370F8BD0B4A1900176801201A00C5
:1048B000B847DDE70022074B110001201B6898472D
:1048C000E7E7002BEED18020800018F011FCE9E72B
:1048D00008BB000024BF000000040005F8B5304EFE
:1048E00004003300FF335A78824204D02D4B01007C
:1048F0001B68032098472C4BE018000118F096F92C
:104900003300FF33D97885066D0F002904D1254B7C
:104910000A0001201B6898472701F3191B7B002B15
:1049200005D1204B2200290003201B689847EB1E6D
:10493000022B05D900221B4B110001201B68984750
:10494000F1194B68002B23D0043D6A426A41896803
:10495000F059D2B29847002332000F25F719FF32E1
:104960003B73D3789178013BDBB2D370A14206D080
:1049700001342C402201B218127B002AF6D0FF36F7
:104980007470002B03D18020800018F0B1FBF8BDBB
:10499000044A1900156801201A00A847DBE7C04641
:1049A00008BB000024BF000000040005013870B5FA
:1049B000012816D8822200210A4852001AF018FB5A
:1049C00038261825084C200018F030F90100B143B2
:1049D0002943200089B218F03BF9044B10349C4263
:1049E000F1D170BD08BB00000040005000410050F4
:1049F0000C4B70B51C6825012D0F230702D528002C
:104A0000FFF7E6FEE30602D52800FFF7B3FE6307D3
:104A100002D5200FFFF70AFFA30702D52800FFF7F2
:104A20005DFF70BD24000050F0B5A94E85B0330085
:104A3000FF339A78040000925A780099881A0F215F
:104A400008400290DB78002B08D0009B9A4205D1E9
:104A5000A04B009A032011001B6898470F20009B71
:104A60006268013B034001931B01F3589A4205D150
:104A70000022984B11001B680E389847009B964AFD
:104A800007279D182D01280018F0D0F8C0103840D5
:104A9000012800D0FAE03300FF3359788D4B032012
:104AA0001B68009A9847029B0D2B1BD9894B1B68EA
:104AB0000393009B981E0F231840874BC0180001DA
:104AC00018F0B4F8844A019B944663440700180127
:104AD00018F0ACF80721C210FF100A400220039B17
:104AE000394098470127009B61681B01F150F61877
:104AF000236989B2B3602368377373609C26A81C4E
:104B000018F0A6F86368281D1901090D18F0A0F81F
:104B1000A368B600B34205D900226E4B11003800DD
:104B20001B689847A368F61AB6B2B30A05D00022EC
:104B3000684B110001201B689847A81D310018F030
:104B400087F82F008023E0680A371B02984200D2C2
:104B5000A5E0624B1900C018FDF7F2F80600030447
:104B600005D500225B4B110001201B6898475C496A
:104B7000314389B2380018F06BF8A37D1A1C1F2B43
:104B800000D91F22617DD2B212020B1C1F2900D94D
:104B90001F232800D9B211430C3018F059F8E17DD9
:104BA000504F0B0201933B4205D00022494B1100AC
:104BB00001201B6898472E000E36300018F036F89A
:104BC000019B07401F433000B9B218F041F8637EE3
:104BD000002B3BD1702128000D26237E083059433D
:104BE0005131FF31890818F033F8029B3E489E424C
:104BF000B6417642B3020193237F227DA67E002B2D
:104C000051D0E77E141C1F2A00D91F24E4B23602BB
:104C1000E402064205D000222E4B110001201B6841
:104C20009847FF0180233A009A4305D00022294B80
:104C3000110001201B6898474221019B33431C430C
:104C400027433943280089B218F002F80F23009A4D
:104C50009A4305D000221F4B110001201B68984782
:104C600080230F218020009A1B0613431F4A8000D7
:104C70001360174BFF339A7801320A409A70DA7842
:104C80000132DA7018F014F905B0F0BD280017F001
:104C9000CDFFC0100740022F00D004E7FBE6013033
:104CA000400881B266E7141C1F2A00D91F24E4B211
:104CB0003602E402064205D00022064B1100012014
:104CC0001B6898470221019B33431C432143B9E7EA
:104CD00008BB000024BF00000004000571020000B2
:104CE0000080FFFFFFE0FFFFFFFEFFFF000100501D
:104CF000F0B593B01C0002900E910492002809D1E7
:104D0000002A75D10022B74B110001201B6898477B
:104D100001236BE0002CF5D063680393A3890D9306
:104D20000023802510A80B9318F09CF8109B2D05EC
:104D30001D402B005A1E9341DBB20193039B002BB5
:104D400005D1A84B039A012011001B689847002247
:104D5000A54B1A60A54B1B78934258D1A34B019ADF
:104D60001A70029B012B6AD123680593059B002BC7
:104D7000CED0039B002BCBD00B9B0193029B012B2E
:104D800001D1A36801939A4B1E68002337000A9350
:104D90000993039B013B0F93002F00D1C0E0019BBF
:104DA000059A93421BD2029B002B4BD10E9B002BEA
:104DB00048D03B697D680693002D51D0069B002B9F
:104DC0004ED0BB8A0D9A93424AD0059B2C009D423F
:104DD00000D91C00069B039A9B18A34234D90A9B56
:104DE000002B02D0804B099A1A6003230293B6E08D
:104DF000049B9B6803930E9B002B02D0049BDB68F3
:104E00000393049B1B8A0D93049BDB7C89E7002D95
:104E1000A4D18026764B76051D68002D9ED06F6844
:104E2000AB683900FB1830000593FCF799FF059B30
:104E3000581A3900FCF794FFA9602D68EDE7049B30
:104E40005B6992E7FB68B5E721000598FCF788FFEE
:104E5000002905D121002800FCF782FF002902D09B
:104E60003F68019932E02100B868FCF779FF069BA2
:104E70000D005B180C932100013B01980893FCF78F
:104E80006FFF8C460F9B0691634407938D4200D9B8
:104E9000B0E0089B8B4207D2079B9D4218D8089B25
:104EA000079A934200D298E0029B012B32D0210056
:104EB0000C98FCF755FF019B8B4224D201230B9ADF
:104EC0000B40002A21D0002B22D03700019163E74C
:104ED000069B9D4203D1089B079A9342E4D9089B05
:104EE0009C4206D818002100FCF73AFF069B994225
:104EF000DAD2079B9C42B3D821001800FCF730FFA0
:104F0000A942ADD3D0E70919D5E73700002BDDD092
:104F10000131DAE701230997059937000A93D5E7AC
:104F20000A9B002B02D0304B099A1A60019B059A0C
:104F3000934200D359E7029B002B4CD1049B019A6A
:104F40005F699A611B8A06937B1E9B180593002E4E
:104F500008D139000598FCF703FF049BD96102983A
:104F600013B0F0BDB38A069A934217D07568BD425C
:104F700000D93D00002D05D11A4B2A00290001203F
:104F80001B68984729003800FCF7EAFE002905D184
:104F900029007068FCF7E4FE002901D03668D6E7E6
:104FA0002900B068FCF7DCFE0C00019BA34210D284
:104FB000039A9B189C4205D200220A4B1100012043
:104FC0001B689847039BE41A059BA342E6D9059406
:104FD000E4E76419E9E7002308E7069B9D4200D255
:104FE0007DE761E724BF00000CBC000018BC000096
:104FF00010BC0000079B9D4200D855E76BE7C046F8
:10500000013810B5012805D80022034B03481A7057
:1050100019F040FA10BDC04618BC000010BC0000DA
:105020001FB5C1680400002904D1184B0A000120F3
:105030001B6898476A46636801200093E368019300
:10504000A38A93810022A368110002936B46FFF7A5
:105050004FFE032809D10E4B1B68002B05D0A16918
:105060009A69002906D1002A0BD12100094819F0BC
:1050700027FA1FBD002A03D0A17D9A7D914200D35B
:105080002300988A9B699847EFE7C04624BF000039
:105090000CBC000010BC000010B50100014819F064
:1050A00061FA10BD10BC0000F7B503684668040043
:1050B000466101939E4216D92B4B01271A680023A3
:1050C0007F42002A22D1002B2CD1A57C002D48D074
:1050D00029003000FCF734FE4543019BAB4202D867
:1050E000AE4200D365610023220001211800FFF7C2
:1050F000FFFD002809D0A368E268934205D200238F
:10510000220019001800FFF7F3FDFEBD908A218AE6
:10511000884205D051680133DBB28F4200D90F00BD
:105120001268CEE7BE4206D339003000FCF708FE15
:1051300078430500D1E7012500966D4238000099BB
:10514000FCF70EFE0023994201D1009D0133009A25
:10515000023A00920099019A8A42BED8002BEDD003
:10516000BBE701256D42BBE710BC0000002210B573
:10517000030011000120FFF7BBFD10BDF7B52B4F59
:105180002B4DBB89BE68AB8001235B422B60294B52
:105190000193002E15D1019A274B5343AA889A42B6
:1051A00000D91A00AA807A68531C09D02B68591CB0
:1051B00005D09B1A21491B011B098B4200D92A608B
:1051C000F7BD002380221206DA40164202D10133D5
:1051D000202BF7D11F22D31A0093194B009A1B786A
:1051E000934205DC0022174B110001201B689847F1
:1051F000009BDA00144B1B689B181C68002C0FD016
:1052000098880D49FCF79CFD241AA4B2022C01D900
:10521000023CA4B2019BA34200D923009BB201939C
:105220000123009A93409E43B3E7C04620BC000090
:1052300030BC0000FFFF000071020000FEFFFF070E
:10524000D4BE000024BF00001CBC000037B50138EC
:10525000012822D8114C10220021200019F0C8FE8C
:105260000F4B00211A780F4BD200186819F0C0FEBE
:1052700001230D4D5B4263602B606B46D91D0223F9
:1052800022000B70094B17201B680C32984700282E
:1052900001D0074BA381A389AB8037BD20BC0000A0
:1052A000D4BE00001CBC000030BC0000DCBE00000E
:1052B000E45700000122824010B503490B781343E4
:1052C0000B70FFF75BFF10BD20BC00000122824085
:1052D00010B503490B7893430B70FFF74FFF10BDD8
:1052E00020BC00000300012070B505009D40084A65
:1052F00014782C431470022B03D15160FFF73EFF4A
:1053000070BD0022034B11001B689847F6E7C046AA
:1053100020BC000024BF00000300012010B50400E1
:105320009C400B4A1178A1431170022B0AD1033B18
:105330005360FFF723FF074B1B68013301D111F0C6
:105340003DF810BD0022044B11001B689847F0E7A0
:1053500020BC000030BC000024BF0000033810B5A2
:1053600001280ED80A48CC00006800198380012368
:105370008B400260074A91680B439360FFF7FEFE83
:1053800010BD0022044B110001201B689847F5E76F
:105390001CBC000020BC000024BF0000033810B576
:1053A00001280DD800200A4BCA001B68D0500123E9
:1053B0008B40084A916899439160FFF7DFFE10BD6A
:1053C0000022054B110001201B689847F5E7C046F5
:1053D0001CBC000020BC000024BF000010B504006D
:1053E00000F00CF8002C02D020000AF037FD20005D
:1053F00004F0A8F9200000F0E9FB10BD7021F0B521
:10540000814D0C262B780400181D414303209A1C63
:1054100056435431FF313618814389197B4E8143FD
:10542000377838267E433618891930265E43814303
:10543000AB31361881438919754E81438919462647
:105440005E43814336188919120212188143891864
:105450002722534381431B18C91880238143693194
:105460008143E131814309188143091885B08143A3
:105470001B02994204D9674B890A1B68073A98476F
:10548000002C05D0013C012C00D899E005B0F0BDFE
:1054900021002022604819F0ABFD5B4B7025187885
:1054A0005A4B41001A7838235A43083B434303338D
:1054B00001930C23071D84B20230434303269C460C
:1054C0007D435435FF35B444B54365440332B54399
:1054D0005519B543019BAB35B5435D194C4BB543ED
:1054E000ED18B543ABB24D4D02932B6801390393D0
:1054F00023239C4609B24B1C56D170250C266F43C2
:1055000081B2704354376D3DFF37AF4340193818AF
:10551000A8431218AA43019BAB32AA439A18AA4384
:1055200092B215003E483F4B0068D318FB3D9BB23A
:105530004430ADB20380013BFF3B9BB20838AB4225
:10554000F8D14623324E634392190326601CB243BE
:1055500003339B180500C2003348B34300689BB275
:105560008018ADB22A02013D9A182DB28280083807
:105570006A1CF6D12720090203315B18032144433A
:105580008B436418294A1B1912688B4369338B4378
:105590001100B9339BB22C31043A0B80253B0839FA
:1055A0009BB28A42F9D171E766468DB26E43029B87
:1055B000C9009E19039B013D59188E8029B29AE7B4
:1055C000154C2B7815492000082209685B0018F05B
:1055D00065FF20001249092308220968083018F0E5
:1055E0005DFF20002B781049082209680233103033
:1055F00018F054FF20000D490623082209681830CE
:1056000018F04CFF42E7C046D4BE0000D5BE0000F3
:105610000309000024BF000048BC000040BC00009B
:1056200044BC00000508000038BC00003CBC000081
:10563000064B10B51B689847054818F089FF040011
:10564000044B1B689847200010BDC046C0BE000038
:1056500048BC0000C4BE0000F8B5060070201D4B19
:1056600003241D7823212B1D58430C23AA1C5343CC
:105670005430FF301B19A043C018174BA0431A78B1
:10568000382353431B19C01830236B43A043AB305E
:105690001B19A043C018114BA043C018A043301AD7
:1056A000FCF74EFBC7B26D00AF4205DB0C4B32007E
:1056B000390020001B6898470A4BFF001B68984779
:1056C000094B0A481968C91918F0FAFE084B1B68FB
:1056D0009847F8BDD4BE0000D5BE00000309000005
:1056E00024BF0000C0BE000040BC000048BC000059
:1056F000C4BE0000044810B5083018F029FF002887
:1057000000D0808810BDC04648BC000070B51B4B5F
:105710000C24197870230A1D534303228D1C6C43FB
:105720005433FF33A41893431B19154C9343257826
:1057300038246C43A4181B193024FF25614393437C
:10574000AB33934389185B1805389343C41A2C4232
:1057500003D1240AE3B2082B00D9FEE7094B2C4001
:105760001B689847084B09481968E4000919083074
:1057700018F0A6FE064B1B68984770BDD4BE00000B
:10578000D5BE0000C0BE000044BC000048BC000004
:10579000C4BE0000074B10B51B6898470648103080
:1057A00018F0D6FE0400054B1B689847201E00D059
:1057B000A08810BDC0BE000048BC0000C4BE0000F0
:1057C00070B57024194B02001B780320191D4C433F
:1057D0000C219D1C69435434FF3409188443641818
:1057E000134984430D78382169430918641830211E
:1057F00059438443AB340918844364180D498443E6
:105800006418462159438443091864188443141BBF
:10581000240AE4B20133A34203DA074B21001B68D8
:105820009847064BE4001868001970BDD4BE00000C
:10583000D5BE00000309000024BF000038BC0000F2
:1058400070B570241E4B02001B780320191D4C43B9
:105850000C219D1C69435434FF3409188443641897
:10586000184984430D783821694309186418302198
:1058700059438443AB340918844364181249844360
:105880006418462159438443091864188443141B3F
:10589000240AE4B20133A34203DA0C4B21001B6853
:1058A00098470B4BE4001B6898470A4B0A48196855
:1058B0001030091918F004FE084B1B68984770BD9A
:1058C000D4BE0000D5BE00000309000024BF0000C4
:1058D000C0BE000038BC000048BC0000C4BE0000D0
:1058E000074B10B51B6898470648183018F030FE73
:1058F0000400054B1B689847201E00D0A08810BDEF
:10590000C0BE000048BC0000C4BE000070B5050069
:105910007020264B03241A78111D48430C21931C38
:1059200059435430FF300919A04340182049A0437F
:105930000E78382171430919401830215143A04392
:10594000AB300919A04340181A49A043401846211A
:105950005143A043091940181B021B19A043C0184A
:1059600027235A43A04312198018A0436930A0434B
:105970002521281AFCF7E4F9C6B2C0B2052805D9DA
:105980000D4B2A00310020001B6898470B4BF60096
:105990001B6898470A4B0B4819681830891918F08A
:1059A0008FFD094B1B68984770BDC046D4BE0000F0
:1059B000D5BE00000309000024BF0000C0BE0000E7
:1059C0003CBC000048BC0000C4BE000010B5020092
:1059D0000C0001230021034817F09AFE0470FCF725
:1059E000B9FB10BD0111000010B502000C0001232D
:1059F0000021034817F08CFE0470FCF7ABFB10BDD0
:105A000002110000F7B5002400900191124D2B788F
:105A1000A3421BD94426114F66433B6899190B00DA
:105A200040331B78092B02D00134E4B2EEE7009832
:105A3000203118F0A6FA0028F6D03B68019A9E198A
:105A40000736F37F534001221342EDD12878844278
:105A500080414042FEBDC046D4BE000068BC00008C
:105A6000F0B5002485B0019002910392174D2B7878
:105A7000A34225D94426164F66433B6899190B006B
:105A800040331B781A000E3A012A04D9112B02D098
:105A90000134E4B2EAE70198203118F072FA0028E4
:105AA000F6D03B68029A9E19330036331B78534078
:105AB00001221342ECD12E363378039A9342E7D178
:105AC000287884428041404205B0F0BDD4BE000039
:105AD00068BC000030B500200A240125074B196876
:105AE000074B1B780133220042438A18527A2A421C
:105AF00003D00130C0B28342F5DA30BD6CBC000087
:105B0000D4BE0000F7B5050000240A260127019144
:105B10000D4B186833006343C018437A3B4208D1E9
:105B20000A4B01341B78E4B20133A342F0DA2000BF
:105B3000FEBD037A019A9342F2D1290018F021FAAE
:105B40000028F4D1ECE7C0466CBC0000D4BE0000D5
:105B5000F7B5050000242726012701910C4B1B787F
:105B6000A34213D90B4B186833006343C0188379E1
:105B7000FF2B02D10134E4B2F0E7019A3A4093429C
:105B8000F8D1290018F0FDF90028F3D02000FEBD5F
:105B9000D5BE000070BC00000A4B18780A4B1A688A
:105BA00000230632984205D02732110027390978A0
:105BB000FF2904D0C01A43425841C0B27047013394
:105BC000DBB2EFE7D5BE000070BC0000F0B585B0D9
:105BD000012821D0022800D1BDE0002802D161496E
:105BE00018F018F805B0F0BD2A005F4B62431B683F
:105BF000D058002802D00C3817F0CDFD0134E4B2A3
:105C00005A4B1B78A342EFD80021042017F034FD33
:105C10000021062017F030FD554CF4220021200011
:105C200019F0E6F92722534B00211B7806265A4328
:105C3000514B1B681800019319F0DAF944224B4DBF
:105C400000212B785A43484B186819F0D1F90A22E1
:105C50002B78002102335A43484B1F25186819F04E
:105C6000C7F92300E122543392001A80444B0822E2
:105C70006362444B44496385444819F09DF901220D
:105C8000434B52421A60FF2105324248257719F0F2
:105C9000AFF9A31CDD7702AB3F4D5E713F4B02A90C
:105CA0002A0001201B6805319847002804D03200E3
:105CB00028003B4919F080F920230125374F02AA1B
:105CC000537102AB591D374A3B688020984702AB9D
:105CD0009E1D02A95D71320015203B680531984771
:105CE000002801D133781D402300EF331D700125BA
:105CF00002ABDE1D5D71294B02A9320019201B6821
:105D000005319847002801D133781D402300012632
:105D1000F0331D7002AB244D5E71204B02A92A00A6
:105D200016201B6805319847002800D02E70114AB4
:105D3000114B117827224A43FF211B68D2189A423F
:105D40000CD1FA22543423889200002106205A43B1
:105D500017F0F8FB46E70024442551E799712733F3
:105D6000EDE7C0466C61061868BC0000D4BE0000B8
:105D700074BC0000D5BE000070BC00006CBC00000C
:105D80001B004801070700006060061878BC00008F
:105D90008CBC000091BC000080BC0000DCBE000098
:105DA0003CE40718A7BC000060BD0000012310B54B
:105DB000094C83402268002906D08020134340010B
:105DC000236017F075F810BD9A432260FBD1802044
:105DD000400117F08DF9F6E774BC0000F8B54424D3
:105DE0001E4E4443336800211F190500FFF7DEFFF4
:105DF0000022336804371B1940331A703800FFF74C
:105E00004BF933681819C31DD97F2030FFF77AFE8C
:105E1000134B1B78013383420EDB0A22114B4243A2
:105E20001B689B185B7A9B0706D533681919CB1D35
:105E3000DA7F203109F050FD30680019C31DD97F89
:105E40002030FFF785FE084B1B78834202D90021E2
:105E50000AF018FB2800FCF7E3F9F8BD68BC000065
:105E6000D4BE00006CBC0000D5BE000000487047E6
:105E700091BC0000054BC2089B1807221B791040FB
:105E800003411800012318407047C04674BC00004D
:105E90000048704768600618024B5A330020185EAD
:105EA0007047C04674BC0000024B58330020185E97
:105EB0007047C04674BC00004423034A4343106843
:105EC000C01804307047C04668BC0000F7B509F040
:105ED0008BFC019009F0BEFC072300229C460124A4
:105EE00065464549D310CB18197E154029412142FA
:105EF00006D12100A9400D00597FA943597713E02D
:105F00003D49F031097800290ED09100019E415899
:105F1000C827711A0600090109097F019436B942A0
:105F200035D2B1560131E4DB0132252AD8D1334EC6
:105F3000300018F033F8012817D800230725012175
:105F40001F002D4CDA10A218147E2F403C410C4249
:105F500008D00C00BC402700547F3C4354770128F4
:105F600003D008000133252BEAD1002430000AF0C9
:105F70006BFC2500224B1B78A34214DC002D37D08C
:105F8000FA2200210420120117F0DCFAF7BD0027E5
:105F9000B754FA26F601B142C6D92100A9400D0036
:105FA000597F2943AAE744236343164F0193019A7B
:105FB0003B689B181A0040321278092A0BD108332B
:105FC000DA7F002A07D1012321021943022089B276
:105FD00017F0DAFB01253B68019A9B1840331B78C8
:105FE0000C2B03D13100E0B20EF0B2F80134C1E75E
:105FF000014B0333DD77C9E774BC000091BC00009E
:10600000D4BE000068BC0000F8B50023040044279B
:106010000E4A0F49037023781678B34210D2380025
:1060200058430D682818050040352D78002D0AD1F9
:1060300020222900203018F0DBFF2378B34200D360
:1060400007252800F8BD01332370E4E7D4BE000023
:1060500068BC0000014B18687047C04670BC000067
:106060001F00000000000000FF79010F0000000089
:106070000020024B0433D8777047C04674BC000040
:1060800070B522230D003E220021094817F040FB85
:1060900000260923040029000370467020220230E4
:1060A00018F08AFF2000FCF755F8300070BDC0469C
:1060B00004110000F8B53E220D00422300210F48D4
:1060C00017F026FB20260823002704000370320067
:1060D00029004770023018F06FFF2000A919320024
:1060E000223018F069FF2000FCF734F8044B31002F
:1060F0005B68044A802098473800F8BD041100000E
:10610000DCBE0000A7BC000070B511230D00094AD9
:106110000021094817F0FCFA691C04000025102230
:10612000013018F049FF20002570FCF713F8280013
:1061300070BDC0461720000001110000FA2210B502
:10614000064B920054331B88062000215A4317F057
:10615000F9F909F083FB002010BDC04674BC0000B3
:1061600010B5FFF7B3FE002010BD000078610618DF
:1061700068BD000001001200070000000961061858
:106180000400000061610618050000007160061837
:10619000060000003D61061808000000B560061802
:1061A00009000000816006180A020000D99506184F
:1061B000020200000D75061807020000717506182E
:1061C00008020000817A061803000000897F061883
:1061D00001020000C57F0618060200004D8D06185A
:1061E00003020000F1850618040200004D8706181E
:1061F00005020000198B061809020000119206180A
:1062000005110000D56C0618442130B5104B1A68F2
:10621000104B14001B78403459430023994201D19C
:10622000012030BDE05C851E012D05D8D058C07C12
:1062300000280BD14433F1E7072802D1D058407829
:10624000F6E70528F6D1D0580078F1E70020E8E716
:1062500068BC0000D4BE000030B50D4A012411789E
:1062600044220C4B4A431B680B484033D2189342DC
:1062700001D1002030BD197844331129F7D8050029
:10628000CD40290025008D43F1D10120F2E7C04621
:10629000D4BE000068BC0000AC40020002001E2317
:1062A00013B50C000B49C85C002807D1013BFAD29A
:1062B0000C212000FFF798FB002016BD00211300E1
:1062C00001910931009102200349203318F0A8FB05
:1062D0000100EEE7A8BC0000A7BC000073B50800F1
:1062E0000021FFF781FB6A460123D3716B46154EEF
:1062F000941DD91D2200822033689847002801D0C0
:106300000023237020236A46D37123780E4D002B7F
:1063100009D069462A008020336807319847002851
:1063200006D0002323700021280018F0C5FB02E0EE
:106330002378002BF7D028000022082118F092FBC8
:10634000002076BDDCBE0000A7BC000010B50A002E
:106350000A230021074817F0DBF90024FB22064B33
:10636000C2800381428083800470FBF7F3FE20002B
:1063700010BDC046011100009042000010B5002180
:106380000623074A074817F0C3F90024064B9A8CE6
:106390004280DB8C04708380FBF7DCFE200010BDA4
:1063A000232000000111000074BC000070B5002122
:1063B0000F4A09230F4817F0ABF90F4D04002B6863
:1063C0009847030AA370030C6070E370000E2B68FB
:1063D000207198470025030A6071A371030C000E19
:1063E000207225702000E371FBF7B4FE280070BD19
:1063F00018200000011100006CBD000010B50A005B
:1064000002230021054817F083F90024044B04708F
:106410001B784370FBF79EFE200010BD01110000A9
:10642000D5BE000010B50A0002230021064817F06F
:106430006FF90024054B04701B7802334370FBF79F
:1064400089FE200010BDC04601110000D4BE00002E
:1064500010B50021074A0623074817F059F902230F
:1064600000240371F93343800470FBF773FE2000AE
:1064700010BDC046022000000111000070B50723C6
:106480000A000948002117F043F9002504000749D4
:1064900006220C31013018F08FFD20002570FBF72B
:1064A00059FE280070BDC0460111000074BC0000F8
:1064B0000A0010B50A230021074817F029F909231B
:1064C000064A0381C2804380C632013302800371D1
:1064D000FBF740FE002010BD011100003A0900004A
:1064E000030070B51C88080022001B3A1221E02A24
:1064F0000BD85A88074D1300493BFF3B9BB2AB4278
:1065000003D80021044B9C84DA84FFF75FFA002053
:1065100070BDC0464841000074BC000070B50C005E
:106520000500FFF799FE0C21002809D12B780631D0
:10653000012B05D8012201001340044A5632137082
:106540002000FFF743FA002070BDC04674BC000075
:1065500070B509230021084A084817F0D9F800252A
:10656000040008220649013018F026FD200025709D
:10657000FBF7F0FD280070BD1C2000000111000099
:10658000906E061813B5010000240122034B103150
:10659000009418F0FCF8200016BDC046A16506184E
:1065A000002270B5112306000D000720110017F01E
:1065B000AFF80400290006701022013018F0FCFC2E
:1065C000200017F0C9F870BD70B50A000500072358
:1065D00000210E4817F09CF812230370297804005C
:1065E00001290AD8681CFFF7B3FA094B1B788342CC
:1065F00008D9611C09F0A4FF20702000FBF7AAFD58
:10660000002070BD02232370F7E7C046011100008F
:10661000D5BE000070B50A000500072300210E4812
:1066200017F076F8122303702978040001290AD89C
:10663000681CFFF78DFA094B1B78834208D9611C4F
:1066400009F048FF20702000FBF784FD002070BD9A
:1066500002232370F7E7C04601110000D5BE0000F9
:1066600003880C485A1E92B210B50C0012218242C7
:106670000AD8094A002154321380FA2292000620D7
:106680005A4316F05FFF00212000FFF79FF900201A
:1066900010BDC046B7A1000074BC000010B5104B7F
:1066A0000C0056331B78002B04D0FFF7D5FD0C21CE
:1066B00000280CD10B4B1A680B4B197827234B433E
:1066C000FF219B189A4207D109F09CFB0021200072
:1066D000FFF77CF9002010BD91712732F2E7C04628
:1066E00074BC000070BC0000D5BE000070B5067818
:1066F0000D0004001221012E1DD8114B56331B78BA
:10670000002B04D0FFF7A8FD0C21002813D1310085
:10671000601CFFF71DFA0B4B04001B78022183421B
:1067200009D909F08DFE2720074B44431B6800213F
:106730001C19FF23A3712800FFF748F9002070BD42
:1067400074BC0000D5BE000070BC0000F0B503783A
:1067500089B0070007910493012B06D912210798ED
:10676000FFF734F9002009B0F0BD3E4B56331B78DB
:10677000002B04D0FFF770FD0C210028EFD100247E
:10678000394B7E1C1B780593384B1D684035059BA3
:10679000A34225DC0023300004990593FFF7B2F9EA
:1067A0000022314B04921B780133834208DB0A320A
:1067B00050432F4B1B681818457AAD07EB0F049315
:1067C00030003978FFF7C4F92A4B1A788242C5D8CD
:1067D0000024294B1B680633A24211D10721BEE7D2
:1067E0002B78092B07D1290006223000203918F018
:1067F000D5FB002802D001344435C8E70123CAE79D
:106800002733190027390978FF2928D13B0017338E
:106810000693049BFD1D0293059B200001933B788A
:106820002A0031000093069B09F058FD2720124BE7
:10683000444318683B780419A3710622791C200090
:1068400018F0BAFB10220699E01D18F0B5FB2000E5
:1068500029001022173018F0AFFB00217FE7013428
:10686000E4B2B9E774BC0000D4BE000068BC00000C
:106870006CBC0000D5BE000070BC0000F8B50D0077
:106880000400FFF7C1FC0C21002805D021788B1EE5
:10689000DBB2FC2B05D812212800FFF797F8002067
:1068A000F8BD661C3000FFF72DF90D4B1B78013346
:1068B0008342F0DB0A22022142430A4B1B689A18EA
:1068C000537A0B42E7D05F0707D58B4353723100F1
:1068D000227809F0A3F80021DEE70321F5E7C0469E
:1068E000D4BE00006CBC0000F8B50D00FFF78CFCB6
:1068F0000C2100281BD000240A26012731000F4B51
:1069000061431B6859184B7A3B4208D05A0713D58C
:106910000222934320000A7A4B7209F07FF8084B59
:1069200001341B78E4B20133A342E7DA00212800E6
:10693000FFF74CF80020F8BD0322EAE76CBC00002A
:10694000D4BE0000F7B505000191FFF75DFC0C26F1
:10695000002805D029788B1EDBB2FC2B06D8122626
:1069600031000198FFF732F80020FEBD6F1C38009F
:10697000FFF7C8F81B4E040033780133834227DB4E
:106980000A22194B42431B689B185B7A9B07E6D48B
:106990000A236343144E0093009A33683900981811
:1069A000062218F009FB3368009A29789B18032205
:1069B000587A197202435A723800FFF723F80026FA
:1069C000B042CDD1390020002A7808F085FFC7E712
:1069D000FFF780F833780400023307269842D7D1B6
:1069E000BEE7C046D4BE00006CBC0000F8B5164E31
:1069F00005000436F37F0F000C24002B04D104792A
:106A00001F339C4306D0122438002100FEF7DEFF1E
:106A10000020F8BD17F0C2FA0138C0B22428F2D81D
:106A200029000522094818F0C7FAFA22210092002D
:106A3000052016F087FD012321000420F37716F0CE
:106A40001BFEFFF743FADFE774BC00008CBC0000BC
:106A5000F7B5050000240191384B1B78A3420DD8EF
:106A60003749280017F08DFA1221041E61D1290040
:106A70000622344818F0A0FA21005AE04423634368
:106A80000093314B009A1B689B181A004032127811
:106A9000911E01292DD92C4F009A3B689B181A0092
:106AA00040321278072A0CD11E68002E04D1274BE1
:106AB000210003201B689847022233789343012B5F
:106AC00032D0009A3B689B181A0040321278052A8F
:106AD0000CD11E68002E04D11C4B210003201B6822
:106AE0009847022273789343012B1DD00134E4B2FE
:106AF000B2E71749EE3109780129CCD11E68002E82
:106B000004D1124B210003201B6898471023728880
:106B10001A4204D10D4B210003201B689847022222
:106B2000F37A9343012BB6D1044B0C211B78A3427B
:106B300096D90198FEF74AFF0020FEBDD4BE0000A2
:106B400042E4071886BC000068BC000024BF0000B7
:106B500074BC000070B509230021094A094816F0E9
:106B6000D7FD0400FFF794F9002501000822601CFE
:106B700018F022FA20002570FBF7ECFA280070BD0F
:106B8000032000000111000070B50C00074D082221
:106B90000100280018F010FA28000421FBF760FB20
:106BA00020000021FEF712FF002070BD78BC00001D
:106BB00010B50C000221FBF753FB01002000FEF78B
:106BC00005FF002010BD10B50C000321FBF748FBAA
:106BD00001002000FEF7FAFE002010BD10B50C00E9
:106BE00081880088FDF7CAF901002000FEF7EEFE5B
:106BF000002010BD007810B50C001221032804D825
:106C000001231840FDF7C4F901002000FEF7DEFE65
:106C1000002010BD70B50A0009230021084816F0B5
:106C200077FD082204000021013018F0E1F9002569
:106C30006023200025706371FBF78CFA280070BD7B
:106C40000111000070B541230A000B48002116F025
:106C50005FFD04002A220949013018F0ADF9200037
:106C60000025162200212B3018F0C2F920002570D3
:106C7000FBF770FA280070BD01110000046D0618C2
:106C800010B50C0016F052F820000021FEF79EFE11
:106C9000002010BD10B503000C4A00780C001278DB
:106CA000002803D05988914203D29888FDF792F9C1
:106CB00009E00022064B110001201B6898471221B1
:106CC0002000FEF783FE002010BDC046D4BE0000A9
:106CD00024BF0000002270B50C001900084BD00042
:106CE000C518185A884205D16B68181E01D02000BB
:106CF000984770BD01322C2AF1D10020F9E7C04637
:106D0000306D06182000800000C000000000E40084
:106D100000002822000000000000040000F7FFFF30
:106D20007F00000030F0FFFFFFFFFFFFFF170000B4
:106D3000030C0000816C061801100000B1640618F5
:106D4000091000007D64061802100000456C06184A
:106D500003100000156C0618010C0000C76B061824
:106D6000630C0000B16B0618310C0000F56B0618BF
:106D7000330C0000DD6B0618350C0000956C06180E
:106D800001200000896B06180220000051640618DB
:106D900003200000556B061805200000516A0618F4
:106DA00006200000D56F0618082000003D71061867
:106DB0000A2000008D72061809200000E5710618EF
:106DC0000B200000917C06180C200000B17D0618F5
:106DD0000D200000898F061814200000ED690618A8
:106DE0000F2000002564061810200000E96806182E
:106DF0001120000045690618122000007D68061861
:106E00002A200000FD630618272000004D670618A1
:106E100028200000ED660618292000009D6606184F
:106E20002E200000616606182D2000001D65061842
:106E30002B200000156606182C200000C9650618D6
:106E4000172000008565061818200000AD6306189D
:106E50001C20000051650618232000007D630618E1
:106E600024200000E16406182F2000004D6306185E
:106E70001D200000019606181E2000003B960618F3
:106E800025200000DD620618262000009D620618FD
:106E9000FFFFFFFFFF03000070B544251D4C454375
:106EA00023685B59002B05D000221B4B11000120E9
:106EB0001B6898470022236811005E1910001A23EE
:106EC00016F026FCFF2330602068002645192C6848
:106ED00031002370EC3B638080231B01A3800823D7
:106EE00020002381013BE6806381267306220D305A
:106EF00018F07EF88023FF33A3827F3BE382074BA9
:106F0000E6742683DA682A631B8AAB860123403540
:106F10002B7070BD68BC000024BF000074BC000072
:106F200070B514000F4B06001A78E3B20D009A42B8
:106F300005D80D4B220003201B68E1B29847002EB4
:106F40000FD14420E4B24443084B186800190300F1
:106F500040331B78022B04D106222900363018F06A
:106F60002BF870BDD4BE000024BF000068BC000038
:106F7000F7B50D0000240190134F3B78A34202D8CF
:106F8000FF242000FEBD4422104B62431B689B1867
:106F90001A0040321278511E022902D90134E4B29B
:106FA000EAE71E68002E04D1094B210003201B686C
:106FB00098473378019A9342F0D13B78A342DFD9C6
:106FC000002DDED02E60DCE7D4BE000068BC0000DF
:106FD00024BF0000F0B5544B87B00391EE331A780C
:106FE0000400022A00D19DE001220021FF201A7036
:106FF000FFF7BEFF04AAD51D03002870FF2813D099
:107000004A4A106844225343C01840300378012B89
:1070100000D087E02379042B0FD912210398FEF7C3
:10702000D5FC002007B0F0BD2800FEF7EDFF011EE3
:10703000F4D12878FFF730FFECE7012B09D0218845
:1070400062889142E9D81F29E7D98021C9018A4283
:10705000E3D8627B013A062ADFD8A27B032ADCD878
:107060006279032AD9D8A279012AD6D8012B03D074
:1070700000220292042B07D12D49E01D16F081FF5A
:107080000028CAD101230293442300212A78274FE4
:1070900053433A68D3181D68264A28000193237980
:1070A0000D30D35C6B80638869721A0A2A72EB71A7
:1070B0002388A971AB80637B0622AB726679E11DE0
:1070C000EE72A3792B7317F077FF0023029A9A428E
:1070D00000D1A37BEB74032E1DD83000019B124915
:1070E000303317F03DFF02120212019AC868106394
:1070F0000A8A9A80442204ABD9793B684A439B1898
:107100000122403300211A7088E70622180012314C
:1071100017F052FFEEE7084B0022310003201B68F6
:107120009847E7E70C2179E774BC000068BC0000D1
:1071300042E407189C7B061824BF0000F0B5274BDB
:1071400085B00191EE331A7805000C21022A38D05F
:1071500001221A70037806311F2B32D80021FF203C
:10716000FFF706FF02ABDE1D3070FF2807D13000AD
:10717000FEF74AFF011E24D13078FFF78DFE44222E
:107180003378174F53433A68D3181B8C0093FEF79C
:10719000A7FB0721041E14D021002A78681C15F0D3
:1071A0007BFD442230783B68424329789B181C843D
:1071B000598440331B78022B09D122000CF0F6F8D9
:1071C00000210198FEF702FC002005B0F0BD009BF5
:1071D000002BF5D01800FEF799FBF1E774BC000016
:1071E00068BC0000F0B5274B85B00191EE331A78EA
:1071F00005000C21022A38D001221A7003780631CA
:107200001F2B32D80021FF20FFF7B2FE02ABDE1D9C
:107210003070FF2807D13000FEF7F6FE011E24D1A2
:107220003078FFF739FE44223378174F53433A68DA
:10723000D3181B8D0093FEF753FB0721041E14D0B7
:1072400021002A78681C15F027FD442230783B681D
:10725000424329789B181C85598540331B78022BA3
:1072600009D122000CF0D0F800210198FEF7AEFB06
:10727000002005B0F0BD009B002BF5D01800FEF7F4
:1072800045FBF1E774BC000068BC0000F0B5964B0C
:1072900093B004900591EE331A78022A14D001229B
:1072A0000021FF201A70FFF763FE06AB9C1C049BB5
:1072B00020701B78002B03D0012B26D012210FE168
:1072C0008A4B1B78834201D80C2109E144252A000E
:1072D000874E424333689A1840321378022BF3D119
:1072E0000CF02AF8011E00D0FAE0227833685543EA
:1072F0005D19032340352B70049B00211B78002B64
:1073000000D0EDE0002013B0F0BD784B1B78834235
:1073100069D94422764B50431B681B1840331B78B5
:10732000012BD1D106ABDD1C00232B70704B2178D3
:107330001A6844234B439C58E37ADB075CD4638888
:10734000DB0711D52800FEF75FFE011E00D0C7E065
:107350000C2362881A4207D02000217B0D30FEF7F3
:1073600051FB002800D0BAE00A262100638807AD4F
:1073700002932B83637A227A1B0412021343E2796D
:107380000D311343EB60A37A06226B77E37A019306
:10739000AB77237B0393EB7706ABF618300017F03F
:1073A0000BFEE27C06AB0533DA77227D06AB0633B3
:1073B000DA77637D06AA0732D377A17D08AAD17751
:1073C000092206A95218D377237EF3770B23627E16
:1073D0005B18DA77019B4449DB0715D4CB68079328
:1073E0000B8AAB8015E02000FEF70EFE011E77D160
:1073F0002078FFF751FD95E73E493F4816F0C1FD63
:10740000002800D05AE79AE706222800123117F028
:10741000D3FD442206AB9F1C3B78354D5A432B6865
:107420002C209A18118C07AB1982518C334E9982FB
:10743000118D5982528D06A9DA8200225A831A7759
:10744000294B09AA56331B780918D37732780A706A
:10745000002B02D0029B5B0702D4019B9B0720D527
:10746000200003990D30FEF773FB2C2206AB9B180E
:1074700018703378834214D9E37A9B0711D52726F5
:107480001F4B70431E681F493618073630001C3AE0
:1074900017F084FD002804D030003A781A4917F01C
:1074A00047FA07A938780CF013F8011E18D14420C8
:1074B0003A78296842438B181A0002254032157029
:1074C0006288D20700D417E706AAD4783E331C702E
:1074D000030004226343CB1840331A700CE70B21DE
:1074E0000598FEF773FA0DE774BC0000D4BE0000E7
:1074F00068BC000042E4071886BC0000D5BE00004E
:1075000070BC000048E40718216F0618442270B5CB
:107510000D000978134B4A431B689B181E684033C3
:107520001A78931E012B03D90F4B03201B68984731
:10753000737E002B14D009233E2200210B4816F045
:10754000E7F81323040003703378062243706B7846
:10755000A91C8370033017F02FFD2000FAF7FAFD05
:10756000002070BD68BC000024BF000004110000B2
:10757000F0B544250B7895B004936B437F4E02938E
:10758000029A33680C009B181A003E3212781F686A
:10759000019240331A78032A22D1794D2B00EE3321
:1075A0001B78012B09D100217648FEF70FFA3368CA
:1075B000029A9B18403301229DE02B00ED3319788D
:1075C000002904D1704B0A0001201B689847ED3553
:1075D00029780139C9B229700029E8D16B48E4E75C
:1075E0000A001532039220321278002A00D1EDE110
:1075F0000B00373319780398FEF704FA059000283A
:1076000000D1C9E00C237A881A4205D000225E4BD3
:10761000110001201B6898477D8806AB1D837B7A8B
:107620003A7A1B0412021343FA793900134309937F
:10763000BB7A06AA5377FB7A0D3103931300039AA2
:107640009A7706223E7B9818DE7717F0B5FC042166
:107650002A000A40944600230D4200D1FB7C06A973
:107660000131CB77397D06AB0233D9777B7D06A913
:107670000331CB77B87D07A9C87706A90531CB7749
:10768000397E06AB0633D977797E3C4D06AB07339E
:10769000D9772B68029928225B18196B06A80691E6
:1076A0009B8E06A98B8000234B830B77344B08A954
:1076B00056331B788018CB77354909780170002B39
:1076C00002D06346002B02D1039B9B0708D53800EC
:1076D00031000D30FEF73CFA282206AB9B181870DB
:1076E000049806A90BF0F4FE002806D1029A2B6834
:1076F0009B18022240331A7005E00022224B110031
:1077000001201B6898477B88DB0708D54422019934
:107710001A4B4A431B689B18002240331A70637847
:107720003C2B00D1E9E0164BEE331B78022B1AD12B
:10773000230035331B78002B02D16378002B12D045
:1077400008233E220021134815F0E2FF12230370A4
:107750006378383443703B788370019B838023784F
:107760008371FAF7F7FC054B029A1B6800209B18FF
:10777000FF223E331A7015B0F0BDC04668BC000051
:1077800074BC00000A20000024BF00003920000063
:10779000D5BE0000041100000422A11C06A817F0A9
:1077A0000BFC0322A11D07A817F006FCE37E06AA26
:1077B000D371E36906A80893236A0993636A0A935D
:1077C000230024331A790AAB1A71230029331B785A
:1077D00006AA537523002A331B7806321374A38D2F
:1077E0005382236B0D93059B0E930123D3772200C5
:1077F0003432117806AA0532D17722003632117858
:1078000006AA0732D1777A881209934308AAD37758
