:020000041805DD
:10E0A80010B5024B01221B68984710BDA4BA0000A6
:10E0B80010B5024B00221B68984710BDA4BA000097
:10E0C80010B5024B01221B68984710BDA4BA000086
:10E0D80010B5024B00221B68984710BDA4BA000077
:10E0E800F8B500262A4D04002E701FF0F1FE294BCA
:10E0F80030001A68284B92B219681FF071FB274B41
:10E1080001201A68264B92B219681FF069FB254B4B
:10E1180002201A68244B92B219681FF061FB287814
:10E1280020F078FC2149300020F0B0FE287800F07B
:10E138008BFA287803F012FB28781EF0A7FEB44269
:10E1480009D01B4B9C4202D01A4B9C4208D11A4B57
:10E1580020001B68984701232B701EF0BFFDF8BDF7
:10E1680001231022310015481FF0B0FA144B0700A4
:10E178009C4205D101230370380000F0A3F9EAE7B7
:10E18800104B3200210003201B689847F4E7C04673
:10E1980020BF0000C8BE0000A0BE0000CCBE00002A
:10E1A800A4BE0000D0BE0000A8BE000068CD0718BD
:10E1B800A5A5A5A5C3C3C3C3D8BE0000031100000D
:10E1C800F2F2F2F224BF0000F7B51022664B1D6888
:10E1D80015420BD00121654B49421A60644B196006
:10E1E80064490B6893430B6002F016FC2022154229
:10E1F8000BD001215D4B49421A605D4B59605D4966
:10E208000B6893430B6002F037FB0124254234D09E
:10E21800564B574E1C60738B23422ED068461EF017
:10E22800FBFD544B009F1A68A2431A6032681C0019
:10E23800531C0AD0974208D1012310225B42336055
:10E2480023689343236002F0E7FB73685A1C0AD0E3
:10E258009F4208D1012320225B42736023689343C5
:10E26800236002F009FBB3685A1C03D09F4201D116
:10E278001EF090FD01201EF015FF80242402254287
:10E2880003D002F075FD394B1C6002231D4249D0B2
:10E29800364E08203360384B1F681EF003FF0120FC
:10E2A8001EF0E0FD354B9F4205D90022344B11008A
:10E2B80001201B6898473D242D4AF9001369FB1873
:10E2C80067435B18180A3F18DBB2136138002D4901
:10E2D800FFF7EEFE80232C4A1B06034313609C23A2
:10E2E800284C9B004443E41BE418A4B2A30A05D0BD
:10E2F8000022234B110001201B6898470821234B5B
:10E30800234A1C6013680B4313601A4A2149136897
:10E318000B400121136013688B430B43136031607A
:10E3280020F00EFE40231D4203D0104A13601EF059
:10E3380031FD042425420BD00C4B10201C601EF02C
:10E34800B1FE0C4A01201368A34313601FF050FD6F
:10E358000822154207D0054B06491A600B689343FB
:10E368000B6002F001FBF7BD1C00005020000050BC
:10E3780034BF000018000050380000507F841E0091
:10E3880024BF00007102000044000050400000500B
:10E3980030000050FFFFFF8F70B580256D020B4ADB
:10E3A8001368002B11D02B42FAD0094B094C1D6081
:10E3B800094B032019681A682368120C9847002231
:10E3C8000120110023689847E9E770BD100000504C
:10E3D8001400005024BF00006000005010B5034B2B
:10E3E8005B8BDB0701D41FF047FD10BD34BF000075
:10E3F8000120704701207047F8B507000E0015008E
:10E40800034C200020F042F8A760E6602561F8BDC3
:10E418005CBF0000F0B59C27002685B000900191F4
:10E42800BF00124D009B6A6901369C18019BAA69BE
:10E4380024019B182409BB4204D90D4A0134240144
:10E4480024099B186C61AB6102A81EF0BFFF029BF8
:10E4580001331C1B074B240124099C42E1D968693C
:10E46800A9691EF043FE300005B0F0BD5CBF000096
:10E4780090FDFFFFFEFFFF0773B56C460E00050019
:10E4880020001EF0A3FF044B2800143306CC06C35B
:10E498003100FFF7BFFF73BD5CBF0000083810B53F
:10E4A80001000400064820F059F8002807D0A08889
:10E4B800FF22E1881FF048F920001FF037FA10BD4D
:10E4C8005CBF0000F8B506000C3883881D4A9342EB
:10E4D80005D01D4A934223D000F02CFB1FE0037A9D
:10E4E8003F2B1FD85A1ED2B21849D4080F5D0724F3
:10E4F8000125224017412A00BA432F420BD03E2B58
:10E5080009D13278013AD3B2DA0889180A7C234053
:10E518001A4195432A00002ADED01FF024F9F8BDDD
:10E528003E23DFE7582BD7D8403BDBB2074AD90850
:10E5380052180721127A0B401A41130001229A43FC
:10E54800E9E7C0460311000004110000ACBA00005E
:10E5580070B50C4B04001A78824204D80A4B0100AB
:10E568001B6803209847094D2B681B5D002B05D0BD
:10E578000022054B110001201B68984701222B68D7
:10E588001A5570BDD4BE000024BF0000A8BA000010
:10E5980070B50C4B04001A78824204D80A4B01006B
:10E5A8001B6803209847094D2B68195D002904D181
:10E5B800054B0A0001201B68984700222B681A5552
:10E5C80070BDC046D4BE000024BF0000A8BA000039
:10E5D800030010B504292AD8080020F0BDFC030365
:10E5E800091023000A000320144B1B68984717E002
:10E5F800082219001248801820F0DAFC10E0104CAC
:10E6080019002000082220F0D3FC002320000D4C24
:10E618000278195D01330A4302700130082BF7D1E3
:10E62800002010BD0648082219001030E4E7002237
:10E63800024B110001201B68D8E7C04624BF000028
:10E64800ACBA0000B4E6051870B502230500040052
:10E658009D4315D1182229000B4820F0C5FC0B4B0F
:10E6680029001A780A4B186820F0BEFC03210948D3
:10E67800FFF7AEFF04210848FFF7AAFF01F030FEBC
:10E68800200000F0DDFA70BDACBA0000D4BE000076
:10E69800A8BA0000A4E60518ACE60518FFFFFFFFBE
:10E6A800FF9F00201F000000000000000060040021
:10E6B800F8074002F0B5A54B87B01C68002C09D1BB
:10E6C80001F050FE002800D18BE0A04B9C68002C84
:10E6D80000D186E09D4B1C61A1889D4BC818052878
:10E6E80000D92AE120F04CFC060058007F00D00039
:10E6F80029011101954B5B7D5BB2042B02DC934A27
:10E70800013353750E26E31D0393258902ABF618D2
:10E7180063892800338001F0F1F9021E1FD0338885
:10E72800002B1CD08768002F17D0200092780C305F
:10E738007F2A0DD80100320000971FF041FC01002C
:10E74800002910D02A00834B1B68032098470AE051
:10E7580001003200B847C1B2F2E70421F2E7002D08
:10E7680015D0012323730E23E3713288774B0332CC
:10E77800D2B222725B7D191C5BB2002B00DA002139
:10E78800A5722D0A6172E5720420023222E0714BF3
:10E79800290032881B68D8E76C4B5B7D5BB2042B81
:10E7A80002DC6A4A013353750F22E31D0393E271B9
:10E7B8000B3A23892272227B6272644A527D111CB1
:10E7C80052B2002A00DA002104200622E3721B0A52
:10E7D800A172237300235D490B755F4B039920F0E9
:10E7E80081FB07B0F0BD23000E270A33039302AB69
:10E7F8002189FF186389CEB23B80FF2904D9554B84
:10E80800002203201B689847300001F0A9F9021E76
:10E8180033D04568002D19D0200092783B880C3001
:10E82800002A0ED100953A0001001FF0C9FB05002F
:10E83800002D0ED0474B3200290003201B68984753
:10E8480008E03A000100A847C5B2F1E76389002B48
:10E8580011D1002562893B889A4205D23D4B32008E
:10E86800290003201B6898470E2302AAA6729B184A
:10E878001B88E37206E00425DCE7364B31000320F1
:10E888001B689847E27A7FE723000A33267B0393C5
:10E89800638902AA3000D38101F074F9021EECD01A
:10E8A8004568002D2FD02000927802ABDB890C3010
:10E8B800002A21D102A90E320095521801001FF03A
:10E8C8007FFB0500002D05D0224B320029000320D4
:10E8D8001B6898470E2702ABFF18398863898B425B
:10E8E80004D21C4B320003201B689847002DC9D165
:10E8F8003E23A3723B88BCE70E2202A952180100EE
:10E90800A847C5B2DEE70425DEE7216913480A1FD8
:10E918000918A389039112491248535412491B0A32
:10E928005354E38911495354190A1154DAB20902AC
:10E938000A430432022092B24CE7064B002203201D
:10E948001B68984700200200039043E7C8BA0000FC
:10E95800FFEEFFFF24BF000079E90518FC3F0050D7
:10E968000040005003400050014000500240005059
:10E978002E4B70B52E4C1B68256998472D4BAA88DD
:10E9880006009A4212D12B7B022B04D002221900D6
:10E9980091430D2924D1217E002905D1264B0A0057
:10E9A80001201B68984701E001392176012323756E
:10E9B800A988224B99421BD8053B99422FD9236934
:10E9C800002B03D020001FF0BFFD050028001EF01B
:10E9D800CAFE1B4B30001B689847FFF76BFE70BDE3
:10E9E800152BE3D1E17D0029D8D00139E175DDE7A8
:10E9F800144B994213D1200008301FF0A5FD124B8B
:10EA08001A78AB891B051B0D9A4203DD2B6998B256
:10EA180003F040F80023236101F08EFCCFE7064B9A
:10EA2800002203201B689847C9E7C046C0BE000003
:10EA3800C8BA00000411000024BF0000051100003E
:10EA4800C4BE000006110000D4BE0000F0B587B0B7
:10EA580006000D001700039300285AD08468002C84
:10EA68004FD083787F2B29D80E2202A95218002173
:10EA780000940800294B1FF0A9FB0400002C38D192
:10EA8800B368022218002649029320F083FA0E2365
:10EA980002AA9B181E88002819D12A0021003300D9
:10EAA80020481EF013FE022204000770023003996A
:10EAB80020F07EFA2000FFF705FD20E000230E225B
:10EAC80002A9521818001900A047C4B2D6E70322B9
:10EAD8001549029820F05EFA33002A002100002828
:10EAE8001AD110481EF0F2FD06220400077001300A
:10EAF800DDE70E4B2A00210003201B68984707B06A
:10EB0800F0BD0A000123210009481EF0DFFD07704F
:10EB1800D1E70A00012301000248F6E7FFFF0000E1
:10EB28000A8E06180111000009FC051824BF000010
:10EB3800021100003C4B70B505001B689847AB8874
:10EB48003A4A06003A4C934205D120002900083081
:10EB58001FF0B2FC50E0374A934207D12B7B0F2BB2
:10EB680030D006D8022B27D00D2B0AD02900200040
:10EB7800EEE7152BFAD1E37D032B3AD80133E37581
:10EB8800F4E7EB89E97D5B069B0F01290DD1627ED5
:10EB9800022A3BD0002A02D1227E032A36D8013B22
:10EBA8005A425341DAB2002333E0A27EF0E7012350
:10EBB80000222EE0A2762FE00323227E93429B417F
:10EBC8005B4229E01C4AA97B1068EB7C4218415C37
:10EBD800022924D0002902D1217E03291FD8013B14
:10EBE80059424B411370237E01332376BEE700233D
:10EBF800137028001EF0B7FD104B30001B689847B3
:10EC0800237D012B01D1FFF755FD70BD012BCED11E
:10EC180002220129CED16276002BE4D0E9E7012B4C
:10EC2800E5D10223E4E7C046C0BE0000061100009B
:10EC3800C8BA000004110000C4BA0000C4BE000035
:10EC480070B5051E0C4C14D101001C22200020F0C8
:10EC5800CBF90A4B29001A78094B186820F0C4F937
:10EC680020001FF013FC200008301FF00FFC0123C8
:10EC780023750523637570BDC8BA0000D4BE0000B3
:10EC8800C4BA000010B500F039FFFF23002800D0F7
:10EC9800C378D8B210BD0000F0B589B00500039163
:10ECA800029200F02BFF5D4C0700637D7F2B05D996
:10ECB80000225B4B110001201B689847594B9D426D
:10ECC80002D0637D013B6375002F00D1A2E0637D14
:10ECD8007F2B00D96DE00F21BB78049319400829D8
:10ECE80046D8080020F038F905260526444444444F
:10ECF8004B0000260E2204ABD21800239C4613803A
:10ED0800039B634542D07C68644555D040216B46DF
:10ED180004989B89084005900498084231D10094D2
:10ED2800029905981FF052FA0400012C2FD10023F4
:10ED3800122218E0039B012B13D9029B029A5B78DD
:10ED480012781B021343384A12789A4209DD374A6F
:10ED58001268D25C002A04D001221B0213439EB21F
:10ED6800C8E70222029B29003800FFF76FFE04E083
:10ED78002B4B2A0003201B68984709B0F0BD0226D8
:10ED8800B8E760460299A047C4B2CEE7039C04AB3B
:10ED980031002A00DB8926481EF098FC0600002C6A
:10EDA80005D01F4B2A00210003201B689847002E1E
:10EDB80004D100230722D6E70424E8E704ABDB8963
:10EDC800002B12D07B689C46002B0ED06B46BA787D
:10EDD8009B89520615D4624600920E2204A9521845
:10EDE800300002991FF0F2F90400002C05D00C4BFA
:10EDF8002A00210003201B68984730001EF08AFC77
:10EE0800BBE70E2204A96446521830000299A047B5
:10EE1800C4B2EAE73B000122A5E7C046C8BA000031
:10EE280024BF0000350C0000D4BE0000A8BA0000C2
:10EE38000511000070B5134A0C0011780205030093
:10EE4800120D002091420BDD9B0B834208D1180064
:10EE5800FB2C05D802F064FE011E02D00A4BC01834
:10EE680070BD01231A2209481EF030FC01250570E7
:10EE7800FFF728FB290020001EF0CCFC044B9D75F1
:10EE8800EEE7C046D4BE0000004000500311000069
:10EE9800C8BA0000F8B5174B06009C7D0D00170096
:10EEA800002C06D010001EF041FD0023114A937576
:10EEB800F8BD114B01051B78090D8B4212DD0123AA
:10EEC8000902194322000D4889B207331EF0FEFBE0
:10EED80006804580002D01D0094BFC1844601EF0C7
:10EEE80019FCE5E7074B0200290003201B68984737
:10EEF800DEE7C046C8BA0000D4BE00000611000014
:10EF080000C0FFAF24BF0000F8B50D0006A90E78B9
:10EF18000168070088190124824211D31C1E09D0F8
:10EF28002A6828689419A342A44132006442640004
:10EF380020F03EF83B689B193B602B689E192E60B9
:10EF48002000F8BDF0B589B0050002910392069142
:10EF5800002940D0CE18012317880790C7190093BD
:10EF680032003B0007A906A8FFF7CEFF0400031EE6
:10EF780026D0079B5D1B039B1D80200009B0F0BDB8
:10EF8800013305935B000493EB18079302233200C7
:10EF9800009307A93B0006A8FFF7B6FF002818D181
:10EFA800049A07A90232AB18079302233200009390
:10EFB80006A83B00FFF7A8FF00280AD16B461B7D77
:10EFC8000299079A0978521B9942D2D9062AD7D9A9
:10EFD800CFE70400CDE70623039A029C1380CCE711
:10EFE800F0B599B01D0002903A23081E05920791CA
:10EFF80060D0029B002B61D001271488029B1C194A
:10F008000126029B451908932A002300009608A9A7
:10F0180007A8FFF779FF002849D1029B2A009B190E
:10F0280008930096230008A907A8FFF76DFF00289A
:10F038003DD1029B2A00023308930096230008A9B9
:10F0480007A8FFF761FF002831D1029B2A0003338C
:10F058000893062308A9009307A82300FFF754FF85
:10F06800002824D1029B2A00093308930096230024
:10F0780008A907A8FFF748FF002818D1029B597A6A
:10F088000390002921D1039B032B04D9434B0A0089
:10F0980001201B6898477F4200233C400227029EBC
:10F0A80004931836039B049A934216DC0020089BAD
:10F0B800029A9B1A059A138019B0F0BD4E2404AB2E
:10F0C800E41809AB029F02939AE7314203D0039BED
:10F0D8000133DBB203934908D3E733000E3B0893AF
:10F0E8002A002300009708A907A8FFF70DFF0028AA
:10F0F800DDD133000C3B08932A002300009708A9B0
:10F1080007A8FFF701FF0028D1D133000A3B089375
:10F118002A002300009708A907A8FFF7F5FE002892
:10F12800C5D13300083B08932A002300009708A99B
:10F1380007A8FFF7E9FE0028B9D1B31F08932A00F2
:10F148002300009708A907A8FFF7DEFE0028AED124
:10F15800331F08932A002300009708A907A8FFF780
:10F16800D3FE0028A3D1B31E08932A0023000097DA
:10F1780008A907A8FFF7C8FE002898D123002A008D
:10F18800009708A907A80896FFF7BEFE10360028C2
:10F1980000D08CE7049B0133049383E724BF00006D
:10F1A800F0B58DB0070003920691002900D176E0F2
:10F1B800002843D015880122451904920126CB184E
:10F1C8000293029A2B00009607A906A80797FFF753
:10F1D8009BFE041E2BD1BB190793029A2B000096A5
:10F1E80007A906A8FFF790FE041E20D1BB1C0793B1
:10F1F800029A2B00009607A906A8FFF785FE041EB1
:10F2080015D1B97800291DD1022C04D9264B0A0042
:10F2180001201B68984706203E006043049B5B4220
:10F228001D40C3190593059BB34211D10024079BC8
:10F23800D81B039B188020000DB0F0BD04900CADC6
:10F2480008AFBBE7314201D00134E4B24908D9E73D
:10F25800331D07930123029A009307A92B0006A8E0
:10F26800FFF752FE041EE2D1B31D04930793022355
:10F27800029A009307A92B0006A8FFF745FE041E73
:10F28800D5D10223029A009308362B0007A906A8B5
:10F298000796FFF739FE041EC9D1049EC3E7102361
:10F2A800039A0C001380C6E724BF0000F0B58BB0AA
:10F2B80007000C1E0492069166D0002832D01588EB
:10F2C8000122451905920126E3180393039A2B009E
:10F2D800009607A906A80797FFF716FE041E1AD17D
:10F2E800BB190793039A2B00009607A906A8FFF7F6
:10F2F8000BFE041E0FD17B783F2B05D9244B02004F
:10F3080001001B6830009847059B5E423540002687
:10F318007B78B3420AD8079BD81B049B188020002F
:10F328000BB0F0BD05900AAD08AFCCE7B31C059350
:10F33800FB1807930123039A009307A92B0006A83B
:10F34800FFF7E2FD00281DD1059A07A95300022204
:10F35800FB18079300922B00039A06A8FFF7D4FD29
:10F3680000280FD1B31DFB1807930123039A0093BC
:10F3780007A92B0006A8FFF7C7FD002802D1013610
:10F38800F6B2C5E70400C6E70823049A1380C6E767
:10F3980024BF0000F0B5B7B007001D000392002994
:10F3A80000D1C7E0002800D1A2E016888619012301
:10F3B8004D1900932A00330008A907A80897079752
:10F3C800FFF7A2FD041E00D08BE0BB1C07930223AD
:10F3D8002A00009308A9330007A8FFF795FD041E2B
:10F3E80000D07EE03B1D079301232A00009308A963
:10F3F800330007A8FFF788FD041E72D17B1D079311
:10F4080001232A00009308A9330007A8FFF77CFD11
:10F41800041E66D1BB1D079302232A00009308A986
:10F42800330007A8FFF770FD041E5AD13B000833CC
:10F43800079301232A00009308A9330007A8FFF7C0
:10F4480063FD041E4DD13B000933079301232A00B5
:10F45800009308A9330007A8FFF756FD041E40D102
:10F468003B000A33079301232A00009308A93300BD
:10F4780007A8FFF749FD041E33D13B000B33079360
:10F4880001232A00009308A9330007A8FFF73CFDD1
:10F49800041E26D13B000C33079302232A00009355
:10F4A80008A9330007A8FFF72FFD041E19D1BB7B5D
:10F4B8002A0004933B000E330793012308A9009305
:10F4C80007A83300FFF720FD041E0AD1049B02970A
:10F4D8005B00DB19059301230493059B029A934271
:10F4E80009D1089BD81B039B1880200037B0F0BDBA
:10F4F80036AE09AF5BE7029B2A000F330793049BE4
:10F5080008A9009307A83300FFF7FEFC00280FD1D5
:10F51800029B2A0010330793049B08A9009307A8AD
:10F528003300FFF7F1FC029B023302930028D4D08A
:10F538000400D6E7039B0C001980D6E7F0B5B7B0F6
:10F5480007001D000492002900D1B8E0002800D16E
:10F5580093E01688861901234D1900932A00330079
:10F5680008A907A808970797FFF7CEFC041E00D044
:10F578007CE0BB1C079302232A00009308A93300F0
:10F5880007A8FFF7C1FC041E70D13B1D0793012398
:10F598002A00009308A9330007A8FFF7B5FC041E4A
:10F5A80064D1BB1D079302232A00009308A93300E6
:10F5B80007A8FFF7A9FC041E58D13B00083307939E
:10F5C80001232A00009308A9330007A8FFF79CFC31
:10F5D800041E4BD13B000933079301232A000093F3
:10F5E80008A9330007A8FFF78FFC041E3ED13B0093
:10F5F8000A33079301232A00009308A9330007A8B8
:10F60800FFF782FC041E31D13B000B330793012323
:10F618002A00009308A9330007A8FFF775FC041E09
:10F6280024D13B000C33079302232A00009308A936
:10F63800330007A8FFF768FC041E17D1BB7B2A001C
:10F6480005933B000E330793012308A9009307A8ED
:10F658003300FFF759FC041E08D1059B03975B0094
:10F66800DB190593059B039A934209D1089BD81B84
:10F67800049B1880200037B0F0BD36AE09AF6AE7AA
:10F68800039B2A000F330793012308A9009307A8B7
:10F698003300FFF739FC00280FD10123039A0093A8
:10F6A80010323300079208A92A0007A8FFF72CFC9C
:10F6B800039B023303930028D4D00400D6E7049BAD
:10F6C8000C001980D6E7F0B5C9B00C001D000290F7
:10F6D8000592002900D1E2E000282ED0168886196C
:10F6E800029B65190793069301232A00009307A933
:10F6F800330006A8FFF708FC041E16D1029B2A0057
:10F7080001330693012307A9009306A83300FFF7E6
:10F71800FBFB041E09D10123029F049019370393B0
:10F72800029B049A5B7893420BDC079B029A981A17
:10F73800059B1880200049B0F0BD08AB48AE029385
:10F74800CEE73B00173B069302232A00009307A944
:10F75800330006A8FFF7D8FB002800D09DE03B0047
:10F76800039A153B0693009233002A0007A906A8BE
:10F77800FFF7CAFB002800D08FE03B00143B06933C
:10F7880006232A00009307A9330006A8FFF7BCFB4D
:10F79800002800D081E03B00039A0E3B06930092BC
:10F7A80033002A0007A906A8FFF7AEFB002874D18A
:10F7B8003B00039A0D3B0693009233002A0007A9E9
:10F7C80006A8FFF7A1FB002867D13B00039A0C3B72
:10F7D8000693009233002A0007A906A8FFF794FBB6
:10F7E80000285AD13B00039A0B3B06930092330042
:10F7F8002A0007A906A8FFF787FB00284DD13B0080
:10F80800039A0A3B0693009233002A0007A906A828
:10F81800FFF77AFB002840D13B00093B06930223FF
:10F828002A00009307A9330006A8FFF76DFB0028FC
:10F8380033D1FB1F0693039B2A00009307A93300CB
:10F8480006A8FFF761FB002827D1BB1F06930623F4
:10F858002A00009307A9330006A8FFF755FB0028E4
:10F868001BD1039B2A00009307A9330006A806971B
:10F87800FFF74AFB002810D13B787A1C06920093C8
:10F888002A00330007A906A8FFF73EFBFE37002829
:10F8980003D1049B0133049342E7040045E7059B29
:10F8A800198047E7F0B58FB007000C001D000592DE
:10F8B800002900D188E000282BD01688861901235A
:10F8C800651900932A00330008A907A80897079725
:10F8D800FFF71AFB041E15D17B1C079301232A008E
:10F8E800009308A9330007A8FFF70EFB041E09D1EF
:10F8F8003B00113302930123049003937B78049A0D
:10F9080093420BDC089BD81B059B188020000FB086
:10F91800F0BD262604ABF61809AFD0E7029B2A00F3
:10F928000F3B0793039B08A9009307A83300FFF731
:10F93800EBFA002846D1029B2A000E3B0793039B53
:10F9480008A9009307A83300FFF7DEFA002839D189
:10F95800029B2A000D3B0793062308A9009307A8DA
:10F968003300FFF7D1FA00282CD1029A08A9D31F37
:10F97800039A0793009233002A0007A8FFF7C4FAF6
:10F9880000281FD1029A08A9931F079306232A006B
:10F99800009307A83300FFF7B7FA002812D1029B9B
:10F9A8002A000793039B08A9009307A83300FFF7D1
:10F9B800ABFA029B10330293002803D1049B013356
:10F9C80004939BE704009DE7059B19809EE7F0B52B
:10F9D80095B007000C001D000592002900D189E0B0
:10F9E80000282BD0168886190123651900932A0050
:10F9F800330008A907A808970797FFF785FA041E98
:10FA080015D17B1C079301232A00009308A9330012
:10FA180007A8FFF779FA041E09D13B000A330293BD
:10FA28000123049003937B78049A93420BDC089B90
:10FA3800D81B059B1880200015B0F0BD3F2604ABED
:10FA4800F61809AFD0E7029B2A00083B0793039BEF
:10FA580008A9009307A83300FFF756FA002847D1F2
:10FA6800029B2A00073B0793039B08A9009307A85A
:10FA78003300FFF749FA00283AD1029B2A00063BD7
:10FA88000793062308A9009307A83300FFF73CFA59
:10FA980000282DD1029B2A000793039B08A90093F5
:10FAA80007A83300FFF730FA002821D1029B029AF9
:10FAB8001B780132079200932A00330008A907A88F
:10FAC800FFF722FA002813D1029B2A00203307935C
:10FAD800039B08A9009307A83300FFF715FA029BB8
:10FAE80029330293002803D1049B013304939AE736
:10FAF80004009CE7059B19809DE700008205920D94
:10FB0800830A012B19D0032B19D0042B19D0052BEC
:10FB180019D0082B19D000203F2B0DD13A3B0F49A3
:10FB2800DB00CB1858685988002805D00C234B43B4
:10FB3800C31898420BD1002070470023EFE7012338
:10FB4800EDE70223EBE70323E9E70423E7E701886E
:10FB58008905890D9142EFD00C30EAE7ACFC051815
:10FB6800002310B502000648D9000C5C944201D16C
:10FB7800401810BD0133092BF6D10020F9E7C04623
:10FB8800E00106180200002310B50549DC006018E2
:10FB98000C5D944203D00133182BF7D1002010BD1F
:10FBA8002802061842424842423642484848420023
:10FBB8004242484848480042424838420042483891
:10FBC800424800424248424236423642364248485B
:10FBD80048420042423634420042423332420042F6
:10FBE800424842420042424842423642424842006B
:10FBF8004248424242426E42004242424842004229
:10FC0800424236420042424848484242364242480E
:10FC18004200424848484C0042483342334242423C
:10FC28004236424242424242424200423842004840
:10FC38004842424236424242004233314200424840
:10FC480048424200484842423642424848484848AA
:10FC5800480042483542004838424831364200425E
:10FC6800364231364231364200484242424800422A
:10FC780048484800424248480042424236424848C2
:10FC8800420042364242004242424242426E4200F2
:10FC980048424848420036344242004242484248BC
:10FCA8004800000001000200800106180300090056
:10FCB800DCFC05180400040048FD051805000100D7
:10FCC800980106180800560078FD05183F00050041
:10FCD800A4010618010C000834FC051844FC05189A
:10FCE800030C00000000000044FC05182D0C110353
:10FCF800F5FB0518F4FB0518310C000144FC051848
:10FD080044FC0518330C0007A5FC051844FC05182D
:10FD1800350C401E4DEF051844FC05187B0C1102EC
:10FD28000B8E06187DFC05187C0C11047EFC05184A
:10FD38000A8E0618630C000834FC051844FC0518E4
:10FD48000110000000000000A3FC051802100000CC
:10FD580000000000DCFB0518031000000000000094
:10FD680033FC0518091000000000000009FC051804
:10FD78003920422AB5F2051844FC05183620021924
:10FD880020FC0518A0FC0518372002FF92FC051876
:10FD980044FC05180120020834FC051844FC051829
:10FDA8000220020000000000F4FB051803200200F6
:10FDB8000000000033FC0518052002066EFC05183B
:10FDC80044FC05180720020000000000A0FC0518EC
:10FDD8000620020F37FC051844FC051808200220ED
:10FDE80041FC051844FC05180920022041FC0518AF
:10FDF80044FC05180A20020144FC051844FC0518B7
:10FE08000B20020746FC051844FC05180C200202CA
:10FE1800A0FC051844FC05180D2002194CFC051817
:10FE2800000000000E2002000000000044FC05183D
:10FE38000F20020000000000A0FC0518102002009E
:10FE48000000000044FC05181120020709FC0518F1
:10FE580044FC05181220020709FC051844FC051883
:10FE68001320130E228E061800000000142002052D
:10FE78005CFC051844FC0518152013020B8E0618A7
:10FE88005AFC0518162013020B8E061800000000F5
:10FE9800172002206AFC05186CFC051818200200BF
:10FEA8000000000033FC05181920131C5FFC05181E
:10FEB800000000001A20131262FC05180A8E0618AA
:10FEC8001B2013020B8E06180A8E06181C2002002F
:10FED8000000000033FC05181D20020144FC051831
:10FEE80044FC05181E2002033DFC051844FC0518B7
:10FEF8001F200200000000000A8E06182020130EA2
:10FF0800228E06180A8E061821201303F5FB051801
:10FF18000A8E06182220130678FC05180A8E061881
:10FF280023200200000000007DFC051824200204A4
:10FF38007EFC051844FC051825200200000000007E
:10FF48000000000026200240DDFB0518000000002C
:10FF58002720022767FC051844FC051828200207FB
:10FF680009FC051844FC05182920020000000000BF
:10FF780044FC05182A20020000000000A0FC051817
:10FF88002B20020709FC051809FC05182C2002077C
:10FF980009FC051809FC05182D20020144FC051868
:10FFA80044FC05182E2002020B8E061844FC051886
:10FFB8002F20020000000000B9FB051830201302B2
:10FFC8000B8E0618E8FB0518312002033DFC0518C6
:10FFD80044FC05183220130771FC051800000000C6
:10FFE800332002033DFC051844FC051834200204A4
:08FFF8002EFC051844FC05185D
:020000041806DC
:100000003520020709FC051844FC0518382002FFBA
:1000100092FC051844FC05183A200200000000007C
:100020000A8E06183B20020000000000A0FC051804
:100030003C20020144FC051844FC05183D20020048
:100040000000000044FC05183E20020777FC05185C
:1000500044FC05183F2002FF93FC051844FC0518DA
:1000600040200202A0FC051844FC05184120420D66
:10007000A9F1051844FC0518422002067CFC05186D
:1000800044FC05184320423AE9EF0518000000003F
:100090004420020E81FC05180000000045200200EB
:1000A0000000000044FC0518462002020B8E0618D2
:1000B00044FC0518472002088AFC051844FC051872
:1000C000482002088AFC051844FC05184920020053
:1000D0000000000044FC05184A2002000000000057
:1000E000A0FC05184B200200000000003DFC051894
:1000F0004C200200000000007DFC05184D20020489
:100100007EFC051844FC05184E2002088AFC0518E0
:1001100044FC05184F2002528FFC051844FC0518BA
:10012000502002528FFC051844FC05185920020388
:10013000F5FB051844FC05185A20130678FC051831
:100140000A8E06185B20130586FC05180A8E061811
:100150005C20030898FC05180A8E06185D2002062C
:1001600085FC051844FC05185E2002419EFC05181C
:10017000000000005F20020144FC051844FC051843
:1001800006041103F5FB0518000000001D04110210
:100190000B8E061800000000051411020B8E0618C5
:1001A000F4FB051811FC080144FC051844FC051873
:1001B00012FC0800000000001AFC051813FC1304D0
:1001C0007EFC05180A8E061814FC130586FC05181B
:1001D0000A8E061815FC130678FC05180A8E0618F8
:1001E00005010000F4FB051808010000F4FB0518E8
:1001F0000C010000A4FC05181000000044FC0518C8
:10020000110100000B8E0618130200007DFC05187A
:100210001A00000044FC0518300100000A8E061880
:10022000570100000B8E061801000000ACFB0518FA
:1002300002000100D7F9051803010000B8FB0518FA
:1002400004010000BFFB051805010000C5FB0518EF
:1002500006010000018E061807010000018E061835
:100260000A000000CBFB051808000000DBFB0518A6
:1002700009000000E1FB05180B000100ADF80518AE
:100280000C010000E7FB05180D000100CFF6051872
:100290000E000000EDFB05180F000000F8FB05182C
:1002A000100000000A8E06181100000044FC05181A
:1002B0001200000001FC05181300000007FC0518DF
:1002C00014010000F4FB05181500010045F50518A0
:1002D000160101009DF305181701000073FC0518B5
:1002E000180000000DFC051810B508220021024876
:1002F0001EF07EFE10BDC046E4BA00001123FA28AD
:1003000002D9024B5980002318007047E4BA00005C
:10031000084B094A1B681278D2189A4203D1074B3E
:100320001870002005E00133591E09780029F4D027
:100330000C207047A8BA0000D4BE0000E4BA000048
:10034000034B1A78002A02D0DA880132DA8070472B
:10035000E4BA0000044A0021D388834201D91B1A61
:1003600099B2D1807047C046E4BA0000064A1378BB
:10037000002B07D05388D2880020934201D99B1AC2
:1003800098B270470148FCE7E4BA0000FFFF0000A4
:10039000F7B50F004A688021436806008068D51AC7
:1003A0000090B8682D012D09090501908D4227D9CB
:1003B0009B1A1B011B095D42002B03D1019B009A74
:1003C00093421FD8019B3F690524D819009BC01A8E
:1003D000002834DD1B490138FDF766FEE8422ED4C3
:1003E000009B3069013C1818019BC01AC01B0028F3
:1003F00025DC1549FDF758FE4419E40F03341EE0CF
:10040000002DDBD00024009B36699E19019BF61A53
:10041000A64214DD0C49701EFDF746FE4019A042AD
:100420000DDC38690134301A002808DD064901382E
:10043000FDF73AFE45196C1E2C43E40F01342000F1
:10044000FEBDC046710200008FFDFFFF37B5684654
:100450001CF0E6FC019B9C2019009131FF31009AB1
:100460008000814204D9E13B1900013212011209D6
:100470000F4B1B68002B12D00E485C6800780E4DA5
:10048000201A000100099C68831A1B011B09AB425A
:100490000BD8904201D1A14204D2210002E00120F8
:1004A000190040421CF096FE37BD1000FAE7C04626
:1004B000ECBA0000E8BE0000FEFFFF07394BF0B5C4
:1004C000DD68002385B003900093002D07D1354BE4
:1004D000DB68002B01D01CF037FF05B0F0BDAA8A05
:1004E0002B680293930B5AD03F233F2011110B40EE
:1004F000014254D00024A97D303810400918A97554
:100500002949013B1B010A4013439BB2AB82039E66
:100510009B0B0193002E0DD1224E2A003000009932
:100520000C301EF057F82A00210030001EF0AAF807
:10053000009D34E031002800FFF72AFF0028EBD0AF
:10054000052802D134003668E4E7B36832691749F8
:100550009F183800FDF7B0FD73681449C4183800BF
:10056000FDF7BAFDAB688B4289414942641824010A
:10057000019B24096C60012BE4D98023E8681B05EA
:10058000071B3F013F099F4203D9271A3F013F093B
:100590007F4206492869FDF78FFDB842D2DD0095FC
:1005A000029D92E7ECBA00000FFCFFFF7102000011
:1005B000013810B5012809D8054C20001DF06AFF4C
:1005C00020000C301DF066FF0023A36010BDC04664
:1005D000ECBA0000F0B5854B01690400CA18844BE1
:1005E00087B09A4204D9834B002203201B689847A6
:1005F0009C23A2689B009A4205D900227D4B1100E2
:1006000001201B6898477C4B1B689847039004A8FF
:100610001CF006FC794B049A1B7805999B18FA226A
:1006200092001B018918793A1B09FF3A914216D8AA
:100630006568734EEA1A1201A08A1209B24204D800
:100640009D421AD1A2688A4217D2820B0DD1012590
:100650006C4B03981B689847280007B0F0BD6348AF
:1006600001331B0109181B09E0E7A26863608A4295
:1006700003D201331B011B096360800B012812D9CF
:100680008020E16863680005CA1A120115098542D5
:1006900003D95B1A1B011B095D425B492069FDF709
:1006A0000BFDA842D3DC594B9D68002D00D11D687D
:1006B0000026019600960296002D6FD0A54205D126
:1006C00000224C4B110001201B6898472900200094
:1006D000FFF75EFE002861D0052813D0A17DAA7D1A
:1006E000914230D9494B9B68AB422CD0009B002BE8
:1006F00000D10095022398430136C0B2F6B20195AD
:1007000001284BD0A38A9B0B012B13D98021E268CF
:1007100063680905D71A3F013F098F4203D99F1A21
:100720003F013F097F4238492069FDF7C5FCB842C7
:1007300000DD8CE7354B9A68AA424FD0002E00D1DD
:1007400002952D68B8E7A38A9B0B18D0AB682A697D
:100750002D499F183800FDF7AFFC6B682A49C61871
:100760003800FDF7B9FCA3688B42894149427618ED
:10077000360136096660002601960096C2E791426E
:1007800000D864E7214B9B68AB4200D05FE7C31EF3
:10079000DBB2012B00D95AE70328B3D1009B002B11
:1007A0000BD01A4D019A280002991DF049FF28002C
:1007B000019A00990C301DF099FE029B1348002B02
:1007C0000ED0220019001DF05DFF0025009BAB42FA
:1007D00000D13DE72000FFF771FE39E71D686BE7A8
:1007E00021001DF0A3FEFFF731FEEEE78FFDFFFFB6
:1007F0000F18060024BF0000C0BE0000E8BE0000C5
:10080000FEFFFF07C4BE000071020000ECBA00004A
:10081000F8B5184B07001B680C0098470500002F1F
:1008200006D10024144B28001B6898472000F8BD0F
:10083000124EB368BB4202D10024B460F2E7002C30
:10084000EFD133689F4205D130001DF081FEFFF7E4
:10085000FDFDE7E7390030001DF084FE0028E0D1FF
:10086000300039000C301DF07DFE0028D9D1022463
:10087000D8E7C046C0BE0000C4BE0000ECBA00000D
:10088000F0B5374E85B0346802A81CF0C9FA002CC8
:1008900006D1F368002B5FD1FFF7D8FD05B0F0BD9E
:1008A0000625039B626801932E4B029F1B78ED1B6C
:1008B000D31A5A192C49120112098A4208D8063350
:1008C0001B011B09BB4227D1A368019A934223D283
:1008D00030001DF03DFE010030000C301DF0F0FD39
:1008E0003468002CD5D01F4B62681B78D31A5D1971
:1008F0001D4A2D012D09954208D806331B011B09FD
:10090000BB4209D1A368019A934205D20022174B3A
:10091000110001201B689847124B62681B7812492E
:10092000D31AFA43D218120112098A4208D8013B9D
:100930001B011B09BB42ACD1A368019A9342A8D802
:1009400030001DF005FE8369B060002B00D0984791
:100950003468002CE0D19CE71CF0F6FC9CE7C04614
:10096000ECBA0000E8BE0000FEFFFF0724BF000055
:1009700070B50F4E30000C301DF0A6FEC4B263B24D
:10098000002B00DC70BD30000C301DF0E1FD051EB9
:1009900005D1084B020001001B68012098472B6A13
:1009A000002B01D028009847013CE4B2E7E7C0469D
:1009B000ECBA000024BF0000124B13B51C68002CD9
:1009C0001CD068461CF02CFA9C22019BC821920086
:1009D000D21A0023490091425B41009A01339B18CF
:1009E0001B0162681B09D21A0749120112098A42C7
:1009F00000D9636060681CF0C5FB13BD0120404254
:100A0000F9E7C04600BB0000FEFFFF07013810B544
:100A1000012802D801481DF03DFD10BD00BB0000BB
:100A200013B568461CF0FCF90E480468002C17D07A
:100A30006268009B9B1A0C4A1B011B0993420DD84C
:100A40001DF086FDA168002902D020008847E8E754
:100A5000064B0A0001201B689847E2E7FFF7ACFF4E
:100A600013BDC04600BB0000FEFFFF0724BF00000F
:100A70001E4BF7B51B6804009847050068461CF03C
:100A8000CFF99C22019BFA219200D21A002349003F
:100A900091425B41009A01339B181B0162681B095C
:100AA000D21A134E12011209B24200D9636000211A
:100AB00010480268002A09D1002911D022001DF037
:100AC000E1FD0D4B28001B689847F7BD5368676828
:100AD000DB1B1B011B09B342EED911001268E9E7C9
:100AE00021001DF023FDFFF767FFEAE7C0BE00000D
:100AF000FEFFFF0700BB0000C4BE000070B5144D30
:100B000004002B00FF335A78824204D0114B0100BD
:100B10001B68032098472B00FF33D978002904D1A4
:100B20000C4B0A0001201B68984724012B19197BE4
:100B3000002904D1074B0A0001201B689847291996
:100B40004B68002B03D0022289682859984770BD52
:100B500008BB000024BF000070B5144D04002B003A
:100B6000FF335A78824204D0114B01001B680320E6
:100B700098472B00FF33D978002904D10C4B0A0089
:100B800001201B68984724012B19197B002904D1E7
:100B9000074B0A0001201B68984729194B68002B56
:100BA00003D0032289682859984770BD08BB00000C
:100BB00024BF0000F8B5284C05002300FF33D97886
:100BC000002904D1254B0A0001201B6898472E01FB
:100BD000A7193B7B002B31D0214BE81800011BF0FB
:100BE000FFFF8006400F062828D17B68002B1ED00F
:100BF0000422B968A05998472300FF335A78AA42C3
:100C000003D10F20013505405D7000232200A61995
:100C1000FF323373D378013BD370FF34E378012B79
:100C200013D10F22637801331340A370F8BD0B4A30
:100C30001900176801201A00B847DDE70022074BAA
:100C4000110001201B689847E7E7002BEED18020B8
:100C500080001CF02BFAE9E708BB000024BF00006D
:100C600000040005F8B5304E04003300FF335A7815
:100C7000824204D02D4B01001B68032098472C4B67
:100C8000E01800011BF0ACFF3300FF33D978850674
:100C90006D0F002904D1254B0A0001201B689847DD
:100CA0002701F3191B7B002B05D1204B22002900C3
:100CB00003201B689847EB1E022B05D900221B4B13
:100CC000110001201B689847F1194B68002B23D0B5
:100CD000043D6A426A418968F059D2B298470023BC
:100CE00032000F25F719FF323B73D3789178013B1F
:100CF000DBB2D370A14206D001342C402201B218DD
:100D0000127B002AF6D0FF367470002B03D18020AE
:100D100080001CF0CBF9F8BD044A190015680120C9
:100D20001A00A847DBE7C04608BB000024BF00004C
:100D300000040005013870B5012816D88222002170
:100D40000A4852001EF054F938261825084C200095
:100D50001BF046FF0100B1432943200089B21BF07C
:100D600051FF044B10349C42F1D170BD08BB000010
:100D700000400050004100500C4B70B51C6825012C
:100D80002D0F230702D52800FFF7E6FEE30602D564
:100D90002800FFF7B3FE630702D5200FFFF70AFF15
:100DA000A30702D52800FFF75DFF70BD24000050A7
:100DB000F0B5A94E85B03300FF339A780400009255
:100DC0005A780099881A0F2108400290DB78002B8E
:100DD00008D0009B9A4205D1A04B009A0320110035
:100DE0001B6898470F20009B6268013B03400193FA
:100DF0001B01F3589A4205D10022984B11001B6841
:100E00000E389847009B964A07279D182D01280009
:100E10001BF0E6FEC0103840012800D0FAE0330095
:100E2000FF3359788D4B03201B68009A9847029B2B
:100E30000D2B1BD9894B1B680393009B981E0F2316
:100E40001840874BC01800011BF0CAFE844A019B62
:100E500094466344070018011BF0C2FE0721C2102C
:100E6000FF100A400220039B394098470127009B4E
:100E700061681B01F150F618236989B2B3602368D9
:100E8000377373609C26A81C1BF0BCFE6368281D8A
:100E90001901090D1BF0B6FEA368B600B34205D9CF
:100EA00000226E4B110038001B689847A368F61AA1
:100EB000B6B2B30A05D00022684B110001201B68AE
:100EC0009847A81D31001BF09DFE2F008023E0688D
:100ED0000A371B02984200D2A5E0624B1900C018E5
:100EE000FDF7EAF80600030405D500225B4B11006C
:100EF00001201B6898475C49314389B238001BF0D8
:100F000081FEA37D1A1C1F2B00D91F22617DD2B246
:100F100012020B1C1F2900D91F232800D9B211432C
:100F20000C301BF06FFEE17D504F0B0201933B42F2
:100F300005D00022494B110001201B6898472E0064
:100F40000E3630001BF04CFE019B07401F43300063
:100F5000B9B21BF057FE637E002B3BD170212800F5
:100F60000D26237E083059435131FF3189081BF08B
:100F700049FE029B3E489E42B6417642B30201932F
:100F8000237F227DA67E002B51D0E77E141C1F2AD2
:100F900000D91F24E4B23602E402064205D0002242
:100FA0002E4B110001201B689847FF0180233A0057
:100FB0009A4305D00022294B110001201B68984755
:100FC0004221019B33431C4327433943280089B204
:100FD0001BF018FE0F23009A9A4305D000221F4BE6
:100FE000110001201B68984780230F218020009A60
:100FF0001B0613431F4A80001360174BFF339A7878
:1010000001320A409A70DA780132DA701BF02EFF52
:1010100005B0F0BD28001BF0E3FDC0100740022F13
:1010200000D004E7FBE60130400881B266E7141CFB
:101030001F2A00D91F24E4B23602E402064205D07A
:101040000022064B110001201B6898470221019BDA
:1010500033431C432143B9E708BB000024BF000011
:1010600000040005710200000080FFFFFFE0FFFFA9
:10107000FFFEFFFF00010050F0B593B01C0002908E
:101080000E910492002809D1002A75D10022B74B95
:10109000110001201B68984701236BE0002CF5D05C
:1010A00063680393A3890D930023802510A80B93F5
:1010B0001BF0B6FE109B2D051D402B005A1E9341C0
:1010C000DBB20193039B002B05D1A84B039A0120AF
:1010D00011001B6898470022A54B1A60A54B1B788E
:1010E000934258D1A34B019A1A70029B012B6AD1EB
:1010F00023680593059B002BCED0039B002BCBD000
:101100000B9B0193029B012B01D1A36801939A4B86
:101110001E68002337000A930993039B013B0F933A
:10112000002F00D1C0E0019B059A93421BD2029B85
:10113000002B4BD10E9B002B48D03B697D6806935A
:10114000002D51D0069B002B4ED0BB8A0D9A9342A6
:101150004AD0059B2C009D4200D91C00069B039A97
:101160009B18A34234D90A9B002B02D0804B099ACA
:101170001A6003230293B6E0049B9B6803930E9BC3
:10118000002B02D0049BDB680393049B1B8A0D9306
:10119000049BDB7C89E7002DA4D18026764B760565
:1011A0001D68002D9ED06F68AB683900FB183000B9
:1011B0000593FCF791FF059B581A3900FCF78CFF4B
:1011C000A9602D68EDE7049B5B6992E7FB68B5E7D2
:1011D00021000598FCF780FF002905D12100280097
:1011E000FCF77AFF002902D03F68019932E0210024
:1011F000B868FCF771FF069B0D005B180C9321008B
:10120000013B01980893FCF767FF8C460F9B069102
:10121000634407938D4200D9B0E0089B8B4207D20C
:10122000079B9D4218D8089B079A934200D298E0EA
:10123000029B012B32D021000C98FCF74DFF019B43
:101240008B4224D201230B9A0B40002A21D0002B81
:1012500022D03700019163E7069B9D4203D1089B92
:10126000079A9342E4D9089B9C4206D818002100B3
:10127000FCF732FF069B9942DAD2079B9C42B3D817
:1012800021001800FCF728FFA942ADD3D0E70919C7
:10129000D5E73700002BDDD00131DAE701230997CC
:1012A000059937000A93D5E70A9B002B02D0304BF3
:1012B000099A1A60019B059A934200D359E7029B51
:1012C000002B4CD1049B019A5F699A611B8A06939B
:1012D0007B1E9B180593002E08D139000598FCF75A
:1012E000FBFE049BD961029813B0F0BDB38A069A45
:1012F000934217D07568BD4200D93D00002D05D13D
:101300001A4B2A00290001201B6898472900380041
:10131000FCF7E2FE002905D129007068FCF7DCFE2D
:10132000002901D03668D6E72900B068FCF7D4FE62
:101330000C00019BA34210D2039A9B189C4205D239
:1013400000220A4B110001201B689847039BE41AF6
:10135000059BA342E6D90594E4E76419E9E7002375
:1013600008E7069B9D4200D27DE761E724BF0000AD
:101370000CBC000018BC000010BC0000079B9D4284
:1013800000D855E76BE7C046013810B5012805D8ED
:101390000022034B03481A701DF07CF810BDC046B4
:1013A00018BC000010BC00001FB5C1680400002973
:1013B00004D1184B0A0001201B6898476A466368ED
:1013C00001200093E3680193A38A93810022A3681C
:1013D000110002936B46FFF74FFE032809D10E4B15
:1013E0001B68002B05D0A1699A69002906D1002A43
:1013F0000BD1210009481DF063F81FBD002A03D05E
:10140000A17D9A7D914200D32300988A9B699847D9
:10141000EFE7C04624BF00000CBC000010BC000079
:1014200010B5010001481DF09DF810BD10BC000072
:10143000F7B5036846680400466101939E4216D9D9
:101440002B4B01271A6800237F42002A22D1002B50
:101450002CD1A57C002D48D029003000FCF72CFEB3
:101460004543019BAB4202D8AE4200D365610023E5
:10147000220001211800FFF7FFFD002809D0A36812
:10148000E268934205D20023220019001800FFF7FA
:10149000F3FDFEBD908A218A884205D05168013350
:1014A000DBB28F4200D90F001268CEE7BE4206D3EE
:1014B00039003000FCF700FE78430500D1E7012534
:1014C00000966D4238000099FCF706FE0023994211
:1014D00001D1009D0133009A023A00920099019ACD
:1014E0008A42BED8002BEDD0BBE701256D42BBE799
:1014F00010BC0000002210B5030011000120FFF70E
:10150000BBFD10BDF7B52B4F2B4DBB89BE68AB8023
:1015100001235B422B60294B0193002E15D1019AC8
:10152000274B5343AA889A4200D91A00AA807A68A6
:10153000531C09D02B68591C05D09B1A21491B014B
:101540001B098B4200D92A60F7BD002380221206B6
:10155000DA40164202D10133202BF7D11F22D31AD1
:101560000093194B009A1B78934205DC0022174B1D
:10157000110001201B689847009BDA00144B1B6880
:101580009B181C68002C0FD098880D49FCF794FD1F
:10159000241AA4B2022C01D9023CA4B2019BA3429A
:1015A00000D923009BB201930123009A93409E43EC
:1015B000B3E7C04620BC000030BC0000FFFF0000C5
:1015C00071020000FEFFFF07D4BE000024BF000030
:1015D0001CBC000037B50138012822D8114C10225C
:1015E000002120001DF004FD0F4B00211A780F4B45
:1015F000D20018681DF0FCFC01230D4D5B426360B6
:101600002B606B46D91D022322000B70094B17205B
:101610001B680C329847002801D0074BA381A3898F
:10162000AB8037BD20BC0000D4BE00001CBC000055
:1016300030BC0000DCBE0000E45700000122824004
:1016400010B503490B7813430B70FFF75BFF10BD18
:1016500020BC00000122824010B503490B7893435F
:101660000B70FFF74FFF10BD20BC000003000120EE
:1016700070B505009D40084A14782C431470022B65
:1016800003D15160FFF73EFF70BD0022034B1100F4
:101690001B689847F6E7C04620BC000024BF000046
:1016A0000300012010B504009C400B4A1178A143AF
:1016B0001170022B0AD1033B5360FFF723FF074B46
:1016C0001B68013301D114F051FD10BD0022044B01
:1016D00011001B689847F0E720BC000030BC0000F8
:1016E00024BF0000033810B501280ED80A48CC00EA
:1016F00000680019838001238B400260074A9168CB
:101700000B439360FFF7FEFE10BD0022044B110057
:1017100001201B689847F5E71CBC000020BC0000B6
:1017200024BF0000033810B501280DD800200A4B53
:10173000CA001B68D05001238B40084A9168994326
:101740009160FFF7DFFE10BD0022054B1100012064
:101750001B689847F5E7C0461CBC000020BC000091
:1017600024BF000010B5040000F00CF8002C02D0DB
:1017700020000CF08FFF200006F09AFB200000F004
:10178000F7FB10BD7021F0B5814D0C262B780400BD
:10179000181D414303209A1C56435431FF3136181B
:1017A000814389197B4E8143377838267E4336182A
:1017B000891930265E438143AB313618814389193C
:1017C000754E8143891946265E438143361889192F
:1017D00012021218814389182722534381431B1890
:1017E000C9188023814369318143E131814309185C
:1017F0008143091885B081431B02994204D9674B84
:10180000890A1B68073A9847002C05D0013C012C37
:1018100000D899E005B0F0BD2100202260481DF0FD
:10182000E7FB5B4B702518785A4B41001A78382338
:101830005A43083B4343033301930C23071D84B2EF
:101840000230434303269C467D435435FF35B44460
:10185000B54365440332B5435519B543019BAB35D8
:10186000B5435D194C4BB543ED18B543ABB24D4D87
:1018700002932B680139039323239C4609B24B1C26
:1018800056D170250C266F4381B2704354376D3D9D
:10189000FF37AF4340193818A8431218AA43019BD9
:1018A000AB32AA439A18AA4392B215003E483F4B66
:1018B0000068D318FB3D9BB24430ADB20380013BBE
:1018C000FF3B9BB20838AB42F8D14623324E63430C
:1018D00092190326601CB24303339B180500C20013
:1018E0003348B34300689BB28018ADB22A02013D71
:1018F0009A182DB2828008386A1CF6D12720090276
:1019000003315B18032144438B436418294A1B1994
:1019100012688B4369338B431100B9339BB22C316E
:10192000043A0B80253B08399BB28A42F9D171E712
:1019300066468DB26E43029BC9009E19039B013D12
:1019400059188E8029B29AE7154C2B78154920003A
:10195000082209685B001CF0A1FD20001249092340
:101960000822096808301CF099FD20002B781049E6
:1019700008220968023310301CF090FD20000D4948
:1019800006230822096818301CF088FD42E7C0468B
:10199000D4BE0000D5BE00000309000024BF000033
:1019A00048BC000040BC000044BC0000050800002A
:1019B00038BC00003CBC0000074B70B51B68984762
:1019C000050006481CF0C4FD0400054B28001B68F8
:1019D0009847200070BDC046C0BE000048BC000053
:1019E000C4BE0000F8B5060070201E4B03241D780D
:1019F00023212B1D58430C23AA1C53435430FF3082
:101A00001B19A043C018184BA0431A78382353431E
:101A10001B19C01830236B43A043AB301B19A043E4
:101A2000C018124BA043C018A043301AFCF744FB67
:101A3000C7B26D00AF4205DB0D4B3200390020000C
:101A40001B6898470B4BFF001B68984704000A4B24
:101A50000A481968C9191CF033FD094B20001B689E
:101A60009847F8BDD4BE0000D5BE000003090000B1
:101A700024BF0000C0BE000040BC000048BC000005
:101A8000C4BE0000044810B508301CF061FD0028F9
:101A900000D0808810BDC04648BC000070B51C4B0B
:101AA0000C24197870230A1D534303228D1C6C43A8
:101AB0005433FF33A41893431B19164C93432578D2
:101AC00038246C43A4181B193024FF266143934328
:101AD000AB33934389185B1805389343C41A3442D7
:101AE00003D1240AE3B2082B00D9FEE70A4B3440A5
:101AF0001B6898470500094B09481968E400091953
:101B000008301CF0DDFC074B28001B68984770BDAF
:101B1000D4BE0000D5BE0000C0BE000044BC000022
:101B200048BC0000C4BE0000084B70B51B68984755
:101B30000500074810301CF00BFD0400054B280081
:101B40001B689847201E00D0A08870BDC0BE000052
:101B500048BC0000C4BE000070B57024194B0200E0
:101B60001B780320191D4C430C219D1C69435434E0
:101B7000FF34091884436418134984430D783821CD
:101B8000694309186418302159438443AB34091858
:101B9000844364180D49844364184621594384439F
:101BA000091864188443141B240AE4B20133A342C5
:101BB00003DA074B21001B689847064BE4001868BE
:101BC000001970BDD4BE0000D5BE0000030900009E
:101BD00024BF000038BC000070B570241F4B020009
:101BE0001B780320191D4C430C219D1C6943543460
:101BF000FF34091884436418194984430D78382147
:101C0000694309186418302159438443AB340918D7
:101C10008443641813498443641846215943844318
:101C2000091864188443141B240AE4B20133A34244
:101C300003DA0D4B21001B6898470C4BE4001B682E
:101C4000984705000A4B0B481968103009191CF019
:101C500037FC094B28001B68984770BDD4BE0000B4
:101C6000D5BE00000309000024BF0000C0BE000074
:101C700038BC000048BC0000C4BE0000084B70B572
:101C80001B6898470500074818301CF061FC0400E9
:101C9000054B28001B689847201E00D0A08870BD07
:101CA000C0BE000048BC0000C4BE000070B5050006
:101CB0007020274B03241A78111D48430C21931CD4
:101CC00059435430FF300919A04340182149A0431B
:101CD0000E78382171430919401830215143A0432F
:101CE000AB300919A04340181B49A04340184621B6
:101CF0005143A043091940181B021B19A043C018E7
:101D000027235A43A04312198018A0436930A043E7
:101D10002521281AFCF7D0F9C6B2C0B2052805D98A
:101D20000E4B2A00310020001B6898470C4BF60030
:101D30001B68984704000B4B0B4819681830891929
:101D40001CF0BEFB094B20001B68984770BDC046C5
:101D5000D4BE0000D5BE00000309000024BF00006F
:101D6000C0BE00003CBC000048BC0000C4BE000077
:101D700010B502000C000123002103481BF0AAFC4F
:101D80000470FCF7A3FB10BD0111000010B50200A8
:101D90000C000123002103481BF09CFC0470FCF79D
:101DA00095FB10BD02110000F7B5002400900191D1
:101DB000124D2B78A3421BD94426114F66433B6832
:101DC00099190B0040331B78092B02D00134E4B27F
:101DD000EEE7009820311CF0D4F80028F6D03B68DC
:101DE000019A9E190736F37F534001221342EDD129
:101DF0002878844280414042FEBDC046D4BE0000E7
:101E000068BC0000F0B5002485B0019002910392F7
:101E1000174D2B78A34225D94426164F66433B68BD
:101E200099190B0040331B781A000E3A012A04D985
:101E3000112B02D00134E4B2EAE7019820311CF002
:101E4000A0F80028F6D03B68029A9E19330036337A
:101E50001B78534001221342ECD12E363378039A7B
:101E60009342E7D1287884428041404205B0F0BDDA
:101E7000D4BE000068BC000030B500200A24012553
:101E8000074B1968074B1B780133220042438A181D
:101E9000527A2A4203D00130C0B28342F5DA30BD13
:101EA0006CBC0000D4BE0000F7B5050000240A2673
:101EB000012701910D4B186833006343C018437A22
:101EC0003B4208D10A4B01341B78E4B20133A342F0
:101ED000F0DA2000FEBD037A019A9342F2D1290084
:101EE0001CF04FF80028F4D1ECE7C0466CBC0000B1
:101EF000D4BE0000F7B50500002427260127019174
:101F00000C4B1B78A34213D90B4B18683300634367
:101F1000C0188379FF2B02D10134E4B2F0E7019AB3
:101F20003A409342F8D129001CF02BF80028F3D056
:101F30002000FEBDD5BE000070BC00000A4B187822
:101F40000A4B1A6800230632984205D02732110046
:101F500027390978FF2904D0C01A43425841C0B23A
:101F600070470133DBB2EFE7D5BE000070BC000064
:101F7000F0B585B0012821D0022800D1BDE00028AD
:101F800002D161491BF042FE05B0F0BD2A005F4B53
:101F900062431B68D058002802D00C381BF0E7FBC6
:101FA0000134E4B25A4B1B78A342EFD8002104203D
:101FB0001BF044FB002106201BF040FB554CF42293
:101FC000002120001DF014F82722534B00211B781C
:101FD00006265A43514B1B68180001931DF008F860
:101FE00044224B4D00212B785A43484B18681CF073
:101FF000FFFF0A222B78002102335A43484B1F254A
:1020000018681CF0F5FF2300E122543392001A8077
:10201000444B08226362444B4449638544481CF0A6
:10202000CBFF0122434B52421A60FF210532424846
:1020300025771CF0DDFFA31CDD7702AB3F4D5E7101
:102040003F4B02A92A0001201B6805319847002850
:1020500004D0320028003B491CF0AEFF20230125AC
:10206000374F02AA537102AB591D374A3B68802093
:10207000984702AB9E1D02A95D71320015203B6896
:1020800005319847002801D133781D402300EF33F4
:102090001D70012502ABDE1D5D71294B02A93200C6
:1020A00019201B6805319847002801D133781D405D
:1020B00023000126F0331D7002AB244D5E71204BCE
:1020C00002A92A0016201B6805319847002800D075
:1020D0002E70114A114B117827224A43FF211B68A9
:1020E000D2189A420CD1FA2254342388920000214B
:1020F00006205A431BF008FA46E70024442551E71E
:1021000099712733EDE7C0461025061868BC00001A
:10211000D4BE000074BC0000D5BE000070BC00003E
:102120006CBC00001B0048010707000004240618CF
:1021300078BC00008CBC000091BC000080BC00009A
:10214000DCBE00003CE40718A7BC000060BD000036
:10215000012310B5094C83402268002906D0802055
:102160001343400123601AF081FE10BD9A432260A0
:10217000FBD1802040011AF099FFF6E774BC000003
:10218000F8B544241E4E4443336800211F1905004E
:10219000FFF7DEFF0022336804371B1940331A7043
:1021A0003800FFF73DF933681819C31DD97F203077
:1021B000FFF77AFE134B1B78013383420EDB0A22B2
:1021C000114B42431B689B185B7A9B0706D533680B
:1021D0001919CB1DDA7F20310BF09AFF30680019F6
:1021E000C31DD97F2030FFF785FE084B1B78834243
:1021F00002D900210CF08EFD2800FCF7CDF9F8BDC6
:1022000068BC0000D4BE00006CBC0000D5BE00005D
:102210000048704791BC0000054BC2089B1807227C
:102220001B79104003411800012318407047C04635
:1022300074BC0000004870470C240618024B5A3347
:102240000020185E7047C04674BC0000024B583333
:102250000020185E7047C04674BC00004423034A47
:1022600043431068C01804307047C04668BC000083
:10227000F7B50BF0D5FE01900BF008FF0723002205
:102280009C46012465464549D310CB18197E15405C
:102290002941214206D12100A9400D00597FA943BF
:1022A000597713E03D49F031097800290ED09100AB
:1022B000019E4158C827711A0600090109097F01CA
:1022C0009436B94235D2B1560131E4DB0132252AC8
:1022D000D8D1334E30001BF061FE012817D80023FF
:1022E000072501211F002D4CDA10A218147E2F4063
:1022F0003C410C4208D00C00BC402700547F3C43BA
:102300005477012803D008000133252BEAD100249B
:1023100030000CF0E1FE2500224B1B78A34214DCB8
:10232000002D37D0FA220021042012011BF0ECF816
:10233000F7BD0027B754FA26F601B142C6D92100ED
:10234000A9400D00597F2943AAE744236343164F50
:102350000193019A3B689B181A0040321278092AAF
:102360000BD10833DA7F002A07D101232102194358
:10237000022089B21BF0ECF901253B68019A9B18F9
:1023800040331B780C2B03D13100E0B211F0B2FDC9
:102390000134C1E7014B0333DD77C9E774BC0000AA
:1023A00091BC0000D4BE000068BC0000F8B500235A
:1023B000040044270E4A0F49037023781678B3426D
:1023C00010D2380058430D682818050040352D7884
:1023D000002D0AD12022290020301CF009FE23788C
:1023E000B34200D307252800F8BD01332370E4E78A
:1023F000D4BE000068BC0000014B18687047C0469E
:1024000070BC00001F00000000000000FF79010FF9
:10241000000000000020024B0433D8777047C0460C
:1024200074BC000070B522230D003E220021094833
:102430001BF050F9002609230400290003704670A0
:10244000202202301CF0B8FD2000FCF73FF83000DD
:1024500070BDC04604110000F8B53E220D004223B5
:1024600000210F481BF036F920260823002704001E
:10247000037032002900477002301CF09DFD2000DF
:10248000A919320022301CF097FD2000FCF71EF83D
:10249000044B31005B68044A802098473800F8BD3F
:1024A00004110000DCBE0000A7BC000070B51123C1
:1024B0000D00094A002109481BF00CF9691C0400B1
:1024C0000025102201301CF077FD20002570FBF75D
:1024D000FDFF280070BDC04617200000011100005C
:1024E000FA2210B5064B920054331B8806200021B7
:1024F0005A431BF009F80BF0CDFD002010BDC0467B
:1025000074BC000010B5FFF7B3FE002010BD000042
:102510001C25061868BD000001001200070000001D
:10252000AD2406180400000005250618050000006B
:102530001524061806000000E12406180800000013
:102540005924061809000000252406180A02000074
:102550006D7B0618020200007D4E0618070200007F
:10256000E14E061808020000F153061803000000AF
:102570006561061801020000A1610618060200004C
:10258000296F061803020000CD6706180402000038
:102590002969061805020000F56C061809020000FA
:1025A000A57706180511000041330618442130B5FF
:1025B000104B1A68104B14001B7840345943002309
:1025C000994201D1012030BDE05C851E012D05D866
:1025D000D058C07C00280BD14433F1E7072802D142
:1025E000D0584078F6E70528F6D1D0580078F1E7C2
:1025F0000020E8E768BC0000D4BE000030B50D4AFA
:102600000124117844220C4B4A431B680B48403389
:10261000D218934201D1002030BD197844331129DA
:10262000F7D80500CD40290025008D43F1D10120C8
:10263000F2E7C046D4BE000068BC0000AC40020017
:10264000F7B5174A01911400EE34257803000C21E8
:10265000012D1FD00A39217007781031022F19D8A7
:10266000FA2446886400A64214D285880D482C00BE
:102670000A3CA4B284420DD89C79172320009843C9
:1026800008D111002C310F70110032310C70010093
:10269000D68515860198FFF76BFB0020FEBDC0466E
:1026A00074BC0000F63F0000F8B503001A7808007B
:1026B000140002210C400A4203D19D781031002DF4
:1026C0002AD0012115000D400A4206D15A78113155
:1026D000002A21D0002C0AD101E0002C20D10722B1
:1026E0009E7811213240964216D1002D08D15E7895
:1026F0000722370011211740BE420DD1002C00D116
:102700009A78084C21002B310A700722002D00D145
:102710005A7800212A342270FFF72AFB0020F8BDE6
:102720000722EEE774BC0000030070B51C880800A7
:1027300022001B3A1221E02A0BD85A88074D1300B9
:10274000493BFF3B9BB2AB4203D80021044B9C8426
:10275000DA84FFF70DFB002070BDC0464841000041
:1027600074BC000070B50C000500FFF747FF0C219A
:10277000002809D12B780631012B05D80122010050
:102780001340044A563213702000FFF7F1FA00207C
:1027900070BDC04674BC0000030013B540331B7805
:1027A00002000C00002B0CD10D491E33C85C002820
:1027B00013D1013BFAD20C212000FFF7E7FA0020E9
:1027C00016BD084900201300019009300090203305
:1027D00007381CF025F90100EEE70349F2E7C0468F
:1027E000A8BC00009A330618A7BC000002001E23F4
:1027F00013B50C000B49C85C002807D1013BFAD285
:102800000C212000FFF7C2FA002016BD00211300A2
:102810000191093100910220034920331CF000F995
:102820000100EEE7A8BC0000A7BC000073B50800DB
:102830000021FFF7ABFA6A460123D3716B46154EB0
:10284000941DD91D2200822033689847002801D0AA
:102850000023237020236A46D37123780E4D002B6A
:1028600009D069462A00802033680731984700283C
:1028700006D000232370002128001CF01DF902E07F
:102880002378002BF7D02800002208211CF0EAF85A
:10289000002076BDDCBE0000A7BC000010B50A0019
:1028A0000A23002107481AF015FF0024FB22064BDB
:1028B000C2800381428083800470FBF707FE200002
:1028C00010BDC046011100009042000010B500216B
:1028D0000623074A07481AF0FDFE0024064B9A8C8F
:1028E0004280DB8C04708380FBF7F0FD200010BD7C
:1028F000232000000111000074BC000070B504002A
:10290000A026A025012300210F4A10481AF0E2FE5C
:102910000223E15EF6008B199BB22D01AB4211D868
:102920000023E25E93199BB2AB420BD8084B1C000C
:102930005A331A800023583421800370FBF7C6FDF8
:10294000002070BD1223F8E74D20000001110000A7
:1029500074BC000010B500210623094A09481AF08A
:10296000B9FE094B00241A00583212885A3382806B
:102970001B8804704380FBF7A9FD200010BDC046F2
:102980004C2000000111000074BC000070B50E4A1C
:10299000032300210D481AF09DFE0D4D00262B004B
:1029A00006702C330400012118786B6998472B00BE
:1029B00060702D33012118786B699847A070200052
:1029C000FBF784FD300070BD4B20000001110000BA
:1029D000ECBE000070B500210F4A09230F481AF021
:1029E00079FE0F4D04002B689847030AA370030C6F
:1029F0006070E370000E2B68207198470025030A71
:102A00006071A371030C000E207225702000E37129
:102A1000FBF75CFD280070BD1820000001110000CC
:102A20006CBD000010B50A000223002105481AF011
:102A300051FE0024044B04701B784370FBF746FDE5
:102A4000200010BD01110000D5BE000010B50A0025
:102A50000223002106481AF03DFE0024054B0470B5
:102A60001B7802334370FBF731FD200010BDC046D8
:102A700001110000D4BE000010B50021074A062352
:102A800007481AF027FE022300240371F93343801C
:102A90000470FBF71BFD200010BDC04602200000A3
:102AA0000111000070B507230A00094800211AF03F
:102AB00011FE00250400074906220C3101301CF0EC
:102AC0007BFA20002570FBF701FD280070BDC04691
:102AD0000111000074BC00000A0010B50A23002197
:102AE00007481AF0F7FD0923064A0381C280438094
:102AF000C632013302800371FBF7E8FC002010BDF1
:102B0000011100003A090000F8B503780E005A429E
:102B10005A41124B05001B680024591E8B41442763
:102B200043219A4204D00E4B1B78A34205D80021C2
:102B30003000FFF71DF90020F8BD3A00094B624351
:102B40001B689B1840331B78092B03D12000297880
:102B50000BF006F80134E4B2E5E7C04674BC0000AF
:102B6000D4BE000068BC000070B5124B04005633A0
:102B70001B780D00002B04D0FFF740FD0C2300282C
:102B800012D1E2791223012A0ED8217801290BD81B
:102B9000601CFFF7AFF9084B1A780223824203D971
:102BA000E1790CF08BF8002328001900FFF7E0F81A
:102BB000002070BD74BC0000D5BE000070B50923B4
:102BC0000021084A08481AF085FD00250400082263
:102BD000064901301CF0F0F920002570FBF776FC67
:102BE000280070BD1C200000011100004C360618A2
:102BF00013B5010000240122034B103100941BF097
:102C0000C6FD200016BDC0460D2C0618002270B56A
:102C1000112306000D00072011001AF05BFD0400CF
:102C200029000670102201301CF0C6F920001AF0AD
:102C300075FD70BD70B50A000500072300210E4820
:102C40001AF048FD122303702978040001290AD8DC
:102C5000681CFFF74FF9094B1B78834208D9611CA8
:102C60000CF0B6F820702000FBF730FC002070BD9F
:102C700002232370F7E7C04601110000D5BE000013
:102C800070B50A000500072300210E481AF022FD46
:102C9000122303702978040001290AD8681CFFF761
:102CA00029F9094B1B78834208D9611C0CF05AF8AA
:102CB00020702000FBF70AFC002070BD0223237067
:102CC000F7E7C04601110000D5BE000003880C489C
:102CD0005A1E92B210B50C00122182420AD8094A3B
:102CE000002154321380FA22920006205A431AF02F
:102CF0000BFC00212000FFF73BF8002010BDC04670
:102D0000B7A1000074BC000010B5104B0C00563386
:102D10001B78002B04D0FFF771FC0C2100280CD18C
:102D20000B4B1A680B4B197827234B43FF219B1839
:102D30009A4207D10BF082FC00212000FFF718F81F
:102D4000002010BD91712732F2E7C04674BC00002C
:102D500070BC0000D5BE000070B506780D00040000
:102D60001221012E1DD8114B56331B78002B04D095
:102D7000FFF744FC0C21002813D13100601CFFF741
:102D8000B9F80B4B04001B780221834209D90BF0E0
:102D900073FF2720074B44431B6800211C19FF23A6
:102DA000A3712800FEF7E4FF002070BD74BC000092
:102DB000D5BE000070BC0000F0B5037889B00700F4
:102DC00007910493012B06D912210798FEF7D0FF33
:102DD000002009B0F0BD3E4B56331B78002B04D0C9
:102DE000FFF70CFC0C210028EFD10024394B7E1C8E
:102DF0001B780593384B1D684035059BA34225DCA5
:102E00000023300004990593FFF74EF80022314B60
:102E100004921B780133834208DB0A3250432F4B64
:102E20001B681818457AAD07EB0F0493300039780A
:102E3000FFF760F82A4B1A788242C5D80024294B44
:102E40001B680633A24211D10721BEE72B78092B5C
:102E500007D129000622300020391CF09FF80028F5
:102E600002D001344435C8E70123CAE727331900EB
:102E700027390978FF2928D13B0017330693049B93
:102E8000FD1D0293059B200001933B782A00310031
:102E90000093069B0BF03EFE2720124B444318681C
:102EA0003B780419A3710622791C20001CF084F8D9
:102EB00010220699E01D1CF07FF820002900102246
:102EC00017301CF079F800217FE70134E4B2B9E74C
:102ED00074BC0000D4BE000068BC00006CBC0000E4
:102EE000D5BE000070BC0000F8B50D000400FFF76F
:102EF0005DFB0C21002805D021788B1EDBB2FC2B5A
:102F000005D812212800FEF733FF0020F8BD661C0B
:102F10003000FEF7C9FF0D4B1B7801338342F0DB15
:102F20000A22022142430A4B1B689A18537A0B4229
:102F3000E7D05F0707D58B435372310022780BF03F
:102F400089F90021DEE70321F5E7C046D4BE000081
:102F50006CBC0000F8B50D00FFF728FB0C21002821
:102F60001BD000240A26012731000F4B61431B6848
:102F700059184B7A3B4208D05A0713D50222934383
:102F800020000A7A4B720BF065F9084B01341B786C
:102F9000E4B20133A342E7DA00212800FEF7E8FE9D
:102FA0000020F8BD0322EAE76CBC0000D4BE00009C
:102FB000F7B505000191FFF7F9FA0C26002805D0B6
:102FC00029788B1EDBB2FC2B06D812263100019823
:102FD000FEF7CEFE0020FEBD6F1C3800FEF764FF3A
:102FE0001B4E040033780133834227DB0A22194B3E
:102FF00042431B689B185B7A9B07E6D40A23634312
:10300000144E0093009A33683900981806221BF07A
:10301000D3FF3368009A29789B180322587A1972D3
:1030200002435A723800FEF7BFFE0026B042CDD1EF
:10303000390020002A780BF06BF8C7E7FEF71CFF79
:1030400033780400023307269842D7D1BEE7C04642
:10305000D4BE00006CBC0000F8B5164E0500043666
:10306000F37F0F000C24002B04D104791F339C4301
:1030700006D0122438002100FEF77AFE0020F8BDA9
:103080001AF08CFF0138C0B22428F2D8290005229A
:1030900009481BF091FFFA222100920005201AF046
:1030A00033FA012321000420F3771AF0C7FAFFF75F
:1030B000DFF8DFE774BC00008CBC0000F7B505004A
:1030C00000240191384B1B78A3420DD837492800C2
:1030D0001AF057FF1221041E61D12900062234483C
:1030E0001BF06AFF21005AE0442363430093314BF5
:1030F000009A1B689B181A0040321278911E012911
:103100002DD92C4F009A3B689B181A004032127838
:10311000072A0CD11E68002E04D1274B2100032062
:103120001B689847022233789343012B32D0009AD0
:103130003B689B181A0040321278052A0CD11E6891
:10314000002E04D11C4B210003201B68984702224B
:1031500073789343012B1DD00134E4B2B2E71749D1
:10316000EE3109780129CCD11E68002E04D1124B12
:10317000210003201B689847102372881A4204D14B
:103180000D4B210003201B6898470222F37A9343DA
:10319000012BB6D1044B0C211B78A34296D9019880
:1031A000FEF7E6FD0020FEBDD4BE000042E4071895
:1031B00086BC000068BC000024BF000074BC000096
:1031C00070B509230021094A09481AF083FA04005E
:1031D000FFF730F8002501000822601C1BF0ECFE10
:1031E00020002570FBF772F9280070BD0320000055
:1031F0000111000070B50C00074D082201002800E5
:103200001BF0DAFE28000421FBF7E6F9200000217C
:10321000FEF7AEFD002070BD78BC000010B50C00BC
:103220000221FBF7D9F901002000FEF7A1FD0020E3
:1032300010BD10B50C000321FBF7CEF901002000F2
:10324000FEF796FD002010BD10B50C0081880088A7
:10325000FDF754F801002000FEF78AFD002010BDA4
:10326000007810B50C001221032804D8012318405F
:10327000FDF74EF801002000FEF77AFD002010BD9A
:1032800070B50A000923002108481AF023FA082221
:103290000400002101301BF0ABFE0025602320005C
:1032A00025706371FBF712F9280070BD0111000051
:1032B00070B541230A000B4800211AF00BFA0400F4
:1032C0002A22094901301BF077FE20000025162232
:1032D00000212B301BF08CFE20002570FBF7F6F848
:1032E000280070BD011100007033061810B50C00E5
:1032F00019F0F8FC20000021FEF73AFD002010BD77
:1033000010B503000C4A00780C001278002803D096
:103310005988914203D29888FDF71CF809E00022F1
:10332000064B110001201B68984712212000FEF770
:103330001FFD002010BDC046D4BE000024BF000009
:10334000002270B50C001900084BD000C518185A9F
:10335000884205D16B68181E01D02000984770BDC7
:103360000132522AF1D10020F9E7C046BC330618D9
:103370002000800000C000000000E40000002822BF
:10338000000000000000040000F7FFFF7F000000C5
:1033900030F0FFFFFFFFFFFFFF17BD1A3CCDA6B8BF
:1033A000995899B740EB7B60FF4A503F10D2E3B386
:1033B000C974385FC5A3D4F6493F00003920000026
:1033C0000544061836200000A13E061837200000EC
:1033D0001D410618030C0000ED3206180110000014
:1033E000D92A061809100000A52A061802100000A4
:1033F000B13206180310000081320618010C0000DB
:1034000033320618630C00001D320618310C000020
:1034100061320618330C000049320618350C0000E2
:103420000133061801200000F531061802200000C3
:10343000792A061803200000C13106180520000073
:10344000BD30061806200000693906180820000063
:10345000D13A06180A200000213C06180920000075
:10346000793B0618072000001D390618352000009A
:103470009540061838200000AD4206183A2000009A
:10348000F94C06183B200000314D06183C20000086
:10349000954D06183D200000054E06183E20000000
:1034A000054906183F200000F14906184020000099
:1034B000194B06180B2000002D5606180C20000092
:1034C0004D570618412000002559061842200000DB
:1034D000315A061844200000A55C0618452000005B
:1034E000995D061846200000755E0618472000000A
:1034F000D15E061848200000A95F06184920000088
:10350000596006184A200000D160061859200000B2
:10351000116106180D200000657106180E200000CC
:103520002177061843200000ED73061814200000D0
:10353000593006180F2000004D2A061810200000F0
:10354000552F061811200000B12F06181220000078
:10355000E92E06182A200000252A06182720000038
:10356000B92D061828200000592D06182920000022
:10357000092D06182E200000CD2C06182D20000045
:10358000652706182B200000812C06182C2000002F
:10359000352C061817200000F12B06181820000003
:1035A000D52906181C200000BD2B06184B20000052
:1035B0008D2906184C200000552906184D200000C2
:1035C000FD2806184E200000692B06185F20000019
:1035D000092B061823200000CD28061824200000FF
:1035E000292706182F2000009D2806181D200000FE
:1035F000957B06181E200000CF7B061833200000A4
:10360000137C0618342000005B7C06184F20000055
:10361000AB7C061850200000377D06181F200000E4
:10362000C17D0618252000002D2806182620000040
:10363000ED2706185E2000009927061831200000AB
:10364000A92606185D20000041260618FFFFFFFF8F
:10365000FF03000070B544251D4C454323685B59AA
:10366000002B05D000221B4B110001201B6898473E
:103670000022236811005E1910001A231AF02AF89C
:10368000FF2330602068002645192C683100237024
:10369000EC3B638080231B01A3800823200023814F
:1036A000013BE6806381267306220D301BF0A0FCEF
:1036B0008023FF33A3827F3BE382074BE67426839C
:1036C000DA682A631B8AAB86012340352B7070BDF4
:1036D00068BC000024BF000074BC000070B5442525
:1036E000354C454323685B19188C002805D0FEF73C
:1036F000DDFA002223685B191A6223685B19988C33
:10370000002805D0FEF7D2FA002223685B195A621E
:1037100023685B19188D002805D0FEF7C7FA002230
:1037200023685B199A6223685B19988D002805D07D
:10373000FEF7BCFA002223685B19DA622368585945
:10374000002805D00C381AF012F8002322685351D3
:1037500023681A495A193D3212780978914225D9BD
:10376000442656439B19188C002805D0FEF79EFA74
:10377000002223689B191A6223689B19988C0028E1
:1037800005D0FEF793FA002223689B195A6223683A
:103790009859002805D00C3819F0E9FF0023226859
:1037A000935123689E19002340363370002320680C
:1037B000451940352B7070BD68BC0000D4BE0000B8
:1037C00070B504000E00252805D900220F4B11000A
:1037D00001201B689847F0212000FAF76DFC0130AA
:1037E000C5B22620012D04D80F34844200D904002C
:1037F000E0B2013EF1B21AF0FDFD2D30FF3068431A
:103800000349FAF759FC0130C0B270BD24BF000073
:1038100071020000038870B505000C00DB0605D5B9
:103820000022104B110001201B6898472B880120B3
:1038300019000140034203D10A4B0A001B68984754
:10384000298806224B0700D59218D31C490600D4BC
:10385000931C0133D9B209190020252900DD12304B
:1038600070BDC04624BF000070B514000F4B0600A9
:103870001A78E3B20D009A4205D80D4B22000320BE
:103880001B68E1B29847002E0FD14420E4B24443B4
:10389000084B18680019030040331B78022B04D131
:1038A0000622290036301BF087FB70BDD4BE000015
:1038B00024BF000068BC0000F7B50D000024019093
:1038C000134F3B78A34202D8FF242000FEBD4422C0
:1038D000104B62431B689B181A0040321278511E2D
:1038E000022902D90134E4B2EAE71E68002E04D1AD
:1038F000094B210003201B6898473378019A9342B3
:10390000F0D13B78A342DFD9002DDED02E60DCE77A
:10391000D4BE000068BC000024BF00000A0010B53F
:10392000022300210D4819F0D5FE0D4B04001A00AA
:103930002D3210785B69012198470A4B6070EE3395
:103940001A78022A06D10C2320002370FAF7BEFD54
:10395000002010BD01221A700023F5E701110000BC
:10396000ECBE000074BC0000F0B5544B87B003916E
:10397000EE331A780400022A00D19DE001220021D2
:10398000FF201A70FFF798FF04AAD51D03002870C6
:10399000FF2813D04A4A106844225343C0184030CD
:1039A0000378012B00D087E02379042B0FD9122153
:1039B0000398FEF7DDF9002007B0F0BD2800FEF700
:1039C000F5FC011EF4D12878FFF744FEECE7012B4B
:1039D00009D0218862889142E9D81F29E7D980213E
:1039E000C9018A42E3D8627B013A062ADFD8A27B6A
:1039F000032ADCD86279032AD9D8A279012AD6D839
:103A0000012B03D000220292042B07D12D49E01D87
:103A10001AF0B7FA0028CAD10123029344230021E7
:103A20002A78274F53433A68D3181D68264A28003E
:103A3000019323790D30D35C6B80638869721A0A15
:103A40002A72EB712388A971AB80637B0622AB726B
:103A50006679E11DEE72A3792B731BF0ADFA00239A
:103A6000029A9A4200D1A37BEB74032E1DD830003A
:103A7000019B124930331BF073FA02120212019AB1
:103A8000C86810630A8A9A80442204ABD9793B68DB
:103A90004A439B180122403300211A7088E706220E
:103AA000180012311BF088FAEEE7084B00223100B3
:103AB00003201B689847E7E70C2179E774BC0000F6
:103AC00068BC000042E407180C55061824BF00002B
:103AD000F0B5274B85B00191EE331A7805000C2123
:103AE000022A38D001221A70037806311F2B32D8EF
:103AF0000021FF20FFF7E0FE02ABDE1D3070FF2843
:103B000007D13000FEF752FC011E24D13078FFF7B8
:103B1000A1FD44223378174F53433A68D3181B8CC6
:103B20000093FEF7ABF80721041E14D021002A7879
:103B3000681C19F08BF8442230783B68424329789E
:103B40009B181C84598440331B78022B09D1220016
:103B50000EF076F800210198FEF70AF9002005B072
:103B6000F0BD009B002BF5D01800FEF79FF8F1E7A1
:103B700074BC000068BC0000F0B5274B85B0019113
